{
	"SmartReservation.sol": {
		"SmartReservation": {
			"abi": [
				{
					"inputs": [],
					"stateMutability": "nonpayable",
					"type": "constructor"
				},
				{
					"anonymous": false,
					"inputs": [
						{
							"indexed": false,
							"internalType": "string",
							"name": "bookingId",
							"type": "string"
						},
						{
							"indexed": true,
							"internalType": "address",
							"name": "user",
							"type": "address"
						},
						{
							"indexed": false,
							"internalType": "string",
							"name": "nama",
							"type": "string"
						},
						{
							"indexed": false,
							"internalType": "string",
							"name": "tanggal",
							"type": "string"
						},
						{
							"indexed": false,
							"internalType": "string",
							"name": "hotel",
							"type": "string"
						}
					],
					"name": "Booked",
					"type": "event"
				},
				{
					"anonymous": false,
					"inputs": [
						{
							"indexed": false,
							"internalType": "string",
							"name": "bookingId",
							"type": "string"
						}
					],
					"name": "Verified",
					"type": "event"
				},
				{
					"inputs": [
						{
							"internalType": "string",
							"name": "",
							"type": "string"
						}
					],
					"name": "bookingsById",
					"outputs": [
						{
							"internalType": "address",
							"name": "user",
							"type": "address"
						},
						{
							"internalType": "string",
							"name": "nama",
							"type": "string"
						},
						{
							"internalType": "string",
							"name": "tanggal",
							"type": "string"
						},
						{
							"internalType": "string",
							"name": "hotel",
							"type": "string"
						},
						{
							"internalType": "uint256",
							"name": "timestamp",
							"type": "uint256"
						},
						{
							"internalType": "bool",
							"name": "verified",
							"type": "bool"
						}
					],
					"stateMutability": "view",
					"type": "function"
				},
				{
					"inputs": [
						{
							"internalType": "string",
							"name": "bookingId",
							"type": "string"
						}
					],
					"name": "getBookingById",
					"outputs": [
						{
							"components": [
								{
									"internalType": "address",
									"name": "user",
									"type": "address"
								},
								{
									"internalType": "string",
									"name": "nama",
									"type": "string"
								},
								{
									"internalType": "string",
									"name": "tanggal",
									"type": "string"
								},
								{
									"internalType": "string",
									"name": "hotel",
									"type": "string"
								},
								{
									"internalType": "uint256",
									"name": "timestamp",
									"type": "uint256"
								},
								{
									"internalType": "bool",
									"name": "verified",
									"type": "bool"
								}
							],
							"internalType": "struct SmartReservation.Booking",
							"name": "",
							"type": "tuple"
						}
					],
					"stateMutability": "view",
					"type": "function"
				},
				{
					"inputs": [],
					"name": "getMyBookings",
					"outputs": [
						{
							"components": [
								{
									"internalType": "address",
									"name": "user",
									"type": "address"
								},
								{
									"internalType": "string",
									"name": "nama",
									"type": "string"
								},
								{
									"internalType": "string",
									"name": "tanggal",
									"type": "string"
								},
								{
									"internalType": "string",
									"name": "hotel",
									"type": "string"
								},
								{
									"internalType": "uint256",
									"name": "timestamp",
									"type": "uint256"
								},
								{
									"internalType": "bool",
									"name": "verified",
									"type": "bool"
								}
							],
							"internalType": "struct SmartReservation.Booking[]",
							"name": "",
							"type": "tuple[]"
						}
					],
					"stateMutability": "view",
					"type": "function"
				},
				{
					"inputs": [
						{
							"internalType": "string",
							"name": "bookingId",
							"type": "string"
						},
						{
							"internalType": "string",
							"name": "nama",
							"type": "string"
						},
						{
							"internalType": "string",
							"name": "tanggal",
							"type": "string"
						},
						{
							"internalType": "string",
							"name": "hotel",
							"type": "string"
						}
					],
					"name": "makeReservation",
					"outputs": [],
					"stateMutability": "nonpayable",
					"type": "function"
				},
				{
					"inputs": [
						{
							"internalType": "address",
							"name": "",
							"type": "address"
						},
						{
							"internalType": "uint256",
							"name": "",
							"type": "uint256"
						}
					],
					"name": "myBookingIds",
					"outputs": [
						{
							"internalType": "string",
							"name": "",
							"type": "string"
						}
					],
					"stateMutability": "view",
					"type": "function"
				},
				{
					"inputs": [],
					"name": "owner",
					"outputs": [
						{
							"internalType": "address",
							"name": "",
							"type": "address"
						}
					],
					"stateMutability": "view",
					"type": "function"
				},
				{
					"inputs": [
						{
							"internalType": "string",
							"name": "bookingId",
							"type": "string"
						}
					],
					"name": "verifyBooking",
					"outputs": [],
					"stateMutability": "nonpayable",
					"type": "function"
				}
			],
			"devdoc": {
				"kind": "dev",
				"methods": {},
				"version": 1
			},
			"evm": {
				"assembly": "    /* \"SmartReservation.sol\":61:2027  contract SmartReservation {... */\n  mstore(0x40, 0x80)\n    /* \"SmartReservation.sol\":552:603  constructor() {... */\n  callvalue\n  dup1\n  iszero\n  tag_1\n  jumpi\n  revert(0x00, 0x00)\ntag_1:\n  pop\n    /* \"SmartReservation.sol\":585:595  msg.sender */\n  caller\n    /* \"SmartReservation.sol\":577:582  owner */\n  0x00\n  0x00\n    /* \"SmartReservation.sol\":577:595  owner = msg.sender */\n  0x0100\n  exp\n  dup2\n  sload\n  dup2\n  0xffffffffffffffffffffffffffffffffffffffff\n  mul\n  not\n  and\n  swap1\n  dup4\n  0xffffffffffffffffffffffffffffffffffffffff\n  and\n  mul\n  or\n  swap1\n  sstore\n  pop\n    /* \"SmartReservation.sol\":61:2027  contract SmartReservation {... */\n  dataSize(sub_0)\n  dup1\n  dataOffset(sub_0)\n  0x00\n  codecopy\n  0x00\n  return\nstop\n\nsub_0: assembly {\n        /* \"SmartReservation.sol\":61:2027  contract SmartReservation {... */\n      mstore(0x40, 0x80)\n      callvalue\n      dup1\n      iszero\n      tag_1\n      jumpi\n      revert(0x00, 0x00)\n    tag_1:\n      pop\n      jumpi(tag_2, lt(calldatasize, 0x04))\n      shr(0xe0, calldataload(0x00))\n      dup1\n      0x70770692\n      gt\n      tag_10\n      jumpi\n      dup1\n      0x70770692\n      eq\n      tag_6\n      jumpi\n      dup1\n      0x8da5cb5b\n      eq\n      tag_7\n      jumpi\n      dup1\n      0xae91322a\n      eq\n      tag_8\n      jumpi\n      dup1\n      0xd0e3fb61\n      eq\n      tag_9\n      jumpi\n      jump(tag_2)\n    tag_10:\n      dup1\n      0x1660dc6f\n      eq\n      tag_3\n      jumpi\n      dup1\n      0x180d7ef9\n      eq\n      tag_4\n      jumpi\n      dup1\n      0x681c3a49\n      eq\n      tag_5\n      jumpi\n    tag_2:\n      revert(0x00, 0x00)\n        /* \"SmartReservation.sol\":1244:1547  function verifyBooking(string memory bookingId) public {... */\n    tag_3:\n      tag_11\n      0x04\n      dup1\n      calldatasize\n      sub\n      dup2\n      add\n      swap1\n      tag_12\n      swap2\n      swap1\n      tag_13\n      jump\t// in\n    tag_12:\n      tag_14\n      jump\t// in\n    tag_11:\n      stop\n        /* \"SmartReservation.sol\":1555:1881  function getMyBookings() public view returns (Booking[] memory) {... */\n    tag_4:\n      tag_15\n      tag_16\n      jump\t// in\n    tag_15:\n      mload(0x40)\n      tag_17\n      swap2\n      swap1\n      tag_18\n      jump\t// in\n    tag_17:\n      mload(0x40)\n      dup1\n      swap2\n      sub\n      swap1\n      return\n        /* \"SmartReservation.sol\":352:400  mapping(address => string[]) public myBookingIds */\n    tag_5:\n      tag_19\n      0x04\n      dup1\n      calldatasize\n      sub\n      dup2\n      add\n      swap1\n      tag_20\n      swap2\n      swap1\n      tag_21\n      jump\t// in\n    tag_20:\n      tag_22\n      jump\t// in\n    tag_19:\n      mload(0x40)\n      tag_23\n      swap2\n      swap1\n      tag_24\n      jump\t// in\n    tag_23:\n      mload(0x40)\n      dup1\n      swap2\n      sub\n      swap1\n      return\n        /* \"SmartReservation.sol\":611:1236  function makeReservation(... */\n    tag_6:\n      tag_25\n      0x04\n      dup1\n      calldatasize\n      sub\n      dup2\n      add\n      swap1\n      tag_26\n      swap2\n      swap1\n      tag_27\n      jump\t// in\n    tag_26:\n      tag_28\n      jump\t// in\n    tag_25:\n      stop\n        /* \"SmartReservation.sol\":94:114  address public owner */\n    tag_7:\n      tag_29\n      tag_30\n      jump\t// in\n    tag_29:\n      mload(0x40)\n      tag_31\n      swap2\n      swap1\n      tag_32\n      jump\t// in\n    tag_31:\n      mload(0x40)\n      dup1\n      swap2\n      sub\n      swap1\n      return\n        /* \"SmartReservation.sol\":1889:2024  function getBookingById(string memory bookingId) public view returns (Booking memory) {... */\n    tag_8:\n      tag_33\n      0x04\n      dup1\n      calldatasize\n      sub\n      dup2\n      add\n      swap1\n      tag_34\n      swap2\n      swap1\n      tag_13\n      jump\t// in\n    tag_34:\n      tag_35\n      jump\t// in\n    tag_33:\n      mload(0x40)\n      tag_36\n      swap2\n      swap1\n      tag_37\n      jump\t// in\n    tag_36:\n      mload(0x40)\n      dup1\n      swap2\n      sub\n      swap1\n      return\n        /* \"SmartReservation.sol\":299:345  mapping(string => Booking) public bookingsById */\n    tag_9:\n      tag_38\n      0x04\n      dup1\n      calldatasize\n      sub\n      dup2\n      add\n      swap1\n      tag_39\n      swap2\n      swap1\n      tag_13\n      jump\t// in\n    tag_39:\n      tag_40\n      jump\t// in\n    tag_38:\n      mload(0x40)\n      tag_41\n      swap7\n      swap6\n      swap5\n      swap4\n      swap3\n      swap2\n      swap1\n      tag_42\n      jump\t// in\n    tag_41:\n      mload(0x40)\n      dup1\n      swap2\n      sub\n      swap1\n      return\n        /* \"SmartReservation.sol\":1244:1547  function verifyBooking(string memory bookingId) public {... */\n    tag_14:\n        /* \"SmartReservation.sol\":1332:1337  owner */\n      0x00\n      0x00\n      swap1\n      sload\n      swap1\n      0x0100\n      exp\n      swap1\n      div\n      0xffffffffffffffffffffffffffffffffffffffff\n      and\n        /* \"SmartReservation.sol\":1318:1337  msg.sender == owner */\n      0xffffffffffffffffffffffffffffffffffffffff\n      and\n        /* \"SmartReservation.sol\":1318:1328  msg.sender */\n      caller\n        /* \"SmartReservation.sol\":1318:1337  msg.sender == owner */\n      0xffffffffffffffffffffffffffffffffffffffff\n      and\n      eq\n        /* \"SmartReservation.sol\":1310:1371  require(msg.sender == owner, \"Only owner can verify booking\") */\n      tag_44\n      jumpi\n      mload(0x40)\n      0x08c379a000000000000000000000000000000000000000000000000000000000\n      dup2\n      mstore\n      0x04\n      add\n      tag_45\n      swap1\n      tag_46\n      jump\t// in\n    tag_45:\n      mload(0x40)\n      dup1\n      swap2\n      sub\n      swap1\n      revert\n    tag_44:\n        /* \"SmartReservation.sol\":1427:1428  0 */\n      0x00\n        /* \"SmartReservation.sol\":1390:1402  bookingsById */\n      0x01\n        /* \"SmartReservation.sol\":1403:1412  bookingId */\n      dup3\n        /* \"SmartReservation.sol\":1390:1413  bookingsById[bookingId] */\n      mload(0x40)\n      tag_47\n      swap2\n      swap1\n      tag_48\n      jump\t// in\n    tag_47:\n      swap1\n      dup2\n      mstore\n      0x20\n      add\n      mload(0x40)\n      dup1\n      swap2\n      sub\n      swap1\n      keccak256\n        /* \"SmartReservation.sol\":1390:1423  bookingsById[bookingId].timestamp */\n      0x04\n      add\n      sload\n        /* \"SmartReservation.sol\":1390:1428  bookingsById[bookingId].timestamp != 0 */\n      sub\n        /* \"SmartReservation.sol\":1382:1450  require(bookingsById[bookingId].timestamp != 0, \"Booking not found\") */\n      tag_49\n      jumpi\n      mload(0x40)\n      0x08c379a000000000000000000000000000000000000000000000000000000000\n      dup2\n      mstore\n      0x04\n      add\n      tag_50\n      swap1\n      tag_51\n      jump\t// in\n    tag_50:\n      mload(0x40)\n      dup1\n      swap2\n      sub\n      swap1\n      revert\n    tag_49:\n        /* \"SmartReservation.sol\":1498:1502  true */\n      0x01\n        /* \"SmartReservation.sol\":1463:1475  bookingsById */\n      dup1\n        /* \"SmartReservation.sol\":1476:1485  bookingId */\n      dup3\n        /* \"SmartReservation.sol\":1463:1486  bookingsById[bookingId] */\n      mload(0x40)\n      tag_52\n      swap2\n      swap1\n      tag_48\n      jump\t// in\n    tag_52:\n      swap1\n      dup2\n      mstore\n      0x20\n      add\n      mload(0x40)\n      dup1\n      swap2\n      sub\n      swap1\n      keccak256\n        /* \"SmartReservation.sol\":1463:1495  bookingsById[bookingId].verified */\n      0x05\n      add\n      0x00\n        /* \"SmartReservation.sol\":1463:1502  bookingsById[bookingId].verified = true */\n      0x0100\n      exp\n      dup2\n      sload\n      dup2\n      0xff\n      mul\n      not\n      and\n      swap1\n      dup4\n      iszero\n      iszero\n      mul\n      or\n      swap1\n      sstore\n      pop\n        /* \"SmartReservation.sol\":1520:1539  Verified(bookingId) */\n      0x3f3cfdb26fb5f9f1786ab4f1a1f9cd4c0b5e726cbdfc26e495261731aad44e39\n        /* \"SmartReservation.sol\":1529:1538  bookingId */\n      dup2\n        /* \"SmartReservation.sol\":1520:1539  Verified(bookingId) */\n      mload(0x40)\n      tag_53\n      swap2\n      swap1\n      tag_24\n      jump\t// in\n    tag_53:\n      mload(0x40)\n      dup1\n      swap2\n      sub\n      swap1\n      log1\n        /* \"SmartReservation.sol\":1244:1547  function verifyBooking(string memory bookingId) public {... */\n      pop\n      jump\t// out\n        /* \"SmartReservation.sol\":1555:1881  function getMyBookings() public view returns (Booking[] memory) {... */\n    tag_16:\n        /* \"SmartReservation.sol\":1601:1617  Booking[] memory */\n      0x60\n        /* \"SmartReservation.sol\":1630:1649  string[] memory ids */\n      0x00\n        /* \"SmartReservation.sol\":1652:1664  myBookingIds */\n      0x02\n        /* \"SmartReservation.sol\":1652:1676  myBookingIds[msg.sender] */\n      0x00\n        /* \"SmartReservation.sol\":1665:1675  msg.sender */\n      caller\n        /* \"SmartReservation.sol\":1652:1676  myBookingIds[msg.sender] */\n      0xffffffffffffffffffffffffffffffffffffffff\n      and\n      0xffffffffffffffffffffffffffffffffffffffff\n      and\n      dup2\n      mstore\n      0x20\n      add\n      swap1\n      dup2\n      mstore\n      0x20\n      add\n      0x00\n      keccak256\n        /* \"SmartReservation.sol\":1630:1676  string[] memory ids = myBookingIds[msg.sender] */\n      dup1\n      sload\n      dup1\n      0x20\n      mul\n      0x20\n      add\n      mload(0x40)\n      swap1\n      dup2\n      add\n      0x40\n      mstore\n      dup1\n      swap3\n      swap2\n      swap1\n      dup2\n      dup2\n      mstore\n      0x20\n      add\n      0x00\n      swap1\n    tag_55:\n      dup3\n      dup3\n      lt\n      iszero\n      tag_56\n      jumpi\n      dup4\n      dup3\n      swap1\n      0x00\n      mstore\n      keccak256(0x00, 0x20)\n      add\n      dup1\n      sload\n      tag_58\n      swap1\n      tag_59\n      jump\t// in\n    tag_58:\n      dup1\n      0x1f\n      add\n      0x20\n      dup1\n      swap2\n      div\n      mul\n      0x20\n      add\n      mload(0x40)\n      swap1\n      dup2\n      add\n      0x40\n      mstore\n      dup1\n      swap3\n      swap2\n      swap1\n      dup2\n      dup2\n      mstore\n      0x20\n      add\n      dup3\n      dup1\n      sload\n      tag_60\n      swap1\n      tag_59\n      jump\t// in\n    tag_60:\n      dup1\n      iszero\n      tag_61\n      jumpi\n      dup1\n      0x1f\n      lt\n      tag_62\n      jumpi\n      0x0100\n      dup1\n      dup4\n      sload\n      div\n      mul\n      dup4\n      mstore\n      swap2\n      0x20\n      add\n      swap2\n      jump(tag_61)\n    tag_62:\n      dup3\n      add\n      swap2\n      swap1\n      0x00\n      mstore\n      keccak256(0x00, 0x20)\n      swap1\n    tag_63:\n      dup2\n      sload\n      dup2\n      mstore\n      swap1\n      0x01\n      add\n      swap1\n      0x20\n      add\n      dup1\n      dup4\n      gt\n      tag_63\n      jumpi\n      dup3\n      swap1\n      sub\n      0x1f\n      and\n      dup3\n      add\n      swap2\n    tag_61:\n      pop\n      pop\n      pop\n      pop\n      pop\n      dup2\n      mstore\n      0x20\n      add\n      swap1\n      0x01\n      add\n      swap1\n      jump(tag_55)\n    tag_56:\n      pop\n      pop\n      pop\n      pop\n      swap1\n      pop\n        /* \"SmartReservation.sol\":1687:1710  Booking[] memory result */\n      0x00\n        /* \"SmartReservation.sol\":1727:1730  ids */\n      dup2\n        /* \"SmartReservation.sol\":1727:1737  ids.length */\n      mload\n        /* \"SmartReservation.sol\":1713:1738  new Booking[](ids.length) */\n      0xffffffffffffffff\n      dup2\n      gt\n      iszero\n      tag_64\n      jumpi\n      tag_65\n      tag_66\n      jump\t// in\n    tag_65:\n    tag_64:\n      mload(0x40)\n      swap1\n      dup1\n      dup3\n      mstore\n      dup1\n      0x20\n      mul\n      0x20\n      add\n      dup3\n      add\n      0x40\n      mstore\n      dup1\n      iszero\n      tag_67\n      jumpi\n      dup2\n      0x20\n      add\n    tag_68:\n      tag_69\n      tag_70\n      jump\t// in\n    tag_69:\n      dup2\n      mstore\n      0x20\n      add\n      swap1\n      0x01\n      swap1\n      sub\n      swap1\n      dup2\n      tag_68\n      jumpi\n      swap1\n      pop\n    tag_67:\n      pop\n        /* \"SmartReservation.sol\":1687:1738  Booking[] memory result = new Booking[](ids.length) */\n      swap1\n      pop\n        /* \"SmartReservation.sol\":1756:1762  uint i */\n      0x00\n        /* \"SmartReservation.sol\":1765:1766  0 */\n      0x00\n        /* \"SmartReservation.sol\":1756:1766  uint i = 0 */\n      swap1\n      pop\n        /* \"SmartReservation.sol\":1751:1848  for (uint i = 0; i < ids.length; i++) {... */\n    tag_71:\n        /* \"SmartReservation.sol\":1772:1775  ids */\n      dup3\n        /* \"SmartReservation.sol\":1772:1782  ids.length */\n      mload\n        /* \"SmartReservation.sol\":1768:1769  i */\n      dup2\n        /* \"SmartReservation.sol\":1768:1782  i < ids.length */\n      lt\n        /* \"SmartReservation.sol\":1751:1848  for (uint i = 0; i < ids.length; i++) {... */\n      iszero\n      tag_72\n      jumpi\n        /* \"SmartReservation.sol\":1816:1828  bookingsById */\n      0x01\n        /* \"SmartReservation.sol\":1829:1832  ids */\n      dup4\n        /* \"SmartReservation.sol\":1833:1834  i */\n      dup3\n        /* \"SmartReservation.sol\":1829:1835  ids[i] */\n      dup2\n      mload\n      dup2\n      lt\n      tag_74\n      jumpi\n      tag_75\n      tag_76\n      jump\t// in\n    tag_75:\n    tag_74:\n      0x20\n      mul\n      0x20\n      add\n      add\n      mload\n        /* \"SmartReservation.sol\":1816:1836  bookingsById[ids[i]] */\n      mload(0x40)\n      tag_77\n      swap2\n      swap1\n      tag_48\n      jump\t// in\n    tag_77:\n      swap1\n      dup2\n      mstore\n      0x20\n      add\n      mload(0x40)\n      dup1\n      swap2\n      sub\n      swap1\n      keccak256\n        /* \"SmartReservation.sol\":1804:1836  result[i] = bookingsById[ids[i]] */\n      mload(0x40)\n      dup1\n      0xc0\n      add\n      0x40\n      mstore\n      swap1\n      dup2\n      0x00\n      dup3\n      add\n      0x00\n      swap1\n      sload\n      swap1\n      0x0100\n      exp\n      swap1\n      div\n      0xffffffffffffffffffffffffffffffffffffffff\n      and\n      0xffffffffffffffffffffffffffffffffffffffff\n      and\n      0xffffffffffffffffffffffffffffffffffffffff\n      and\n      dup2\n      mstore\n      0x20\n      add\n      0x01\n      dup3\n      add\n      dup1\n      sload\n      tag_78\n      swap1\n      tag_59\n      jump\t// in\n    tag_78:\n      dup1\n      0x1f\n      add\n      0x20\n      dup1\n      swap2\n      div\n      mul\n      0x20\n      add\n      mload(0x40)\n      swap1\n      dup2\n      add\n      0x40\n      mstore\n      dup1\n      swap3\n      swap2\n      swap1\n      dup2\n      dup2\n      mstore\n      0x20\n      add\n      dup3\n      dup1\n      sload\n      tag_79\n      swap1\n      tag_59\n      jump\t// in\n    tag_79:\n      dup1\n      iszero\n      tag_80\n      jumpi\n      dup1\n      0x1f\n      lt\n      tag_81\n      jumpi\n      0x0100\n      dup1\n      dup4\n      sload\n      div\n      mul\n      dup4\n      mstore\n      swap2\n      0x20\n      add\n      swap2\n      jump(tag_80)\n    tag_81:\n      dup3\n      add\n      swap2\n      swap1\n      0x00\n      mstore\n      keccak256(0x00, 0x20)\n      swap1\n    tag_82:\n      dup2\n      sload\n      dup2\n      mstore\n      swap1\n      0x01\n      add\n      swap1\n      0x20\n      add\n      dup1\n      dup4\n      gt\n      tag_82\n      jumpi\n      dup3\n      swap1\n      sub\n      0x1f\n      and\n      dup3\n      add\n      swap2\n    tag_80:\n      pop\n      pop\n      pop\n      pop\n      pop\n      dup2\n      mstore\n      0x20\n      add\n      0x02\n      dup3\n      add\n      dup1\n      sload\n      tag_83\n      swap1\n      tag_59\n      jump\t// in\n    tag_83:\n      dup1\n      0x1f\n      add\n      0x20\n      dup1\n      swap2\n      div\n      mul\n      0x20\n      add\n      mload(0x40)\n      swap1\n      dup2\n      add\n      0x40\n      mstore\n      dup1\n      swap3\n      swap2\n      swap1\n      dup2\n      dup2\n      mstore\n      0x20\n      add\n      dup3\n      dup1\n      sload\n      tag_84\n      swap1\n      tag_59\n      jump\t// in\n    tag_84:\n      dup1\n      iszero\n      tag_85\n      jumpi\n      dup1\n      0x1f\n      lt\n      tag_86\n      jumpi\n      0x0100\n      dup1\n      dup4\n      sload\n      div\n      mul\n      dup4\n      mstore\n      swap2\n      0x20\n      add\n      swap2\n      jump(tag_85)\n    tag_86:\n      dup3\n      add\n      swap2\n      swap1\n      0x00\n      mstore\n      keccak256(0x00, 0x20)\n      swap1\n    tag_87:\n      dup2\n      sload\n      dup2\n      mstore\n      swap1\n      0x01\n      add\n      swap1\n      0x20\n      add\n      dup1\n      dup4\n      gt\n      tag_87\n      jumpi\n      dup3\n      swap1\n      sub\n      0x1f\n      and\n      dup3\n      add\n      swap2\n    tag_85:\n      pop\n      pop\n      pop\n      pop\n      pop\n      dup2\n      mstore\n      0x20\n      add\n      0x03\n      dup3\n      add\n      dup1\n      sload\n      tag_88\n      swap1\n      tag_59\n      jump\t// in\n    tag_88:\n      dup1\n      0x1f\n      add\n      0x20\n      dup1\n      swap2\n      div\n      mul\n      0x20\n      add\n      mload(0x40)\n      swap1\n      dup2\n      add\n      0x40\n      mstore\n      dup1\n      swap3\n      swap2\n      swap1\n      dup2\n      dup2\n      mstore\n      0x20\n      add\n      dup3\n      dup1\n      sload\n      tag_89\n      swap1\n      tag_59\n      jump\t// in\n    tag_89:\n      dup1\n      iszero\n      tag_90\n      jumpi\n      dup1\n      0x1f\n      lt\n      tag_91\n      jumpi\n      0x0100\n      dup1\n      dup4\n      sload\n      div\n      mul\n      dup4\n      mstore\n      swap2\n      0x20\n      add\n      swap2\n      jump(tag_90)\n    tag_91:\n      dup3\n      add\n      swap2\n      swap1\n      0x00\n      mstore\n      keccak256(0x00, 0x20)\n      swap1\n    tag_92:\n      dup2\n      sload\n      dup2\n      mstore\n      swap1\n      0x01\n      add\n      swap1\n      0x20\n      add\n      dup1\n      dup4\n      gt\n      tag_92\n      jumpi\n      dup3\n      swap1\n      sub\n      0x1f\n      and\n      dup3\n      add\n      swap2\n    tag_90:\n      pop\n      pop\n      pop\n      pop\n      pop\n      dup2\n      mstore\n      0x20\n      add\n      0x04\n      dup3\n      add\n      sload\n      dup2\n      mstore\n      0x20\n      add\n      0x05\n      dup3\n      add\n      0x00\n      swap1\n      sload\n      swap1\n      0x0100\n      exp\n      swap1\n      div\n      0xff\n      and\n      iszero\n      iszero\n      iszero\n      iszero\n      dup2\n      mstore\n      pop\n      pop\n        /* \"SmartReservation.sol\":1804:1810  result */\n      dup3\n        /* \"SmartReservation.sol\":1811:1812  i */\n      dup3\n        /* \"SmartReservation.sol\":1804:1813  result[i] */\n      dup2\n      mload\n      dup2\n      lt\n      tag_93\n      jumpi\n      tag_94\n      tag_76\n      jump\t// in\n    tag_94:\n    tag_93:\n      0x20\n      mul\n      0x20\n      add\n      add\n        /* \"SmartReservation.sol\":1804:1836  result[i] = bookingsById[ids[i]] */\n      dup2\n      swap1\n      mstore\n      pop\n        /* \"SmartReservation.sol\":1784:1787  i++ */\n      dup1\n      dup1\n      0x01\n      add\n      swap2\n      pop\n      pop\n        /* \"SmartReservation.sol\":1751:1848  for (uint i = 0; i < ids.length; i++) {... */\n      jump(tag_71)\n    tag_72:\n      pop\n        /* \"SmartReservation.sol\":1867:1873  result */\n      dup1\n        /* \"SmartReservation.sol\":1860:1873  return result */\n      swap3\n      pop\n      pop\n      pop\n        /* \"SmartReservation.sol\":1555:1881  function getMyBookings() public view returns (Booking[] memory) {... */\n      swap1\n      jump\t// out\n        /* \"SmartReservation.sol\":352:400  mapping(address => string[]) public myBookingIds */\n    tag_22:\n      mstore(0x20, 0x02)\n      dup2\n      0x00\n      mstore\n      keccak256(0x00, 0x40)\n      dup2\n      dup2\n      sload\n      dup2\n      lt\n      tag_95\n      jumpi\n      0x00\n      dup1\n      revert\n    tag_95:\n      swap1\n      0x00\n      mstore\n      keccak256(0x00, 0x20)\n      add\n      0x00\n      swap2\n      pop\n      swap2\n      pop\n      pop\n      dup1\n      sload\n      tag_97\n      swap1\n      tag_59\n      jump\t// in\n    tag_97:\n      dup1\n      0x1f\n      add\n      0x20\n      dup1\n      swap2\n      div\n      mul\n      0x20\n      add\n      mload(0x40)\n      swap1\n      dup2\n      add\n      0x40\n      mstore\n      dup1\n      swap3\n      swap2\n      swap1\n      dup2\n      dup2\n      mstore\n      0x20\n      add\n      dup3\n      dup1\n      sload\n      tag_98\n      swap1\n      tag_59\n      jump\t// in\n    tag_98:\n      dup1\n      iszero\n      tag_99\n      jumpi\n      dup1\n      0x1f\n      lt\n      tag_100\n      jumpi\n      0x0100\n      dup1\n      dup4\n      sload\n      div\n      mul\n      dup4\n      mstore\n      swap2\n      0x20\n      add\n      swap2\n      jump(tag_99)\n    tag_100:\n      dup3\n      add\n      swap2\n      swap1\n      0x00\n      mstore\n      keccak256(0x00, 0x20)\n      swap1\n    tag_101:\n      dup2\n      sload\n      dup2\n      mstore\n      swap1\n      0x01\n      add\n      swap1\n      0x20\n      add\n      dup1\n      dup4\n      gt\n      tag_101\n      jumpi\n      dup3\n      swap1\n      sub\n      0x1f\n      and\n      dup3\n      add\n      swap2\n    tag_99:\n      pop\n      pop\n      pop\n      pop\n      pop\n      dup2\n      jump\t// out\n        /* \"SmartReservation.sol\":611:1236  function makeReservation(... */\n    tag_28:\n        /* \"SmartReservation.sol\":831:832  0 */\n      0x00\n        /* \"SmartReservation.sol\":794:806  bookingsById */\n      0x01\n        /* \"SmartReservation.sol\":807:816  bookingId */\n      dup6\n        /* \"SmartReservation.sol\":794:817  bookingsById[bookingId] */\n      mload(0x40)\n      tag_103\n      swap2\n      swap1\n      tag_48\n      jump\t// in\n    tag_103:\n      swap1\n      dup2\n      mstore\n      0x20\n      add\n      mload(0x40)\n      dup1\n      swap2\n      sub\n      swap1\n      keccak256\n        /* \"SmartReservation.sol\":794:827  bookingsById[bookingId].timestamp */\n      0x04\n      add\n      sload\n        /* \"SmartReservation.sol\":794:832  bookingsById[bookingId].timestamp == 0 */\n      eq\n        /* \"SmartReservation.sol\":786:862  require(bookingsById[bookingId].timestamp == 0, \"Booking ID already exists\") */\n      tag_104\n      jumpi\n      mload(0x40)\n      0x08c379a000000000000000000000000000000000000000000000000000000000\n      dup2\n      mstore\n      0x04\n      add\n      tag_105\n      swap1\n      tag_106\n      jump\t// in\n    tag_105:\n      mload(0x40)\n      dup1\n      swap2\n      sub\n      swap1\n      revert\n    tag_104:\n        /* \"SmartReservation.sol\":901:1106  Booking({... */\n      mload(0x40)\n      dup1\n      0xc0\n      add\n      0x40\n      mstore\n      dup1\n        /* \"SmartReservation.sol\":930:940  msg.sender */\n      caller\n        /* \"SmartReservation.sol\":901:1106  Booking({... */\n      0xffffffffffffffffffffffffffffffffffffffff\n      and\n      dup2\n      mstore\n      0x20\n      add\n        /* \"SmartReservation.sol\":961:965  nama */\n      dup5\n        /* \"SmartReservation.sol\":901:1106  Booking({... */\n      dup2\n      mstore\n      0x20\n      add\n        /* \"SmartReservation.sol\":989:996  tanggal */\n      dup4\n        /* \"SmartReservation.sol\":901:1106  Booking({... */\n      dup2\n      mstore\n      0x20\n      add\n        /* \"SmartReservation.sol\":1018:1023  hotel */\n      dup3\n        /* \"SmartReservation.sol\":901:1106  Booking({... */\n      dup2\n      mstore\n      0x20\n      add\n        /* \"SmartReservation.sol\":1049:1064  block.timestamp */\n      timestamp\n        /* \"SmartReservation.sol\":901:1106  Booking({... */\n      dup2\n      mstore\n      0x20\n      add\n        /* \"SmartReservation.sol\":1089:1094  false */\n      0x00\n        /* \"SmartReservation.sol\":901:1106  Booking({... */\n      iszero\n      iszero\n      dup2\n      mstore\n      pop\n        /* \"SmartReservation.sol\":875:887  bookingsById */\n      0x01\n        /* \"SmartReservation.sol\":888:897  bookingId */\n      dup6\n        /* \"SmartReservation.sol\":875:898  bookingsById[bookingId] */\n      mload(0x40)\n      tag_107\n      swap2\n      swap1\n      tag_48\n      jump\t// in\n    tag_107:\n      swap1\n      dup2\n      mstore\n      0x20\n      add\n      mload(0x40)\n      dup1\n      swap2\n      sub\n      swap1\n      keccak256\n        /* \"SmartReservation.sol\":875:1106  bookingsById[bookingId] = Booking({... */\n      0x00\n      dup3\n      add\n      mload\n      dup2\n      0x00\n      add\n      exp(0x0100, 0x00)\n      dup2\n      sload\n      dup2\n      0xffffffffffffffffffffffffffffffffffffffff\n      mul\n      not\n      and\n      swap1\n      dup4\n      0xffffffffffffffffffffffffffffffffffffffff\n      and\n      mul\n      or\n      swap1\n      sstore\n      pop\n      0x20\n      dup3\n      add\n      mload\n      dup2\n      0x01\n      add\n      swap1\n      dup2\n      tag_108\n      swap2\n      swap1\n      tag_109\n      jump\t// in\n    tag_108:\n      pop\n      0x40\n      dup3\n      add\n      mload\n      dup2\n      0x02\n      add\n      swap1\n      dup2\n      tag_110\n      swap2\n      swap1\n      tag_109\n      jump\t// in\n    tag_110:\n      pop\n      0x60\n      dup3\n      add\n      mload\n      dup2\n      0x03\n      add\n      swap1\n      dup2\n      tag_111\n      swap2\n      swap1\n      tag_109\n      jump\t// in\n    tag_111:\n      pop\n      0x80\n      dup3\n      add\n      mload\n      dup2\n      0x04\n      add\n      sstore\n      0xa0\n      dup3\n      add\n      mload\n      dup2\n      0x05\n      add\n      exp(0x0100, 0x00)\n      dup2\n      sload\n      dup2\n      0xff\n      mul\n      not\n      and\n      swap1\n      dup4\n      iszero\n      iszero\n      mul\n      or\n      swap1\n      sstore\n      pop\n      swap1\n      pop\n      pop\n        /* \"SmartReservation.sol\":1119:1131  myBookingIds */\n      0x02\n        /* \"SmartReservation.sol\":1119:1143  myBookingIds[msg.sender] */\n      0x00\n        /* \"SmartReservation.sol\":1132:1142  msg.sender */\n      caller\n        /* \"SmartReservation.sol\":1119:1143  myBookingIds[msg.sender] */\n      0xffffffffffffffffffffffffffffffffffffffff\n      and\n      0xffffffffffffffffffffffffffffffffffffffff\n      and\n      dup2\n      mstore\n      0x20\n      add\n      swap1\n      dup2\n      mstore\n      0x20\n      add\n      0x00\n      keccak256\n        /* \"SmartReservation.sol\":1149:1158  bookingId */\n      dup5\n        /* \"SmartReservation.sol\":1119:1159  myBookingIds[msg.sender].push(bookingId) */\n      swap1\n      dup1\n      0x01\n      dup2\n      sload\n      add\n      dup1\n      dup3\n      sstore\n      dup1\n      swap2\n      pop\n      pop\n      0x01\n      swap1\n      sub\n      swap1\n      0x00\n      mstore\n      keccak256(0x00, 0x20)\n      add\n      0x00\n      swap1\n      swap2\n      swap1\n      swap2\n      swap1\n      swap2\n      pop\n      swap1\n      dup2\n      tag_113\n      swap2\n      swap1\n      tag_109\n      jump\t// in\n    tag_113:\n      pop\n        /* \"SmartReservation.sol\":1195:1205  msg.sender */\n      caller\n        /* \"SmartReservation.sol\":1177:1228  Booked(bookingId, msg.sender, nama, tanggal, hotel) */\n      0xffffffffffffffffffffffffffffffffffffffff\n      and\n      0x4d9e665df13a65676307a38bb1b6b96c79ca9bbe90d3c2a80b79c52428b051c4\n        /* \"SmartReservation.sol\":1184:1193  bookingId */\n      dup6\n        /* \"SmartReservation.sol\":1207:1211  nama */\n      dup6\n        /* \"SmartReservation.sol\":1213:1220  tanggal */\n      dup6\n        /* \"SmartReservation.sol\":1222:1227  hotel */\n      dup6\n        /* \"SmartReservation.sol\":1177:1228  Booked(bookingId, msg.sender, nama, tanggal, hotel) */\n      mload(0x40)\n      tag_114\n      swap5\n      swap4\n      swap3\n      swap2\n      swap1\n      tag_115\n      jump\t// in\n    tag_114:\n      mload(0x40)\n      dup1\n      swap2\n      sub\n      swap1\n      log2\n        /* \"SmartReservation.sol\":611:1236  function makeReservation(... */\n      pop\n      pop\n      pop\n      pop\n      jump\t// out\n        /* \"SmartReservation.sol\":94:114  address public owner */\n    tag_30:\n      0x00\n      0x00\n      swap1\n      sload\n      swap1\n      0x0100\n      exp\n      swap1\n      div\n      0xffffffffffffffffffffffffffffffffffffffff\n      and\n      dup2\n      jump\t// out\n        /* \"SmartReservation.sol\":1889:2024  function getBookingById(string memory bookingId) public view returns (Booking memory) {... */\n    tag_35:\n        /* \"SmartReservation.sol\":1959:1973  Booking memory */\n      tag_116\n      tag_70\n      jump\t// in\n    tag_116:\n        /* \"SmartReservation.sol\":1993:2005  bookingsById */\n      0x01\n        /* \"SmartReservation.sol\":2006:2015  bookingId */\n      dup3\n        /* \"SmartReservation.sol\":1993:2016  bookingsById[bookingId] */\n      mload(0x40)\n      tag_118\n      swap2\n      swap1\n      tag_48\n      jump\t// in\n    tag_118:\n      swap1\n      dup2\n      mstore\n      0x20\n      add\n      mload(0x40)\n      dup1\n      swap2\n      sub\n      swap1\n      keccak256\n        /* \"SmartReservation.sol\":1986:2016  return bookingsById[bookingId] */\n      mload(0x40)\n      dup1\n      0xc0\n      add\n      0x40\n      mstore\n      swap1\n      dup2\n      0x00\n      dup3\n      add\n      0x00\n      swap1\n      sload\n      swap1\n      0x0100\n      exp\n      swap1\n      div\n      0xffffffffffffffffffffffffffffffffffffffff\n      and\n      0xffffffffffffffffffffffffffffffffffffffff\n      and\n      0xffffffffffffffffffffffffffffffffffffffff\n      and\n      dup2\n      mstore\n      0x20\n      add\n      0x01\n      dup3\n      add\n      dup1\n      sload\n      tag_119\n      swap1\n      tag_59\n      jump\t// in\n    tag_119:\n      dup1\n      0x1f\n      add\n      0x20\n      dup1\n      swap2\n      div\n      mul\n      0x20\n      add\n      mload(0x40)\n      swap1\n      dup2\n      add\n      0x40\n      mstore\n      dup1\n      swap3\n      swap2\n      swap1\n      dup2\n      dup2\n      mstore\n      0x20\n      add\n      dup3\n      dup1\n      sload\n      tag_120\n      swap1\n      tag_59\n      jump\t// in\n    tag_120:\n      dup1\n      iszero\n      tag_121\n      jumpi\n      dup1\n      0x1f\n      lt\n      tag_122\n      jumpi\n      0x0100\n      dup1\n      dup4\n      sload\n      div\n      mul\n      dup4\n      mstore\n      swap2\n      0x20\n      add\n      swap2\n      jump(tag_121)\n    tag_122:\n      dup3\n      add\n      swap2\n      swap1\n      0x00\n      mstore\n      keccak256(0x00, 0x20)\n      swap1\n    tag_123:\n      dup2\n      sload\n      dup2\n      mstore\n      swap1\n      0x01\n      add\n      swap1\n      0x20\n      add\n      dup1\n      dup4\n      gt\n      tag_123\n      jumpi\n      dup3\n      swap1\n      sub\n      0x1f\n      and\n      dup3\n      add\n      swap2\n    tag_121:\n      pop\n      pop\n      pop\n      pop\n      pop\n      dup2\n      mstore\n      0x20\n      add\n      0x02\n      dup3\n      add\n      dup1\n      sload\n      tag_124\n      swap1\n      tag_59\n      jump\t// in\n    tag_124:\n      dup1\n      0x1f\n      add\n      0x20\n      dup1\n      swap2\n      div\n      mul\n      0x20\n      add\n      mload(0x40)\n      swap1\n      dup2\n      add\n      0x40\n      mstore\n      dup1\n      swap3\n      swap2\n      swap1\n      dup2\n      dup2\n      mstore\n      0x20\n      add\n      dup3\n      dup1\n      sload\n      tag_125\n      swap1\n      tag_59\n      jump\t// in\n    tag_125:\n      dup1\n      iszero\n      tag_126\n      jumpi\n      dup1\n      0x1f\n      lt\n      tag_127\n      jumpi\n      0x0100\n      dup1\n      dup4\n      sload\n      div\n      mul\n      dup4\n      mstore\n      swap2\n      0x20\n      add\n      swap2\n      jump(tag_126)\n    tag_127:\n      dup3\n      add\n      swap2\n      swap1\n      0x00\n      mstore\n      keccak256(0x00, 0x20)\n      swap1\n    tag_128:\n      dup2\n      sload\n      dup2\n      mstore\n      swap1\n      0x01\n      add\n      swap1\n      0x20\n      add\n      dup1\n      dup4\n      gt\n      tag_128\n      jumpi\n      dup3\n      swap1\n      sub\n      0x1f\n      and\n      dup3\n      add\n      swap2\n    tag_126:\n      pop\n      pop\n      pop\n      pop\n      pop\n      dup2\n      mstore\n      0x20\n      add\n      0x03\n      dup3\n      add\n      dup1\n      sload\n      tag_129\n      swap1\n      tag_59\n      jump\t// in\n    tag_129:\n      dup1\n      0x1f\n      add\n      0x20\n      dup1\n      swap2\n      div\n      mul\n      0x20\n      add\n      mload(0x40)\n      swap1\n      dup2\n      add\n      0x40\n      mstore\n      dup1\n      swap3\n      swap2\n      swap1\n      dup2\n      dup2\n      mstore\n      0x20\n      add\n      dup3\n      dup1\n      sload\n      tag_130\n      swap1\n      tag_59\n      jump\t// in\n    tag_130:\n      dup1\n      iszero\n      tag_131\n      jumpi\n      dup1\n      0x1f\n      lt\n      tag_132\n      jumpi\n      0x0100\n      dup1\n      dup4\n      sload\n      div\n      mul\n      dup4\n      mstore\n      swap2\n      0x20\n      add\n      swap2\n      jump(tag_131)\n    tag_132:\n      dup3\n      add\n      swap2\n      swap1\n      0x00\n      mstore\n      keccak256(0x00, 0x20)\n      swap1\n    tag_133:\n      dup2\n      sload\n      dup2\n      mstore\n      swap1\n      0x01\n      add\n      swap1\n      0x20\n      add\n      dup1\n      dup4\n      gt\n      tag_133\n      jumpi\n      dup3\n      swap1\n      sub\n      0x1f\n      and\n      dup3\n      add\n      swap2\n    tag_131:\n      pop\n      pop\n      pop\n      pop\n      pop\n      dup2\n      mstore\n      0x20\n      add\n      0x04\n      dup3\n      add\n      sload\n      dup2\n      mstore\n      0x20\n      add\n      0x05\n      dup3\n      add\n      0x00\n      swap1\n      sload\n      swap1\n      0x0100\n      exp\n      swap1\n      div\n      0xff\n      and\n      iszero\n      iszero\n      iszero\n      iszero\n      dup2\n      mstore\n      pop\n      pop\n      swap1\n      pop\n        /* \"SmartReservation.sol\":1889:2024  function getBookingById(string memory bookingId) public view returns (Booking memory) {... */\n      swap2\n      swap1\n      pop\n      jump\t// out\n        /* \"SmartReservation.sol\":299:345  mapping(string => Booking) public bookingsById */\n    tag_40:\n      0x01\n      dup2\n      dup1\n      mload\n      0x20\n      dup2\n      add\n      dup3\n      add\n      dup1\n      mload\n      dup5\n      dup3\n      mstore\n      0x20\n      dup4\n      add\n      0x20\n      dup6\n      add\n      keccak256\n      dup2\n      dup4\n      mstore\n      dup1\n      swap6\n      pop\n      pop\n      pop\n      pop\n      pop\n      pop\n      0x00\n      swap2\n      pop\n      swap1\n      pop\n      dup1\n      0x00\n      add\n      0x00\n      swap1\n      sload\n      swap1\n      0x0100\n      exp\n      swap1\n      div\n      0xffffffffffffffffffffffffffffffffffffffff\n      and\n      swap1\n      dup1\n      0x01\n      add\n      dup1\n      sload\n      tag_134\n      swap1\n      tag_59\n      jump\t// in\n    tag_134:\n      dup1\n      0x1f\n      add\n      0x20\n      dup1\n      swap2\n      div\n      mul\n      0x20\n      add\n      mload(0x40)\n      swap1\n      dup2\n      add\n      0x40\n      mstore\n      dup1\n      swap3\n      swap2\n      swap1\n      dup2\n      dup2\n      mstore\n      0x20\n      add\n      dup3\n      dup1\n      sload\n      tag_135\n      swap1\n      tag_59\n      jump\t// in\n    tag_135:\n      dup1\n      iszero\n      tag_136\n      jumpi\n      dup1\n      0x1f\n      lt\n      tag_137\n      jumpi\n      0x0100\n      dup1\n      dup4\n      sload\n      div\n      mul\n      dup4\n      mstore\n      swap2\n      0x20\n      add\n      swap2\n      jump(tag_136)\n    tag_137:\n      dup3\n      add\n      swap2\n      swap1\n      0x00\n      mstore\n      keccak256(0x00, 0x20)\n      swap1\n    tag_138:\n      dup2\n      sload\n      dup2\n      mstore\n      swap1\n      0x01\n      add\n      swap1\n      0x20\n      add\n      dup1\n      dup4\n      gt\n      tag_138\n      jumpi\n      dup3\n      swap1\n      sub\n      0x1f\n      and\n      dup3\n      add\n      swap2\n    tag_136:\n      pop\n      pop\n      pop\n      pop\n      pop\n      swap1\n      dup1\n      0x02\n      add\n      dup1\n      sload\n      tag_139\n      swap1\n      tag_59\n      jump\t// in\n    tag_139:\n      dup1\n      0x1f\n      add\n      0x20\n      dup1\n      swap2\n      div\n      mul\n      0x20\n      add\n      mload(0x40)\n      swap1\n      dup2\n      add\n      0x40\n      mstore\n      dup1\n      swap3\n      swap2\n      swap1\n      dup2\n      dup2\n      mstore\n      0x20\n      add\n      dup3\n      dup1\n      sload\n      tag_140\n      swap1\n      tag_59\n      jump\t// in\n    tag_140:\n      dup1\n      iszero\n      tag_141\n      jumpi\n      dup1\n      0x1f\n      lt\n      tag_142\n      jumpi\n      0x0100\n      dup1\n      dup4\n      sload\n      div\n      mul\n      dup4\n      mstore\n      swap2\n      0x20\n      add\n      swap2\n      jump(tag_141)\n    tag_142:\n      dup3\n      add\n      swap2\n      swap1\n      0x00\n      mstore\n      keccak256(0x00, 0x20)\n      swap1\n    tag_143:\n      dup2\n      sload\n      dup2\n      mstore\n      swap1\n      0x01\n      add\n      swap1\n      0x20\n      add\n      dup1\n      dup4\n      gt\n      tag_143\n      jumpi\n      dup3\n      swap1\n      sub\n      0x1f\n      and\n      dup3\n      add\n      swap2\n    tag_141:\n      pop\n      pop\n      pop\n      pop\n      pop\n      swap1\n      dup1\n      0x03\n      add\n      dup1\n      sload\n      tag_144\n      swap1\n      tag_59\n      jump\t// in\n    tag_144:\n      dup1\n      0x1f\n      add\n      0x20\n      dup1\n      swap2\n      div\n      mul\n      0x20\n      add\n      mload(0x40)\n      swap1\n      dup2\n      add\n      0x40\n      mstore\n      dup1\n      swap3\n      swap2\n      swap1\n      dup2\n      dup2\n      mstore\n      0x20\n      add\n      dup3\n      dup1\n      sload\n      tag_145\n      swap1\n      tag_59\n      jump\t// in\n    tag_145:\n      dup1\n      iszero\n      tag_146\n      jumpi\n      dup1\n      0x1f\n      lt\n      tag_147\n      jumpi\n      0x0100\n      dup1\n      dup4\n      sload\n      div\n      mul\n      dup4\n      mstore\n      swap2\n      0x20\n      add\n      swap2\n      jump(tag_146)\n    tag_147:\n      dup3\n      add\n      swap2\n      swap1\n      0x00\n      mstore\n      keccak256(0x00, 0x20)\n      swap1\n    tag_148:\n      dup2\n      sload\n      dup2\n      mstore\n      swap1\n      0x01\n      add\n      swap1\n      0x20\n      add\n      dup1\n      dup4\n      gt\n      tag_148\n      jumpi\n      dup3\n      swap1\n      sub\n      0x1f\n      and\n      dup3\n      add\n      swap2\n    tag_146:\n      pop\n      pop\n      pop\n      pop\n      pop\n      swap1\n      dup1\n      0x04\n      add\n      sload\n      swap1\n      dup1\n      0x05\n      add\n      0x00\n      swap1\n      sload\n      swap1\n      0x0100\n      exp\n      swap1\n      div\n      0xff\n      and\n      swap1\n      pop\n      dup7\n      jump\t// out\n    tag_70:\n      mload(0x40)\n      dup1\n      0xc0\n      add\n      0x40\n      mstore\n      dup1\n      and(0xffffffffffffffffffffffffffffffffffffffff, 0x00)\n      dup2\n      mstore\n      0x20\n      add\n      0x60\n      dup2\n      mstore\n      0x20\n      add\n      0x60\n      dup2\n      mstore\n      0x20\n      add\n      0x60\n      dup2\n      mstore\n      0x20\n      add\n      0x00\n      dup2\n      mstore\n      0x20\n      add\n      iszero(iszero(0x00))\n      dup2\n      mstore\n      pop\n      swap1\n      jump\t// out\n        /* \"#utility.yul\":7:82   */\n    tag_149:\n        /* \"#utility.yul\":40:46   */\n      0x00\n        /* \"#utility.yul\":73:75   */\n      0x40\n        /* \"#utility.yul\":67:76   */\n      mload\n        /* \"#utility.yul\":57:76   */\n      swap1\n      pop\n        /* \"#utility.yul\":7:82   */\n      swap1\n      jump\t// out\n        /* \"#utility.yul\":88:205   */\n    tag_150:\n        /* \"#utility.yul\":197:198   */\n      0x00\n        /* \"#utility.yul\":194:195   */\n      0x00\n        /* \"#utility.yul\":187:199   */\n      revert\n        /* \"#utility.yul\":211:328   */\n    tag_151:\n        /* \"#utility.yul\":320:321   */\n      0x00\n        /* \"#utility.yul\":317:318   */\n      0x00\n        /* \"#utility.yul\":310:322   */\n      revert\n        /* \"#utility.yul\":334:451   */\n    tag_152:\n        /* \"#utility.yul\":443:444   */\n      0x00\n        /* \"#utility.yul\":440:441   */\n      0x00\n        /* \"#utility.yul\":433:445   */\n      revert\n        /* \"#utility.yul\":457:574   */\n    tag_153:\n        /* \"#utility.yul\":566:567   */\n      0x00\n        /* \"#utility.yul\":563:564   */\n      0x00\n        /* \"#utility.yul\":556:568   */\n      revert\n        /* \"#utility.yul\":580:682   */\n    tag_154:\n        /* \"#utility.yul\":621:627   */\n      0x00\n        /* \"#utility.yul\":672:674   */\n      0x1f\n        /* \"#utility.yul\":668:675   */\n      not\n        /* \"#utility.yul\":663:665   */\n      0x1f\n        /* \"#utility.yul\":656:661   */\n      dup4\n        /* \"#utility.yul\":652:666   */\n      add\n        /* \"#utility.yul\":648:676   */\n      and\n        /* \"#utility.yul\":638:676   */\n      swap1\n      pop\n        /* \"#utility.yul\":580:682   */\n      swap2\n      swap1\n      pop\n      jump\t// out\n        /* \"#utility.yul\":688:868   */\n    tag_66:\n        /* \"#utility.yul\":736:813   */\n      0x4e487b7100000000000000000000000000000000000000000000000000000000\n        /* \"#utility.yul\":733:734   */\n      0x00\n        /* \"#utility.yul\":726:814   */\n      mstore\n        /* \"#utility.yul\":833:837   */\n      0x41\n        /* \"#utility.yul\":830:831   */\n      0x04\n        /* \"#utility.yul\":823:838   */\n      mstore\n        /* \"#utility.yul\":857:861   */\n      0x24\n        /* \"#utility.yul\":854:855   */\n      0x00\n        /* \"#utility.yul\":847:862   */\n      revert\n        /* \"#utility.yul\":874:1155   */\n    tag_155:\n        /* \"#utility.yul\":957:984   */\n      tag_222\n        /* \"#utility.yul\":979:983   */\n      dup3\n        /* \"#utility.yul\":957:984   */\n      tag_154\n      jump\t// in\n    tag_222:\n        /* \"#utility.yul\":949:955   */\n      dup2\n        /* \"#utility.yul\":945:985   */\n      add\n        /* \"#utility.yul\":1087:1093   */\n      dup2\n        /* \"#utility.yul\":1075:1085   */\n      dup2\n        /* \"#utility.yul\":1072:1094   */\n      lt\n        /* \"#utility.yul\":1051:1069   */\n      0xffffffffffffffff\n        /* \"#utility.yul\":1039:1049   */\n      dup3\n        /* \"#utility.yul\":1036:1070   */\n      gt\n        /* \"#utility.yul\":1033:1095   */\n      or\n        /* \"#utility.yul\":1030:1118   */\n      iszero\n      tag_223\n      jumpi\n        /* \"#utility.yul\":1098:1116   */\n      tag_224\n      tag_66\n      jump\t// in\n    tag_224:\n        /* \"#utility.yul\":1030:1118   */\n    tag_223:\n        /* \"#utility.yul\":1138:1148   */\n      dup1\n        /* \"#utility.yul\":1134:1136   */\n      0x40\n        /* \"#utility.yul\":1127:1149   */\n      mstore\n        /* \"#utility.yul\":917:1155   */\n      pop\n        /* \"#utility.yul\":874:1155   */\n      pop\n      pop\n      jump\t// out\n        /* \"#utility.yul\":1161:1290   */\n    tag_156:\n        /* \"#utility.yul\":1195:1201   */\n      0x00\n        /* \"#utility.yul\":1222:1242   */\n      tag_226\n      tag_149\n      jump\t// in\n    tag_226:\n        /* \"#utility.yul\":1212:1242   */\n      swap1\n      pop\n        /* \"#utility.yul\":1251:1284   */\n      tag_227\n        /* \"#utility.yul\":1279:1283   */\n      dup3\n        /* \"#utility.yul\":1271:1277   */\n      dup3\n        /* \"#utility.yul\":1251:1284   */\n      tag_155\n      jump\t// in\n    tag_227:\n        /* \"#utility.yul\":1161:1290   */\n      swap2\n      swap1\n      pop\n      jump\t// out\n        /* \"#utility.yul\":1296:1604   */\n    tag_157:\n        /* \"#utility.yul\":1358:1362   */\n      0x00\n        /* \"#utility.yul\":1448:1466   */\n      0xffffffffffffffff\n        /* \"#utility.yul\":1440:1446   */\n      dup3\n        /* \"#utility.yul\":1437:1467   */\n      gt\n        /* \"#utility.yul\":1434:1490   */\n      iszero\n      tag_229\n      jumpi\n        /* \"#utility.yul\":1470:1488   */\n      tag_230\n      tag_66\n      jump\t// in\n    tag_230:\n        /* \"#utility.yul\":1434:1490   */\n    tag_229:\n        /* \"#utility.yul\":1508:1537   */\n      tag_231\n        /* \"#utility.yul\":1530:1536   */\n      dup3\n        /* \"#utility.yul\":1508:1537   */\n      tag_154\n      jump\t// in\n    tag_231:\n        /* \"#utility.yul\":1500:1537   */\n      swap1\n      pop\n        /* \"#utility.yul\":1592:1596   */\n      0x20\n        /* \"#utility.yul\":1586:1590   */\n      dup2\n        /* \"#utility.yul\":1582:1597   */\n      add\n        /* \"#utility.yul\":1574:1597   */\n      swap1\n      pop\n        /* \"#utility.yul\":1296:1604   */\n      swap2\n      swap1\n      pop\n      jump\t// out\n        /* \"#utility.yul\":1610:1758   */\n    tag_158:\n        /* \"#utility.yul\":1708:1714   */\n      dup3\n        /* \"#utility.yul\":1703:1706   */\n      dup2\n        /* \"#utility.yul\":1698:1701   */\n      dup4\n        /* \"#utility.yul\":1685:1715   */\n      calldatacopy\n        /* \"#utility.yul\":1749:1750   */\n      0x00\n        /* \"#utility.yul\":1740:1746   */\n      dup4\n        /* \"#utility.yul\":1735:1738   */\n      dup4\n        /* \"#utility.yul\":1731:1747   */\n      add\n        /* \"#utility.yul\":1724:1751   */\n      mstore\n        /* \"#utility.yul\":1610:1758   */\n      pop\n      pop\n      pop\n      jump\t// out\n        /* \"#utility.yul\":1764:2189   */\n    tag_159:\n        /* \"#utility.yul\":1842:1847   */\n      0x00\n        /* \"#utility.yul\":1867:1933   */\n      tag_234\n        /* \"#utility.yul\":1883:1932   */\n      tag_235\n        /* \"#utility.yul\":1925:1931   */\n      dup5\n        /* \"#utility.yul\":1883:1932   */\n      tag_157\n      jump\t// in\n    tag_235:\n        /* \"#utility.yul\":1867:1933   */\n      tag_156\n      jump\t// in\n    tag_234:\n        /* \"#utility.yul\":1858:1933   */\n      swap1\n      pop\n        /* \"#utility.yul\":1956:1962   */\n      dup3\n        /* \"#utility.yul\":1949:1954   */\n      dup2\n        /* \"#utility.yul\":1942:1963   */\n      mstore\n        /* \"#utility.yul\":1994:1998   */\n      0x20\n        /* \"#utility.yul\":1987:1992   */\n      dup2\n        /* \"#utility.yul\":1983:1999   */\n      add\n        /* \"#utility.yul\":2032:2035   */\n      dup5\n        /* \"#utility.yul\":2023:2029   */\n      dup5\n        /* \"#utility.yul\":2018:2021   */\n      dup5\n        /* \"#utility.yul\":2014:2030   */\n      add\n        /* \"#utility.yul\":2011:2036   */\n      gt\n        /* \"#utility.yul\":2008:2120   */\n      iszero\n      tag_236\n      jumpi\n        /* \"#utility.yul\":2039:2118   */\n      tag_237\n      tag_153\n      jump\t// in\n    tag_237:\n        /* \"#utility.yul\":2008:2120   */\n    tag_236:\n        /* \"#utility.yul\":2129:2183   */\n      tag_238\n        /* \"#utility.yul\":2176:2182   */\n      dup5\n        /* \"#utility.yul\":2171:2174   */\n      dup3\n        /* \"#utility.yul\":2166:2169   */\n      dup6\n        /* \"#utility.yul\":2129:2183   */\n      tag_158\n      jump\t// in\n    tag_238:\n        /* \"#utility.yul\":1848:2189   */\n      pop\n        /* \"#utility.yul\":1764:2189   */\n      swap4\n      swap3\n      pop\n      pop\n      pop\n      jump\t// out\n        /* \"#utility.yul\":2209:2549   */\n    tag_160:\n        /* \"#utility.yul\":2265:2270   */\n      0x00\n        /* \"#utility.yul\":2314:2317   */\n      dup3\n        /* \"#utility.yul\":2307:2311   */\n      0x1f\n        /* \"#utility.yul\":2299:2305   */\n      dup4\n        /* \"#utility.yul\":2295:2312   */\n      add\n        /* \"#utility.yul\":2291:2318   */\n      slt\n        /* \"#utility.yul\":2281:2403   */\n      tag_240\n      jumpi\n        /* \"#utility.yul\":2322:2401   */\n      tag_241\n      tag_152\n      jump\t// in\n    tag_241:\n        /* \"#utility.yul\":2281:2403   */\n    tag_240:\n        /* \"#utility.yul\":2439:2445   */\n      dup2\n        /* \"#utility.yul\":2426:2446   */\n      calldataload\n        /* \"#utility.yul\":2464:2543   */\n      tag_242\n        /* \"#utility.yul\":2539:2542   */\n      dup5\n        /* \"#utility.yul\":2531:2537   */\n      dup3\n        /* \"#utility.yul\":2524:2528   */\n      0x20\n        /* \"#utility.yul\":2516:2522   */\n      dup7\n        /* \"#utility.yul\":2512:2529   */\n      add\n        /* \"#utility.yul\":2464:2543   */\n      tag_159\n      jump\t// in\n    tag_242:\n        /* \"#utility.yul\":2455:2543   */\n      swap2\n      pop\n        /* \"#utility.yul\":2271:2549   */\n      pop\n        /* \"#utility.yul\":2209:2549   */\n      swap3\n      swap2\n      pop\n      pop\n      jump\t// out\n        /* \"#utility.yul\":2555:3064   */\n    tag_13:\n        /* \"#utility.yul\":2624:2630   */\n      0x00\n        /* \"#utility.yul\":2673:2675   */\n      0x20\n        /* \"#utility.yul\":2661:2670   */\n      dup3\n        /* \"#utility.yul\":2652:2659   */\n      dup5\n        /* \"#utility.yul\":2648:2671   */\n      sub\n        /* \"#utility.yul\":2644:2676   */\n      slt\n        /* \"#utility.yul\":2641:2760   */\n      iszero\n      tag_244\n      jumpi\n        /* \"#utility.yul\":2679:2758   */\n      tag_245\n      tag_150\n      jump\t// in\n    tag_245:\n        /* \"#utility.yul\":2641:2760   */\n    tag_244:\n        /* \"#utility.yul\":2827:2828   */\n      0x00\n        /* \"#utility.yul\":2816:2825   */\n      dup3\n        /* \"#utility.yul\":2812:2829   */\n      add\n        /* \"#utility.yul\":2799:2830   */\n      calldataload\n        /* \"#utility.yul\":2857:2875   */\n      0xffffffffffffffff\n        /* \"#utility.yul\":2849:2855   */\n      dup2\n        /* \"#utility.yul\":2846:2876   */\n      gt\n        /* \"#utility.yul\":2843:2960   */\n      iszero\n      tag_246\n      jumpi\n        /* \"#utility.yul\":2879:2958   */\n      tag_247\n      tag_151\n      jump\t// in\n    tag_247:\n        /* \"#utility.yul\":2843:2960   */\n    tag_246:\n        /* \"#utility.yul\":2984:3047   */\n      tag_248\n        /* \"#utility.yul\":3039:3046   */\n      dup5\n        /* \"#utility.yul\":3030:3036   */\n      dup3\n        /* \"#utility.yul\":3019:3028   */\n      dup6\n        /* \"#utility.yul\":3015:3037   */\n      add\n        /* \"#utility.yul\":2984:3047   */\n      tag_160\n      jump\t// in\n    tag_248:\n        /* \"#utility.yul\":2974:3047   */\n      swap2\n      pop\n        /* \"#utility.yul\":2770:3057   */\n      pop\n        /* \"#utility.yul\":2555:3064   */\n      swap3\n      swap2\n      pop\n      pop\n      jump\t// out\n        /* \"#utility.yul\":3070:3207   */\n    tag_161:\n        /* \"#utility.yul\":3160:3166   */\n      0x00\n        /* \"#utility.yul\":3194:3199   */\n      dup2\n        /* \"#utility.yul\":3188:3200   */\n      mload\n        /* \"#utility.yul\":3178:3200   */\n      swap1\n      pop\n        /* \"#utility.yul\":3070:3207   */\n      swap2\n      swap1\n      pop\n      jump\t// out\n        /* \"#utility.yul\":3213:3420   */\n    tag_162:\n        /* \"#utility.yul\":3335:3346   */\n      0x00\n        /* \"#utility.yul\":3369:3375   */\n      dup3\n        /* \"#utility.yul\":3364:3367   */\n      dup3\n        /* \"#utility.yul\":3357:3376   */\n      mstore\n        /* \"#utility.yul\":3409:3413   */\n      0x20\n        /* \"#utility.yul\":3404:3407   */\n      dup3\n        /* \"#utility.yul\":3400:3414   */\n      add\n        /* \"#utility.yul\":3385:3414   */\n      swap1\n      pop\n        /* \"#utility.yul\":3213:3420   */\n      swap3\n      swap2\n      pop\n      pop\n      jump\t// out\n        /* \"#utility.yul\":3426:3581   */\n    tag_163:\n        /* \"#utility.yul\":3516:3520   */\n      0x00\n        /* \"#utility.yul\":3539:3542   */\n      dup2\n        /* \"#utility.yul\":3531:3542   */\n      swap1\n      pop\n        /* \"#utility.yul\":3569:3573   */\n      0x20\n        /* \"#utility.yul\":3564:3567   */\n      dup3\n        /* \"#utility.yul\":3560:3574   */\n      add\n        /* \"#utility.yul\":3552:3574   */\n      swap1\n      pop\n        /* \"#utility.yul\":3426:3581   */\n      swap2\n      swap1\n      pop\n      jump\t// out\n        /* \"#utility.yul\":3587:3713   */\n    tag_164:\n        /* \"#utility.yul\":3624:3631   */\n      0x00\n        /* \"#utility.yul\":3664:3706   */\n      0xffffffffffffffffffffffffffffffffffffffff\n        /* \"#utility.yul\":3657:3662   */\n      dup3\n        /* \"#utility.yul\":3653:3707   */\n      and\n        /* \"#utility.yul\":3642:3707   */\n      swap1\n      pop\n        /* \"#utility.yul\":3587:3713   */\n      swap2\n      swap1\n      pop\n      jump\t// out\n        /* \"#utility.yul\":3719:3815   */\n    tag_165:\n        /* \"#utility.yul\":3756:3763   */\n      0x00\n        /* \"#utility.yul\":3785:3809   */\n      tag_254\n        /* \"#utility.yul\":3803:3808   */\n      dup3\n        /* \"#utility.yul\":3785:3809   */\n      tag_164\n      jump\t// in\n    tag_254:\n        /* \"#utility.yul\":3774:3809   */\n      swap1\n      pop\n        /* \"#utility.yul\":3719:3815   */\n      swap2\n      swap1\n      pop\n      jump\t// out\n        /* \"#utility.yul\":3821:3929   */\n    tag_166:\n        /* \"#utility.yul\":3898:3922   */\n      tag_256\n        /* \"#utility.yul\":3916:3921   */\n      dup2\n        /* \"#utility.yul\":3898:3922   */\n      tag_165\n      jump\t// in\n    tag_256:\n        /* \"#utility.yul\":3893:3896   */\n      dup3\n        /* \"#utility.yul\":3886:3923   */\n      mstore\n        /* \"#utility.yul\":3821:3929   */\n      pop\n      pop\n      jump\t// out\n        /* \"#utility.yul\":3935:4034   */\n    tag_167:\n        /* \"#utility.yul\":3987:3993   */\n      0x00\n        /* \"#utility.yul\":4021:4026   */\n      dup2\n        /* \"#utility.yul\":4015:4027   */\n      mload\n        /* \"#utility.yul\":4005:4027   */\n      swap1\n      pop\n        /* \"#utility.yul\":3935:4034   */\n      swap2\n      swap1\n      pop\n      jump\t// out\n        /* \"#utility.yul\":4040:4199   */\n    tag_168:\n        /* \"#utility.yul\":4114:4125   */\n      0x00\n        /* \"#utility.yul\":4148:4154   */\n      dup3\n        /* \"#utility.yul\":4143:4146   */\n      dup3\n        /* \"#utility.yul\":4136:4155   */\n      mstore\n        /* \"#utility.yul\":4188:4192   */\n      0x20\n        /* \"#utility.yul\":4183:4186   */\n      dup3\n        /* \"#utility.yul\":4179:4193   */\n      add\n        /* \"#utility.yul\":4164:4193   */\n      swap1\n      pop\n        /* \"#utility.yul\":4040:4199   */\n      swap3\n      swap2\n      pop\n      pop\n      jump\t// out\n        /* \"#utility.yul\":4205:4344   */\n    tag_169:\n        /* \"#utility.yul\":4294:4300   */\n      dup3\n        /* \"#utility.yul\":4289:4292   */\n      dup2\n        /* \"#utility.yul\":4284:4287   */\n      dup4\n        /* \"#utility.yul\":4278:4301   */\n      mcopy\n        /* \"#utility.yul\":4335:4336   */\n      0x00\n        /* \"#utility.yul\":4326:4332   */\n      dup4\n        /* \"#utility.yul\":4321:4324   */\n      dup4\n        /* \"#utility.yul\":4317:4333   */\n      add\n        /* \"#utility.yul\":4310:4337   */\n      mstore\n        /* \"#utility.yul\":4205:4344   */\n      pop\n      pop\n      pop\n      jump\t// out\n        /* \"#utility.yul\":4350:4707   */\n    tag_170:\n        /* \"#utility.yul\":4428:4431   */\n      0x00\n        /* \"#utility.yul\":4456:4495   */\n      tag_261\n        /* \"#utility.yul\":4489:4494   */\n      dup3\n        /* \"#utility.yul\":4456:4495   */\n      tag_167\n      jump\t// in\n    tag_261:\n        /* \"#utility.yul\":4511:4572   */\n      tag_262\n        /* \"#utility.yul\":4565:4571   */\n      dup2\n        /* \"#utility.yul\":4560:4563   */\n      dup6\n        /* \"#utility.yul\":4511:4572   */\n      tag_168\n      jump\t// in\n    tag_262:\n        /* \"#utility.yul\":4504:4572   */\n      swap4\n      pop\n        /* \"#utility.yul\":4581:4646   */\n      tag_263\n        /* \"#utility.yul\":4639:4645   */\n      dup2\n        /* \"#utility.yul\":4634:4637   */\n      dup6\n        /* \"#utility.yul\":4627:4631   */\n      0x20\n        /* \"#utility.yul\":4620:4625   */\n      dup7\n        /* \"#utility.yul\":4616:4632   */\n      add\n        /* \"#utility.yul\":4581:4646   */\n      tag_169\n      jump\t// in\n    tag_263:\n        /* \"#utility.yul\":4671:4700   */\n      tag_264\n        /* \"#utility.yul\":4693:4699   */\n      dup2\n        /* \"#utility.yul\":4671:4700   */\n      tag_154\n      jump\t// in\n    tag_264:\n        /* \"#utility.yul\":4666:4669   */\n      dup5\n        /* \"#utility.yul\":4662:4701   */\n      add\n        /* \"#utility.yul\":4655:4701   */\n      swap2\n      pop\n        /* \"#utility.yul\":4432:4707   */\n      pop\n        /* \"#utility.yul\":4350:4707   */\n      swap3\n      swap2\n      pop\n      pop\n      jump\t// out\n        /* \"#utility.yul\":4713:4790   */\n    tag_171:\n        /* \"#utility.yul\":4750:4757   */\n      0x00\n        /* \"#utility.yul\":4779:4784   */\n      dup2\n        /* \"#utility.yul\":4768:4784   */\n      swap1\n      pop\n        /* \"#utility.yul\":4713:4790   */\n      swap2\n      swap1\n      pop\n      jump\t// out\n        /* \"#utility.yul\":4796:4904   */\n    tag_172:\n        /* \"#utility.yul\":4873:4897   */\n      tag_267\n        /* \"#utility.yul\":4891:4896   */\n      dup2\n        /* \"#utility.yul\":4873:4897   */\n      tag_171\n      jump\t// in\n    tag_267:\n        /* \"#utility.yul\":4868:4871   */\n      dup3\n        /* \"#utility.yul\":4861:4898   */\n      mstore\n        /* \"#utility.yul\":4796:4904   */\n      pop\n      pop\n      jump\t// out\n        /* \"#utility.yul\":4910:5000   */\n    tag_173:\n        /* \"#utility.yul\":4944:4951   */\n      0x00\n        /* \"#utility.yul\":4987:4992   */\n      dup2\n        /* \"#utility.yul\":4980:4993   */\n      iszero\n        /* \"#utility.yul\":4973:4994   */\n      iszero\n        /* \"#utility.yul\":4962:4994   */\n      swap1\n      pop\n        /* \"#utility.yul\":4910:5000   */\n      swap2\n      swap1\n      pop\n      jump\t// out\n        /* \"#utility.yul\":5006:5105   */\n    tag_174:\n        /* \"#utility.yul\":5077:5098   */\n      tag_270\n        /* \"#utility.yul\":5092:5097   */\n      dup2\n        /* \"#utility.yul\":5077:5098   */\n      tag_173\n      jump\t// in\n    tag_270:\n        /* \"#utility.yul\":5072:5075   */\n      dup3\n        /* \"#utility.yul\":5065:5099   */\n      mstore\n        /* \"#utility.yul\":5006:5105   */\n      pop\n      pop\n      jump\t// out\n        /* \"#utility.yul\":5185:6622   */\n    tag_175:\n        /* \"#utility.yul\":5290:5293   */\n      0x00\n        /* \"#utility.yul\":5326:5330   */\n      0xc0\n        /* \"#utility.yul\":5321:5324   */\n      dup4\n        /* \"#utility.yul\":5317:5331   */\n      add\n        /* \"#utility.yul\":5413:5417   */\n      0x00\n        /* \"#utility.yul\":5406:5411   */\n      dup4\n        /* \"#utility.yul\":5402:5418   */\n      add\n        /* \"#utility.yul\":5396:5419   */\n      mload\n        /* \"#utility.yul\":5432:5495   */\n      tag_272\n        /* \"#utility.yul\":5489:5493   */\n      0x00\n        /* \"#utility.yul\":5484:5487   */\n      dup7\n        /* \"#utility.yul\":5480:5494   */\n      add\n        /* \"#utility.yul\":5466:5478   */\n      dup3\n        /* \"#utility.yul\":5432:5495   */\n      tag_166\n      jump\t// in\n    tag_272:\n        /* \"#utility.yul\":5341:5505   */\n      pop\n        /* \"#utility.yul\":5587:5591   */\n      0x20\n        /* \"#utility.yul\":5580:5585   */\n      dup4\n        /* \"#utility.yul\":5576:5592   */\n      add\n        /* \"#utility.yul\":5570:5593   */\n      mload\n        /* \"#utility.yul\":5640:5643   */\n      dup5\n        /* \"#utility.yul\":5634:5638   */\n      dup3\n        /* \"#utility.yul\":5630:5644   */\n      sub\n        /* \"#utility.yul\":5623:5627   */\n      0x20\n        /* \"#utility.yul\":5618:5621   */\n      dup7\n        /* \"#utility.yul\":5614:5628   */\n      add\n        /* \"#utility.yul\":5607:5645   */\n      mstore\n        /* \"#utility.yul\":5666:5739   */\n      tag_273\n        /* \"#utility.yul\":5734:5738   */\n      dup3\n        /* \"#utility.yul\":5720:5732   */\n      dup3\n        /* \"#utility.yul\":5666:5739   */\n      tag_170\n      jump\t// in\n    tag_273:\n        /* \"#utility.yul\":5658:5739   */\n      swap2\n      pop\n        /* \"#utility.yul\":5515:5750   */\n      pop\n        /* \"#utility.yul\":5835:5839   */\n      0x40\n        /* \"#utility.yul\":5828:5833   */\n      dup4\n        /* \"#utility.yul\":5824:5840   */\n      add\n        /* \"#utility.yul\":5818:5841   */\n      mload\n        /* \"#utility.yul\":5888:5891   */\n      dup5\n        /* \"#utility.yul\":5882:5886   */\n      dup3\n        /* \"#utility.yul\":5878:5892   */\n      sub\n        /* \"#utility.yul\":5871:5875   */\n      0x40\n        /* \"#utility.yul\":5866:5869   */\n      dup7\n        /* \"#utility.yul\":5862:5876   */\n      add\n        /* \"#utility.yul\":5855:5893   */\n      mstore\n        /* \"#utility.yul\":5914:5987   */\n      tag_274\n        /* \"#utility.yul\":5982:5986   */\n      dup3\n        /* \"#utility.yul\":5968:5980   */\n      dup3\n        /* \"#utility.yul\":5914:5987   */\n      tag_170\n      jump\t// in\n    tag_274:\n        /* \"#utility.yul\":5906:5987   */\n      swap2\n      pop\n        /* \"#utility.yul\":5760:5998   */\n      pop\n        /* \"#utility.yul\":6081:6085   */\n      0x60\n        /* \"#utility.yul\":6074:6079   */\n      dup4\n        /* \"#utility.yul\":6070:6086   */\n      add\n        /* \"#utility.yul\":6064:6087   */\n      mload\n        /* \"#utility.yul\":6134:6137   */\n      dup5\n        /* \"#utility.yul\":6128:6132   */\n      dup3\n        /* \"#utility.yul\":6124:6138   */\n      sub\n        /* \"#utility.yul\":6117:6121   */\n      0x60\n        /* \"#utility.yul\":6112:6115   */\n      dup7\n        /* \"#utility.yul\":6108:6122   */\n      add\n        /* \"#utility.yul\":6101:6139   */\n      mstore\n        /* \"#utility.yul\":6160:6233   */\n      tag_275\n        /* \"#utility.yul\":6228:6232   */\n      dup3\n        /* \"#utility.yul\":6214:6226   */\n      dup3\n        /* \"#utility.yul\":6160:6233   */\n      tag_170\n      jump\t// in\n    tag_275:\n        /* \"#utility.yul\":6152:6233   */\n      swap2\n      pop\n        /* \"#utility.yul\":6008:6244   */\n      pop\n        /* \"#utility.yul\":6331:6335   */\n      0x80\n        /* \"#utility.yul\":6324:6329   */\n      dup4\n        /* \"#utility.yul\":6320:6336   */\n      add\n        /* \"#utility.yul\":6314:6337   */\n      mload\n        /* \"#utility.yul\":6350:6413   */\n      tag_276\n        /* \"#utility.yul\":6407:6411   */\n      0x80\n        /* \"#utility.yul\":6402:6405   */\n      dup7\n        /* \"#utility.yul\":6398:6412   */\n      add\n        /* \"#utility.yul\":6384:6396   */\n      dup3\n        /* \"#utility.yul\":6350:6413   */\n      tag_172\n      jump\t// in\n    tag_276:\n        /* \"#utility.yul\":6254:6423   */\n      pop\n        /* \"#utility.yul\":6509:6513   */\n      0xa0\n        /* \"#utility.yul\":6502:6507   */\n      dup4\n        /* \"#utility.yul\":6498:6514   */\n      add\n        /* \"#utility.yul\":6492:6515   */\n      mload\n        /* \"#utility.yul\":6528:6585   */\n      tag_277\n        /* \"#utility.yul\":6579:6583   */\n      0xa0\n        /* \"#utility.yul\":6574:6577   */\n      dup7\n        /* \"#utility.yul\":6570:6584   */\n      add\n        /* \"#utility.yul\":6556:6568   */\n      dup3\n        /* \"#utility.yul\":6528:6585   */\n      tag_174\n      jump\t// in\n    tag_277:\n        /* \"#utility.yul\":6433:6595   */\n      pop\n        /* \"#utility.yul\":6612:6616   */\n      dup1\n        /* \"#utility.yul\":6605:6616   */\n      swap2\n      pop\n        /* \"#utility.yul\":5295:6622   */\n      pop\n        /* \"#utility.yul\":5185:6622   */\n      swap3\n      swap2\n      pop\n      pop\n      jump\t// out\n        /* \"#utility.yul\":6628:6876   */\n    tag_176:\n        /* \"#utility.yul\":6743:6753   */\n      0x00\n        /* \"#utility.yul\":6778:6870   */\n      tag_279\n        /* \"#utility.yul\":6866:6869   */\n      dup4\n        /* \"#utility.yul\":6858:6864   */\n      dup4\n        /* \"#utility.yul\":6778:6870   */\n      tag_175\n      jump\t// in\n    tag_279:\n        /* \"#utility.yul\":6764:6870   */\n      swap1\n      pop\n        /* \"#utility.yul\":6628:6876   */\n      swap3\n      swap2\n      pop\n      pop\n      jump\t// out\n        /* \"#utility.yul\":6882:7018   */\n    tag_177:\n        /* \"#utility.yul\":6975:6979   */\n      0x00\n        /* \"#utility.yul\":7007:7011   */\n      0x20\n        /* \"#utility.yul\":7002:7005   */\n      dup3\n        /* \"#utility.yul\":6998:7012   */\n      add\n        /* \"#utility.yul\":6990:7012   */\n      swap1\n      pop\n        /* \"#utility.yul\":6882:7018   */\n      swap2\n      swap1\n      pop\n      jump\t// out\n        /* \"#utility.yul\":7102:8197   */\n    tag_178:\n        /* \"#utility.yul\":7267:7270   */\n      0x00\n        /* \"#utility.yul\":7296:7373   */\n      tag_282\n        /* \"#utility.yul\":7367:7372   */\n      dup3\n        /* \"#utility.yul\":7296:7373   */\n      tag_161\n      jump\t// in\n    tag_282:\n        /* \"#utility.yul\":7389:7498   */\n      tag_283\n        /* \"#utility.yul\":7491:7497   */\n      dup2\n        /* \"#utility.yul\":7486:7489   */\n      dup6\n        /* \"#utility.yul\":7389:7498   */\n      tag_162\n      jump\t// in\n    tag_283:\n        /* \"#utility.yul\":7382:7498   */\n      swap4\n      pop\n        /* \"#utility.yul\":7524:7527   */\n      dup4\n        /* \"#utility.yul\":7569:7573   */\n      0x20\n        /* \"#utility.yul\":7561:7567   */\n      dup3\n        /* \"#utility.yul\":7557:7574   */\n      mul\n        /* \"#utility.yul\":7552:7555   */\n      dup6\n        /* \"#utility.yul\":7548:7575   */\n      add\n        /* \"#utility.yul\":7599:7678   */\n      tag_284\n        /* \"#utility.yul\":7672:7677   */\n      dup6\n        /* \"#utility.yul\":7599:7678   */\n      tag_163\n      jump\t// in\n    tag_284:\n        /* \"#utility.yul\":7701:7708   */\n      dup1\n        /* \"#utility.yul\":7732:7733   */\n      0x00\n        /* \"#utility.yul\":7717:8152   */\n    tag_285:\n        /* \"#utility.yul\":7742:7748   */\n      dup6\n        /* \"#utility.yul\":7739:7740   */\n      dup2\n        /* \"#utility.yul\":7736:7749   */\n      lt\n        /* \"#utility.yul\":7717:8152   */\n      iszero\n      tag_287\n      jumpi\n        /* \"#utility.yul\":7813:7822   */\n      dup5\n        /* \"#utility.yul\":7807:7811   */\n      dup5\n        /* \"#utility.yul\":7803:7823   */\n      sub\n        /* \"#utility.yul\":7798:7801   */\n      dup10\n        /* \"#utility.yul\":7791:7824   */\n      mstore\n        /* \"#utility.yul\":7864:7870   */\n      dup2\n        /* \"#utility.yul\":7858:7871   */\n      mload\n        /* \"#utility.yul\":7892:8002   */\n      tag_288\n        /* \"#utility.yul\":7997:8001   */\n      dup6\n        /* \"#utility.yul\":7982:7995   */\n      dup3\n        /* \"#utility.yul\":7892:8002   */\n      tag_176\n      jump\t// in\n    tag_288:\n        /* \"#utility.yul\":7884:8002   */\n      swap5\n      pop\n        /* \"#utility.yul\":8025:8108   */\n      tag_289\n        /* \"#utility.yul\":8101:8107   */\n      dup4\n        /* \"#utility.yul\":8025:8108   */\n      tag_177\n      jump\t// in\n    tag_289:\n        /* \"#utility.yul\":8015:8108   */\n      swap3\n      pop\n        /* \"#utility.yul\":8137:8141   */\n      0x20\n        /* \"#utility.yul\":8132:8135   */\n      dup11\n        /* \"#utility.yul\":8128:8142   */\n      add\n        /* \"#utility.yul\":8121:8142   */\n      swap10\n      pop\n        /* \"#utility.yul\":7777:8152   */\n      pop\n        /* \"#utility.yul\":7764:7765   */\n      0x01\n        /* \"#utility.yul\":7761:7762   */\n      dup2\n        /* \"#utility.yul\":7757:7766   */\n      add\n        /* \"#utility.yul\":7752:7766   */\n      swap1\n      pop\n        /* \"#utility.yul\":7717:8152   */\n      jump(tag_285)\n    tag_287:\n        /* \"#utility.yul\":7721:7735   */\n      pop\n        /* \"#utility.yul\":8168:8172   */\n      dup3\n        /* \"#utility.yul\":8161:8172   */\n      swap8\n      pop\n        /* \"#utility.yul\":8188:8191   */\n      dup8\n        /* \"#utility.yul\":8181:8191   */\n      swap6\n      pop\n        /* \"#utility.yul\":7272:8197   */\n      pop\n      pop\n      pop\n      pop\n      pop\n        /* \"#utility.yul\":7102:8197   */\n      swap3\n      swap2\n      pop\n      pop\n      jump\t// out\n        /* \"#utility.yul\":8203:8668   */\n    tag_18:\n        /* \"#utility.yul\":8392:8396   */\n      0x00\n        /* \"#utility.yul\":8430:8432   */\n      0x20\n        /* \"#utility.yul\":8419:8428   */\n      dup3\n        /* \"#utility.yul\":8415:8433   */\n      add\n        /* \"#utility.yul\":8407:8433   */\n      swap1\n      pop\n        /* \"#utility.yul\":8479:8488   */\n      dup2\n        /* \"#utility.yul\":8473:8477   */\n      dup2\n        /* \"#utility.yul\":8469:8489   */\n      sub\n        /* \"#utility.yul\":8465:8466   */\n      0x00\n        /* \"#utility.yul\":8454:8463   */\n      dup4\n        /* \"#utility.yul\":8450:8467   */\n      add\n        /* \"#utility.yul\":8443:8490   */\n      mstore\n        /* \"#utility.yul\":8507:8661   */\n      tag_291\n        /* \"#utility.yul\":8656:8660   */\n      dup2\n        /* \"#utility.yul\":8647:8653   */\n      dup5\n        /* \"#utility.yul\":8507:8661   */\n      tag_178\n      jump\t// in\n    tag_291:\n        /* \"#utility.yul\":8499:8661   */\n      swap1\n      pop\n        /* \"#utility.yul\":8203:8668   */\n      swap3\n      swap2\n      pop\n      pop\n      jump\t// out\n        /* \"#utility.yul\":8674:8796   */\n    tag_179:\n        /* \"#utility.yul\":8747:8771   */\n      tag_293\n        /* \"#utility.yul\":8765:8770   */\n      dup2\n        /* \"#utility.yul\":8747:8771   */\n      tag_165\n      jump\t// in\n    tag_293:\n        /* \"#utility.yul\":8740:8745   */\n      dup2\n        /* \"#utility.yul\":8737:8772   */\n      eq\n        /* \"#utility.yul\":8727:8790   */\n      tag_294\n      jumpi\n        /* \"#utility.yul\":8786:8787   */\n      0x00\n        /* \"#utility.yul\":8783:8784   */\n      0x00\n        /* \"#utility.yul\":8776:8788   */\n      revert\n        /* \"#utility.yul\":8727:8790   */\n    tag_294:\n        /* \"#utility.yul\":8674:8796   */\n      pop\n      jump\t// out\n        /* \"#utility.yul\":8802:8941   */\n    tag_180:\n        /* \"#utility.yul\":8848:8853   */\n      0x00\n        /* \"#utility.yul\":8886:8892   */\n      dup2\n        /* \"#utility.yul\":8873:8893   */\n      calldataload\n        /* \"#utility.yul\":8864:8893   */\n      swap1\n      pop\n        /* \"#utility.yul\":8902:8935   */\n      tag_296\n        /* \"#utility.yul\":8929:8934   */\n      dup2\n        /* \"#utility.yul\":8902:8935   */\n      tag_179\n      jump\t// in\n    tag_296:\n        /* \"#utility.yul\":8802:8941   */\n      swap3\n      swap2\n      pop\n      pop\n      jump\t// out\n        /* \"#utility.yul\":8947:9069   */\n    tag_181:\n        /* \"#utility.yul\":9020:9044   */\n      tag_298\n        /* \"#utility.yul\":9038:9043   */\n      dup2\n        /* \"#utility.yul\":9020:9044   */\n      tag_171\n      jump\t// in\n    tag_298:\n        /* \"#utility.yul\":9013:9018   */\n      dup2\n        /* \"#utility.yul\":9010:9045   */\n      eq\n        /* \"#utility.yul\":9000:9063   */\n      tag_299\n      jumpi\n        /* \"#utility.yul\":9059:9060   */\n      0x00\n        /* \"#utility.yul\":9056:9057   */\n      0x00\n        /* \"#utility.yul\":9049:9061   */\n      revert\n        /* \"#utility.yul\":9000:9063   */\n    tag_299:\n        /* \"#utility.yul\":8947:9069   */\n      pop\n      jump\t// out\n        /* \"#utility.yul\":9075:9214   */\n    tag_182:\n        /* \"#utility.yul\":9121:9126   */\n      0x00\n        /* \"#utility.yul\":9159:9165   */\n      dup2\n        /* \"#utility.yul\":9146:9166   */\n      calldataload\n        /* \"#utility.yul\":9137:9166   */\n      swap1\n      pop\n        /* \"#utility.yul\":9175:9208   */\n      tag_301\n        /* \"#utility.yul\":9202:9207   */\n      dup2\n        /* \"#utility.yul\":9175:9208   */\n      tag_181\n      jump\t// in\n    tag_301:\n        /* \"#utility.yul\":9075:9214   */\n      swap3\n      swap2\n      pop\n      pop\n      jump\t// out\n        /* \"#utility.yul\":9220:9694   */\n    tag_21:\n        /* \"#utility.yul\":9288:9294   */\n      0x00\n        /* \"#utility.yul\":9296:9302   */\n      0x00\n        /* \"#utility.yul\":9345:9347   */\n      0x40\n        /* \"#utility.yul\":9333:9342   */\n      dup4\n        /* \"#utility.yul\":9324:9331   */\n      dup6\n        /* \"#utility.yul\":9320:9343   */\n      sub\n        /* \"#utility.yul\":9316:9348   */\n      slt\n        /* \"#utility.yul\":9313:9432   */\n      iszero\n      tag_303\n      jumpi\n        /* \"#utility.yul\":9351:9430   */\n      tag_304\n      tag_150\n      jump\t// in\n    tag_304:\n        /* \"#utility.yul\":9313:9432   */\n    tag_303:\n        /* \"#utility.yul\":9471:9472   */\n      0x00\n        /* \"#utility.yul\":9496:9549   */\n      tag_305\n        /* \"#utility.yul\":9541:9548   */\n      dup6\n        /* \"#utility.yul\":9532:9538   */\n      dup3\n        /* \"#utility.yul\":9521:9530   */\n      dup7\n        /* \"#utility.yul\":9517:9539   */\n      add\n        /* \"#utility.yul\":9496:9549   */\n      tag_180\n      jump\t// in\n    tag_305:\n        /* \"#utility.yul\":9486:9549   */\n      swap3\n      pop\n        /* \"#utility.yul\":9442:9559   */\n      pop\n        /* \"#utility.yul\":9598:9600   */\n      0x20\n        /* \"#utility.yul\":9624:9677   */\n      tag_306\n        /* \"#utility.yul\":9669:9676   */\n      dup6\n        /* \"#utility.yul\":9660:9666   */\n      dup3\n        /* \"#utility.yul\":9649:9658   */\n      dup7\n        /* \"#utility.yul\":9645:9667   */\n      add\n        /* \"#utility.yul\":9624:9677   */\n      tag_182\n      jump\t// in\n    tag_306:\n        /* \"#utility.yul\":9614:9677   */\n      swap2\n      pop\n        /* \"#utility.yul\":9569:9687   */\n      pop\n        /* \"#utility.yul\":9220:9694   */\n      swap3\n      pop\n      swap3\n      swap1\n      pop\n      jump\t// out\n        /* \"#utility.yul\":9700:9869   */\n    tag_183:\n        /* \"#utility.yul\":9784:9795   */\n      0x00\n        /* \"#utility.yul\":9818:9824   */\n      dup3\n        /* \"#utility.yul\":9813:9816   */\n      dup3\n        /* \"#utility.yul\":9806:9825   */\n      mstore\n        /* \"#utility.yul\":9858:9862   */\n      0x20\n        /* \"#utility.yul\":9853:9856   */\n      dup3\n        /* \"#utility.yul\":9849:9863   */\n      add\n        /* \"#utility.yul\":9834:9863   */\n      swap1\n      pop\n        /* \"#utility.yul\":9700:9869   */\n      swap3\n      swap2\n      pop\n      pop\n      jump\t// out\n        /* \"#utility.yul\":9875:10252   */\n    tag_184:\n        /* \"#utility.yul\":9963:9966   */\n      0x00\n        /* \"#utility.yul\":9991:10030   */\n      tag_309\n        /* \"#utility.yul\":10024:10029   */\n      dup3\n        /* \"#utility.yul\":9991:10030   */\n      tag_167\n      jump\t// in\n    tag_309:\n        /* \"#utility.yul\":10046:10117   */\n      tag_310\n        /* \"#utility.yul\":10110:10116   */\n      dup2\n        /* \"#utility.yul\":10105:10108   */\n      dup6\n        /* \"#utility.yul\":10046:10117   */\n      tag_183\n      jump\t// in\n    tag_310:\n        /* \"#utility.yul\":10039:10117   */\n      swap4\n      pop\n        /* \"#utility.yul\":10126:10191   */\n      tag_311\n        /* \"#utility.yul\":10184:10190   */\n      dup2\n        /* \"#utility.yul\":10179:10182   */\n      dup6\n        /* \"#utility.yul\":10172:10176   */\n      0x20\n        /* \"#utility.yul\":10165:10170   */\n      dup7\n        /* \"#utility.yul\":10161:10177   */\n      add\n        /* \"#utility.yul\":10126:10191   */\n      tag_169\n      jump\t// in\n    tag_311:\n        /* \"#utility.yul\":10216:10245   */\n      tag_312\n        /* \"#utility.yul\":10238:10244   */\n      dup2\n        /* \"#utility.yul\":10216:10245   */\n      tag_154\n      jump\t// in\n    tag_312:\n        /* \"#utility.yul\":10211:10214   */\n      dup5\n        /* \"#utility.yul\":10207:10246   */\n      add\n        /* \"#utility.yul\":10200:10246   */\n      swap2\n      pop\n        /* \"#utility.yul\":9967:10252   */\n      pop\n        /* \"#utility.yul\":9875:10252   */\n      swap3\n      swap2\n      pop\n      pop\n      jump\t// out\n        /* \"#utility.yul\":10258:10571   */\n    tag_24:\n        /* \"#utility.yul\":10371:10375   */\n      0x00\n        /* \"#utility.yul\":10409:10411   */\n      0x20\n        /* \"#utility.yul\":10398:10407   */\n      dup3\n        /* \"#utility.yul\":10394:10412   */\n      add\n        /* \"#utility.yul\":10386:10412   */\n      swap1\n      pop\n        /* \"#utility.yul\":10458:10467   */\n      dup2\n        /* \"#utility.yul\":10452:10456   */\n      dup2\n        /* \"#utility.yul\":10448:10468   */\n      sub\n        /* \"#utility.yul\":10444:10445   */\n      0x00\n        /* \"#utility.yul\":10433:10442   */\n      dup4\n        /* \"#utility.yul\":10429:10446   */\n      add\n        /* \"#utility.yul\":10422:10469   */\n      mstore\n        /* \"#utility.yul\":10486:10564   */\n      tag_314\n        /* \"#utility.yul\":10559:10563   */\n      dup2\n        /* \"#utility.yul\":10550:10556   */\n      dup5\n        /* \"#utility.yul\":10486:10564   */\n      tag_184\n      jump\t// in\n    tag_314:\n        /* \"#utility.yul\":10478:10564   */\n      swap1\n      pop\n        /* \"#utility.yul\":10258:10571   */\n      swap3\n      swap2\n      pop\n      pop\n      jump\t// out\n        /* \"#utility.yul\":10577:12062   */\n    tag_27:\n        /* \"#utility.yul\":10703:10709   */\n      0x00\n        /* \"#utility.yul\":10711:10717   */\n      0x00\n        /* \"#utility.yul\":10719:10725   */\n      0x00\n        /* \"#utility.yul\":10727:10733   */\n      0x00\n        /* \"#utility.yul\":10776:10779   */\n      0x80\n        /* \"#utility.yul\":10764:10773   */\n      dup6\n        /* \"#utility.yul\":10755:10762   */\n      dup8\n        /* \"#utility.yul\":10751:10774   */\n      sub\n        /* \"#utility.yul\":10747:10780   */\n      slt\n        /* \"#utility.yul\":10744:10864   */\n      iszero\n      tag_316\n      jumpi\n        /* \"#utility.yul\":10783:10862   */\n      tag_317\n      tag_150\n      jump\t// in\n    tag_317:\n        /* \"#utility.yul\":10744:10864   */\n    tag_316:\n        /* \"#utility.yul\":10931:10932   */\n      0x00\n        /* \"#utility.yul\":10920:10929   */\n      dup6\n        /* \"#utility.yul\":10916:10933   */\n      add\n        /* \"#utility.yul\":10903:10934   */\n      calldataload\n        /* \"#utility.yul\":10961:10979   */\n      0xffffffffffffffff\n        /* \"#utility.yul\":10953:10959   */\n      dup2\n        /* \"#utility.yul\":10950:10980   */\n      gt\n        /* \"#utility.yul\":10947:11064   */\n      iszero\n      tag_318\n      jumpi\n        /* \"#utility.yul\":10983:11062   */\n      tag_319\n      tag_151\n      jump\t// in\n    tag_319:\n        /* \"#utility.yul\":10947:11064   */\n    tag_318:\n        /* \"#utility.yul\":11088:11151   */\n      tag_320\n        /* \"#utility.yul\":11143:11150   */\n      dup8\n        /* \"#utility.yul\":11134:11140   */\n      dup3\n        /* \"#utility.yul\":11123:11132   */\n      dup9\n        /* \"#utility.yul\":11119:11141   */\n      add\n        /* \"#utility.yul\":11088:11151   */\n      tag_160\n      jump\t// in\n    tag_320:\n        /* \"#utility.yul\":11078:11151   */\n      swap5\n      pop\n        /* \"#utility.yul\":10874:11161   */\n      pop\n        /* \"#utility.yul\":11228:11230   */\n      0x20\n        /* \"#utility.yul\":11217:11226   */\n      dup6\n        /* \"#utility.yul\":11213:11231   */\n      add\n        /* \"#utility.yul\":11200:11232   */\n      calldataload\n        /* \"#utility.yul\":11259:11277   */\n      0xffffffffffffffff\n        /* \"#utility.yul\":11251:11257   */\n      dup2\n        /* \"#utility.yul\":11248:11278   */\n      gt\n        /* \"#utility.yul\":11245:11362   */\n      iszero\n      tag_321\n      jumpi\n        /* \"#utility.yul\":11281:11360   */\n      tag_322\n      tag_151\n      jump\t// in\n    tag_322:\n        /* \"#utility.yul\":11245:11362   */\n    tag_321:\n        /* \"#utility.yul\":11386:11449   */\n      tag_323\n        /* \"#utility.yul\":11441:11448   */\n      dup8\n        /* \"#utility.yul\":11432:11438   */\n      dup3\n        /* \"#utility.yul\":11421:11430   */\n      dup9\n        /* \"#utility.yul\":11417:11439   */\n      add\n        /* \"#utility.yul\":11386:11449   */\n      tag_160\n      jump\t// in\n    tag_323:\n        /* \"#utility.yul\":11376:11449   */\n      swap4\n      pop\n        /* \"#utility.yul\":11171:11459   */\n      pop\n        /* \"#utility.yul\":11526:11528   */\n      0x40\n        /* \"#utility.yul\":11515:11524   */\n      dup6\n        /* \"#utility.yul\":11511:11529   */\n      add\n        /* \"#utility.yul\":11498:11530   */\n      calldataload\n        /* \"#utility.yul\":11557:11575   */\n      0xffffffffffffffff\n        /* \"#utility.yul\":11549:11555   */\n      dup2\n        /* \"#utility.yul\":11546:11576   */\n      gt\n        /* \"#utility.yul\":11543:11660   */\n      iszero\n      tag_324\n      jumpi\n        /* \"#utility.yul\":11579:11658   */\n      tag_325\n      tag_151\n      jump\t// in\n    tag_325:\n        /* \"#utility.yul\":11543:11660   */\n    tag_324:\n        /* \"#utility.yul\":11684:11747   */\n      tag_326\n        /* \"#utility.yul\":11739:11746   */\n      dup8\n        /* \"#utility.yul\":11730:11736   */\n      dup3\n        /* \"#utility.yul\":11719:11728   */\n      dup9\n        /* \"#utility.yul\":11715:11737   */\n      add\n        /* \"#utility.yul\":11684:11747   */\n      tag_160\n      jump\t// in\n    tag_326:\n        /* \"#utility.yul\":11674:11747   */\n      swap3\n      pop\n        /* \"#utility.yul\":11469:11757   */\n      pop\n        /* \"#utility.yul\":11824:11826   */\n      0x60\n        /* \"#utility.yul\":11813:11822   */\n      dup6\n        /* \"#utility.yul\":11809:11827   */\n      add\n        /* \"#utility.yul\":11796:11828   */\n      calldataload\n        /* \"#utility.yul\":11855:11873   */\n      0xffffffffffffffff\n        /* \"#utility.yul\":11847:11853   */\n      dup2\n        /* \"#utility.yul\":11844:11874   */\n      gt\n        /* \"#utility.yul\":11841:11958   */\n      iszero\n      tag_327\n      jumpi\n        /* \"#utility.yul\":11877:11956   */\n      tag_328\n      tag_151\n      jump\t// in\n    tag_328:\n        /* \"#utility.yul\":11841:11958   */\n    tag_327:\n        /* \"#utility.yul\":11982:12045   */\n      tag_329\n        /* \"#utility.yul\":12037:12044   */\n      dup8\n        /* \"#utility.yul\":12028:12034   */\n      dup3\n        /* \"#utility.yul\":12017:12026   */\n      dup9\n        /* \"#utility.yul\":12013:12035   */\n      add\n        /* \"#utility.yul\":11982:12045   */\n      tag_160\n      jump\t// in\n    tag_329:\n        /* \"#utility.yul\":11972:12045   */\n      swap2\n      pop\n        /* \"#utility.yul\":11767:12055   */\n      pop\n        /* \"#utility.yul\":10577:12062   */\n      swap3\n      swap6\n      swap2\n      swap5\n      pop\n      swap3\n      pop\n      jump\t// out\n        /* \"#utility.yul\":12068:12186   */\n    tag_185:\n        /* \"#utility.yul\":12155:12179   */\n      tag_331\n        /* \"#utility.yul\":12173:12178   */\n      dup2\n        /* \"#utility.yul\":12155:12179   */\n      tag_165\n      jump\t// in\n    tag_331:\n        /* \"#utility.yul\":12150:12153   */\n      dup3\n        /* \"#utility.yul\":12143:12180   */\n      mstore\n        /* \"#utility.yul\":12068:12186   */\n      pop\n      pop\n      jump\t// out\n        /* \"#utility.yul\":12192:12414   */\n    tag_32:\n        /* \"#utility.yul\":12285:12289   */\n      0x00\n        /* \"#utility.yul\":12323:12325   */\n      0x20\n        /* \"#utility.yul\":12312:12321   */\n      dup3\n        /* \"#utility.yul\":12308:12326   */\n      add\n        /* \"#utility.yul\":12300:12326   */\n      swap1\n      pop\n        /* \"#utility.yul\":12336:12407   */\n      tag_333\n        /* \"#utility.yul\":12404:12405   */\n      0x00\n        /* \"#utility.yul\":12393:12402   */\n      dup4\n        /* \"#utility.yul\":12389:12406   */\n      add\n        /* \"#utility.yul\":12380:12386   */\n      dup5\n        /* \"#utility.yul\":12336:12407   */\n      tag_185\n      jump\t// in\n    tag_333:\n        /* \"#utility.yul\":12192:12414   */\n      swap3\n      swap2\n      pop\n      pop\n      jump\t// out\n        /* \"#utility.yul\":12494:13941   */\n    tag_186:\n        /* \"#utility.yul\":12609:12612   */\n      0x00\n        /* \"#utility.yul\":12645:12649   */\n      0xc0\n        /* \"#utility.yul\":12640:12643   */\n      dup4\n        /* \"#utility.yul\":12636:12650   */\n      add\n        /* \"#utility.yul\":12732:12736   */\n      0x00\n        /* \"#utility.yul\":12725:12730   */\n      dup4\n        /* \"#utility.yul\":12721:12737   */\n      add\n        /* \"#utility.yul\":12715:12738   */\n      mload\n        /* \"#utility.yul\":12751:12814   */\n      tag_335\n        /* \"#utility.yul\":12808:12812   */\n      0x00\n        /* \"#utility.yul\":12803:12806   */\n      dup7\n        /* \"#utility.yul\":12799:12813   */\n      add\n        /* \"#utility.yul\":12785:12797   */\n      dup3\n        /* \"#utility.yul\":12751:12814   */\n      tag_166\n      jump\t// in\n    tag_335:\n        /* \"#utility.yul\":12660:12824   */\n      pop\n        /* \"#utility.yul\":12906:12910   */\n      0x20\n        /* \"#utility.yul\":12899:12904   */\n      dup4\n        /* \"#utility.yul\":12895:12911   */\n      add\n        /* \"#utility.yul\":12889:12912   */\n      mload\n        /* \"#utility.yul\":12959:12962   */\n      dup5\n        /* \"#utility.yul\":12953:12957   */\n      dup3\n        /* \"#utility.yul\":12949:12963   */\n      sub\n        /* \"#utility.yul\":12942:12946   */\n      0x20\n        /* \"#utility.yul\":12937:12940   */\n      dup7\n        /* \"#utility.yul\":12933:12947   */\n      add\n        /* \"#utility.yul\":12926:12964   */\n      mstore\n        /* \"#utility.yul\":12985:13058   */\n      tag_336\n        /* \"#utility.yul\":13053:13057   */\n      dup3\n        /* \"#utility.yul\":13039:13051   */\n      dup3\n        /* \"#utility.yul\":12985:13058   */\n      tag_170\n      jump\t// in\n    tag_336:\n        /* \"#utility.yul\":12977:13058   */\n      swap2\n      pop\n        /* \"#utility.yul\":12834:13069   */\n      pop\n        /* \"#utility.yul\":13154:13158   */\n      0x40\n        /* \"#utility.yul\":13147:13152   */\n      dup4\n        /* \"#utility.yul\":13143:13159   */\n      add\n        /* \"#utility.yul\":13137:13160   */\n      mload\n        /* \"#utility.yul\":13207:13210   */\n      dup5\n        /* \"#utility.yul\":13201:13205   */\n      dup3\n        /* \"#utility.yul\":13197:13211   */\n      sub\n        /* \"#utility.yul\":13190:13194   */\n      0x40\n        /* \"#utility.yul\":13185:13188   */\n      dup7\n        /* \"#utility.yul\":13181:13195   */\n      add\n        /* \"#utility.yul\":13174:13212   */\n      mstore\n        /* \"#utility.yul\":13233:13306   */\n      tag_337\n        /* \"#utility.yul\":13301:13305   */\n      dup3\n        /* \"#utility.yul\":13287:13299   */\n      dup3\n        /* \"#utility.yul\":13233:13306   */\n      tag_170\n      jump\t// in\n    tag_337:\n        /* \"#utility.yul\":13225:13306   */\n      swap2\n      pop\n        /* \"#utility.yul\":13079:13317   */\n      pop\n        /* \"#utility.yul\":13400:13404   */\n      0x60\n        /* \"#utility.yul\":13393:13398   */\n      dup4\n        /* \"#utility.yul\":13389:13405   */\n      add\n        /* \"#utility.yul\":13383:13406   */\n      mload\n        /* \"#utility.yul\":13453:13456   */\n      dup5\n        /* \"#utility.yul\":13447:13451   */\n      dup3\n        /* \"#utility.yul\":13443:13457   */\n      sub\n        /* \"#utility.yul\":13436:13440   */\n      0x60\n        /* \"#utility.yul\":13431:13434   */\n      dup7\n        /* \"#utility.yul\":13427:13441   */\n      add\n        /* \"#utility.yul\":13420:13458   */\n      mstore\n        /* \"#utility.yul\":13479:13552   */\n      tag_338\n        /* \"#utility.yul\":13547:13551   */\n      dup3\n        /* \"#utility.yul\":13533:13545   */\n      dup3\n        /* \"#utility.yul\":13479:13552   */\n      tag_170\n      jump\t// in\n    tag_338:\n        /* \"#utility.yul\":13471:13552   */\n      swap2\n      pop\n        /* \"#utility.yul\":13327:13563   */\n      pop\n        /* \"#utility.yul\":13650:13654   */\n      0x80\n        /* \"#utility.yul\":13643:13648   */\n      dup4\n        /* \"#utility.yul\":13639:13655   */\n      add\n        /* \"#utility.yul\":13633:13656   */\n      mload\n        /* \"#utility.yul\":13669:13732   */\n      tag_339\n        /* \"#utility.yul\":13726:13730   */\n      0x80\n        /* \"#utility.yul\":13721:13724   */\n      dup7\n        /* \"#utility.yul\":13717:13731   */\n      add\n        /* \"#utility.yul\":13703:13715   */\n      dup3\n        /* \"#utility.yul\":13669:13732   */\n      tag_172\n      jump\t// in\n    tag_339:\n        /* \"#utility.yul\":13573:13742   */\n      pop\n        /* \"#utility.yul\":13828:13832   */\n      0xa0\n        /* \"#utility.yul\":13821:13826   */\n      dup4\n        /* \"#utility.yul\":13817:13833   */\n      add\n        /* \"#utility.yul\":13811:13834   */\n      mload\n        /* \"#utility.yul\":13847:13904   */\n      tag_340\n        /* \"#utility.yul\":13898:13902   */\n      0xa0\n        /* \"#utility.yul\":13893:13896   */\n      dup7\n        /* \"#utility.yul\":13889:13903   */\n      add\n        /* \"#utility.yul\":13875:13887   */\n      dup3\n        /* \"#utility.yul\":13847:13904   */\n      tag_174\n      jump\t// in\n    tag_340:\n        /* \"#utility.yul\":13752:13914   */\n      pop\n        /* \"#utility.yul\":13931:13935   */\n      dup1\n        /* \"#utility.yul\":13924:13935   */\n      swap2\n      pop\n        /* \"#utility.yul\":12614:13941   */\n      pop\n        /* \"#utility.yul\":12494:13941   */\n      swap3\n      swap2\n      pop\n      pop\n      jump\t// out\n        /* \"#utility.yul\":13947:14312   */\n    tag_37:\n        /* \"#utility.yul\":14086:14090   */\n      0x00\n        /* \"#utility.yul\":14124:14126   */\n      0x20\n        /* \"#utility.yul\":14113:14122   */\n      dup3\n        /* \"#utility.yul\":14109:14127   */\n      add\n        /* \"#utility.yul\":14101:14127   */\n      swap1\n      pop\n        /* \"#utility.yul\":14173:14182   */\n      dup2\n        /* \"#utility.yul\":14167:14171   */\n      dup2\n        /* \"#utility.yul\":14163:14183   */\n      sub\n        /* \"#utility.yul\":14159:14160   */\n      0x00\n        /* \"#utility.yul\":14148:14157   */\n      dup4\n        /* \"#utility.yul\":14144:14161   */\n      add\n        /* \"#utility.yul\":14137:14184   */\n      mstore\n        /* \"#utility.yul\":14201:14305   */\n      tag_342\n        /* \"#utility.yul\":14300:14304   */\n      dup2\n        /* \"#utility.yul\":14291:14297   */\n      dup5\n        /* \"#utility.yul\":14201:14305   */\n      tag_186\n      jump\t// in\n    tag_342:\n        /* \"#utility.yul\":14193:14305   */\n      swap1\n      pop\n        /* \"#utility.yul\":13947:14312   */\n      swap3\n      swap2\n      pop\n      pop\n      jump\t// out\n        /* \"#utility.yul\":14318:14436   */\n    tag_187:\n        /* \"#utility.yul\":14405:14429   */\n      tag_344\n        /* \"#utility.yul\":14423:14428   */\n      dup2\n        /* \"#utility.yul\":14405:14429   */\n      tag_171\n      jump\t// in\n    tag_344:\n        /* \"#utility.yul\":14400:14403   */\n      dup3\n        /* \"#utility.yul\":14393:14430   */\n      mstore\n        /* \"#utility.yul\":14318:14436   */\n      pop\n      pop\n      jump\t// out\n        /* \"#utility.yul\":14442:14551   */\n    tag_188:\n        /* \"#utility.yul\":14523:14544   */\n      tag_346\n        /* \"#utility.yul\":14538:14543   */\n      dup2\n        /* \"#utility.yul\":14523:14544   */\n      tag_173\n      jump\t// in\n    tag_346:\n        /* \"#utility.yul\":14518:14521   */\n      dup3\n        /* \"#utility.yul\":14511:14545   */\n      mstore\n        /* \"#utility.yul\":14442:14551   */\n      pop\n      pop\n      jump\t// out\n        /* \"#utility.yul\":14557:15593   */\n    tag_42:\n        /* \"#utility.yul\":14844:14848   */\n      0x00\n        /* \"#utility.yul\":14882:14885   */\n      0xc0\n        /* \"#utility.yul\":14871:14880   */\n      dup3\n        /* \"#utility.yul\":14867:14886   */\n      add\n        /* \"#utility.yul\":14859:14886   */\n      swap1\n      pop\n        /* \"#utility.yul\":14896:14967   */\n      tag_348\n        /* \"#utility.yul\":14964:14965   */\n      0x00\n        /* \"#utility.yul\":14953:14962   */\n      dup4\n        /* \"#utility.yul\":14949:14966   */\n      add\n        /* \"#utility.yul\":14940:14946   */\n      dup10\n        /* \"#utility.yul\":14896:14967   */\n      tag_185\n      jump\t// in\n    tag_348:\n        /* \"#utility.yul\":15014:15023   */\n      dup2\n        /* \"#utility.yul\":15008:15012   */\n      dup2\n        /* \"#utility.yul\":15004:15024   */\n      sub\n        /* \"#utility.yul\":14999:15001   */\n      0x20\n        /* \"#utility.yul\":14988:14997   */\n      dup4\n        /* \"#utility.yul\":14984:15002   */\n      add\n        /* \"#utility.yul\":14977:15025   */\n      mstore\n        /* \"#utility.yul\":15042:15120   */\n      tag_349\n        /* \"#utility.yul\":15115:15119   */\n      dup2\n        /* \"#utility.yul\":15106:15112   */\n      dup9\n        /* \"#utility.yul\":15042:15120   */\n      tag_184\n      jump\t// in\n    tag_349:\n        /* \"#utility.yul\":15034:15120   */\n      swap1\n      pop\n        /* \"#utility.yul\":15167:15176   */\n      dup2\n        /* \"#utility.yul\":15161:15165   */\n      dup2\n        /* \"#utility.yul\":15157:15177   */\n      sub\n        /* \"#utility.yul\":15152:15154   */\n      0x40\n        /* \"#utility.yul\":15141:15150   */\n      dup4\n        /* \"#utility.yul\":15137:15155   */\n      add\n        /* \"#utility.yul\":15130:15178   */\n      mstore\n        /* \"#utility.yul\":15195:15273   */\n      tag_350\n        /* \"#utility.yul\":15268:15272   */\n      dup2\n        /* \"#utility.yul\":15259:15265   */\n      dup8\n        /* \"#utility.yul\":15195:15273   */\n      tag_184\n      jump\t// in\n    tag_350:\n        /* \"#utility.yul\":15187:15273   */\n      swap1\n      pop\n        /* \"#utility.yul\":15320:15329   */\n      dup2\n        /* \"#utility.yul\":15314:15318   */\n      dup2\n        /* \"#utility.yul\":15310:15330   */\n      sub\n        /* \"#utility.yul\":15305:15307   */\n      0x60\n        /* \"#utility.yul\":15294:15303   */\n      dup4\n        /* \"#utility.yul\":15290:15308   */\n      add\n        /* \"#utility.yul\":15283:15331   */\n      mstore\n        /* \"#utility.yul\":15348:15426   */\n      tag_351\n        /* \"#utility.yul\":15421:15425   */\n      dup2\n        /* \"#utility.yul\":15412:15418   */\n      dup7\n        /* \"#utility.yul\":15348:15426   */\n      tag_184\n      jump\t// in\n    tag_351:\n        /* \"#utility.yul\":15340:15426   */\n      swap1\n      pop\n        /* \"#utility.yul\":15436:15509   */\n      tag_352\n        /* \"#utility.yul\":15504:15507   */\n      0x80\n        /* \"#utility.yul\":15493:15502   */\n      dup4\n        /* \"#utility.yul\":15489:15508   */\n      add\n        /* \"#utility.yul\":15480:15486   */\n      dup6\n        /* \"#utility.yul\":15436:15509   */\n      tag_187\n      jump\t// in\n    tag_352:\n        /* \"#utility.yul\":15519:15586   */\n      tag_353\n        /* \"#utility.yul\":15581:15584   */\n      0xa0\n        /* \"#utility.yul\":15570:15579   */\n      dup4\n        /* \"#utility.yul\":15566:15585   */\n      add\n        /* \"#utility.yul\":15557:15563   */\n      dup5\n        /* \"#utility.yul\":15519:15586   */\n      tag_188\n      jump\t// in\n    tag_353:\n        /* \"#utility.yul\":14557:15593   */\n      swap8\n      swap7\n      pop\n      pop\n      pop\n      pop\n      pop\n      pop\n      pop\n      jump\t// out\n        /* \"#utility.yul\":15599:15778   */\n    tag_189:\n        /* \"#utility.yul\":15739:15770   */\n      0x4f6e6c79206f776e65722063616e2076657269667920626f6f6b696e67000000\n        /* \"#utility.yul\":15735:15736   */\n      0x00\n        /* \"#utility.yul\":15727:15733   */\n      dup3\n        /* \"#utility.yul\":15723:15737   */\n      add\n        /* \"#utility.yul\":15716:15771   */\n      mstore\n        /* \"#utility.yul\":15599:15778   */\n      pop\n      jump\t// out\n        /* \"#utility.yul\":15784:16150   */\n    tag_190:\n        /* \"#utility.yul\":15926:15929   */\n      0x00\n        /* \"#utility.yul\":15947:16014   */\n      tag_356\n        /* \"#utility.yul\":16011:16013   */\n      0x1d\n        /* \"#utility.yul\":16006:16009   */\n      dup4\n        /* \"#utility.yul\":15947:16014   */\n      tag_183\n      jump\t// in\n    tag_356:\n        /* \"#utility.yul\":15940:16014   */\n      swap2\n      pop\n        /* \"#utility.yul\":16023:16116   */\n      tag_357\n        /* \"#utility.yul\":16112:16115   */\n      dup3\n        /* \"#utility.yul\":16023:16116   */\n      tag_189\n      jump\t// in\n    tag_357:\n        /* \"#utility.yul\":16141:16143   */\n      0x20\n        /* \"#utility.yul\":16136:16139   */\n      dup3\n        /* \"#utility.yul\":16132:16144   */\n      add\n        /* \"#utility.yul\":16125:16144   */\n      swap1\n      pop\n        /* \"#utility.yul\":15784:16150   */\n      swap2\n      swap1\n      pop\n      jump\t// out\n        /* \"#utility.yul\":16156:16575   */\n    tag_46:\n        /* \"#utility.yul\":16322:16326   */\n      0x00\n        /* \"#utility.yul\":16360:16362   */\n      0x20\n        /* \"#utility.yul\":16349:16358   */\n      dup3\n        /* \"#utility.yul\":16345:16363   */\n      add\n        /* \"#utility.yul\":16337:16363   */\n      swap1\n      pop\n        /* \"#utility.yul\":16409:16418   */\n      dup2\n        /* \"#utility.yul\":16403:16407   */\n      dup2\n        /* \"#utility.yul\":16399:16419   */\n      sub\n        /* \"#utility.yul\":16395:16396   */\n      0x00\n        /* \"#utility.yul\":16384:16393   */\n      dup4\n        /* \"#utility.yul\":16380:16397   */\n      add\n        /* \"#utility.yul\":16373:16420   */\n      mstore\n        /* \"#utility.yul\":16437:16568   */\n      tag_359\n        /* \"#utility.yul\":16563:16567   */\n      dup2\n        /* \"#utility.yul\":16437:16568   */\n      tag_190\n      jump\t// in\n    tag_359:\n        /* \"#utility.yul\":16429:16568   */\n      swap1\n      pop\n        /* \"#utility.yul\":16156:16575   */\n      swap2\n      swap1\n      pop\n      jump\t// out\n        /* \"#utility.yul\":16581:16729   */\n    tag_191:\n        /* \"#utility.yul\":16683:16694   */\n      0x00\n        /* \"#utility.yul\":16720:16723   */\n      dup2\n        /* \"#utility.yul\":16705:16723   */\n      swap1\n      pop\n        /* \"#utility.yul\":16581:16729   */\n      swap3\n      swap2\n      pop\n      pop\n      jump\t// out\n        /* \"#utility.yul\":16735:17125   */\n    tag_192:\n        /* \"#utility.yul\":16841:16844   */\n      0x00\n        /* \"#utility.yul\":16869:16908   */\n      tag_362\n        /* \"#utility.yul\":16902:16907   */\n      dup3\n        /* \"#utility.yul\":16869:16908   */\n      tag_167\n      jump\t// in\n    tag_362:\n        /* \"#utility.yul\":16924:17013   */\n      tag_363\n        /* \"#utility.yul\":17006:17012   */\n      dup2\n        /* \"#utility.yul\":17001:17004   */\n      dup6\n        /* \"#utility.yul\":16924:17013   */\n      tag_191\n      jump\t// in\n    tag_363:\n        /* \"#utility.yul\":16917:17013   */\n      swap4\n      pop\n        /* \"#utility.yul\":17022:17087   */\n      tag_364\n        /* \"#utility.yul\":17080:17086   */\n      dup2\n        /* \"#utility.yul\":17075:17078   */\n      dup6\n        /* \"#utility.yul\":17068:17072   */\n      0x20\n        /* \"#utility.yul\":17061:17066   */\n      dup7\n        /* \"#utility.yul\":17057:17073   */\n      add\n        /* \"#utility.yul\":17022:17087   */\n      tag_169\n      jump\t// in\n    tag_364:\n        /* \"#utility.yul\":17112:17118   */\n      dup1\n        /* \"#utility.yul\":17107:17110   */\n      dup5\n        /* \"#utility.yul\":17103:17119   */\n      add\n        /* \"#utility.yul\":17096:17119   */\n      swap2\n      pop\n        /* \"#utility.yul\":16845:17125   */\n      pop\n        /* \"#utility.yul\":16735:17125   */\n      swap3\n      swap2\n      pop\n      pop\n      jump\t// out\n        /* \"#utility.yul\":17131:17406   */\n    tag_48:\n        /* \"#utility.yul\":17263:17266   */\n      0x00\n        /* \"#utility.yul\":17285:17380   */\n      tag_366\n        /* \"#utility.yul\":17376:17379   */\n      dup3\n        /* \"#utility.yul\":17367:17373   */\n      dup5\n        /* \"#utility.yul\":17285:17380   */\n      tag_192\n      jump\t// in\n    tag_366:\n        /* \"#utility.yul\":17278:17380   */\n      swap2\n      pop\n        /* \"#utility.yul\":17397:17400   */\n      dup2\n        /* \"#utility.yul\":17390:17400   */\n      swap1\n      pop\n        /* \"#utility.yul\":17131:17406   */\n      swap3\n      swap2\n      pop\n      pop\n      jump\t// out\n        /* \"#utility.yul\":17412:17579   */\n    tag_193:\n        /* \"#utility.yul\":17552:17571   */\n      0x426f6f6b696e67206e6f7420666f756e64000000000000000000000000000000\n        /* \"#utility.yul\":17548:17549   */\n      0x00\n        /* \"#utility.yul\":17540:17546   */\n      dup3\n        /* \"#utility.yul\":17536:17550   */\n      add\n        /* \"#utility.yul\":17529:17572   */\n      mstore\n        /* \"#utility.yul\":17412:17579   */\n      pop\n      jump\t// out\n        /* \"#utility.yul\":17585:17951   */\n    tag_194:\n        /* \"#utility.yul\":17727:17730   */\n      0x00\n        /* \"#utility.yul\":17748:17815   */\n      tag_369\n        /* \"#utility.yul\":17812:17814   */\n      0x11\n        /* \"#utility.yul\":17807:17810   */\n      dup4\n        /* \"#utility.yul\":17748:17815   */\n      tag_183\n      jump\t// in\n    tag_369:\n        /* \"#utility.yul\":17741:17815   */\n      swap2\n      pop\n        /* \"#utility.yul\":17824:17917   */\n      tag_370\n        /* \"#utility.yul\":17913:17916   */\n      dup3\n        /* \"#utility.yul\":17824:17917   */\n      tag_193\n      jump\t// in\n    tag_370:\n        /* \"#utility.yul\":17942:17944   */\n      0x20\n        /* \"#utility.yul\":17937:17940   */\n      dup3\n        /* \"#utility.yul\":17933:17945   */\n      add\n        /* \"#utility.yul\":17926:17945   */\n      swap1\n      pop\n        /* \"#utility.yul\":17585:17951   */\n      swap2\n      swap1\n      pop\n      jump\t// out\n        /* \"#utility.yul\":17957:18376   */\n    tag_51:\n        /* \"#utility.yul\":18123:18127   */\n      0x00\n        /* \"#utility.yul\":18161:18163   */\n      0x20\n        /* \"#utility.yul\":18150:18159   */\n      dup3\n        /* \"#utility.yul\":18146:18164   */\n      add\n        /* \"#utility.yul\":18138:18164   */\n      swap1\n      pop\n        /* \"#utility.yul\":18210:18219   */\n      dup2\n        /* \"#utility.yul\":18204:18208   */\n      dup2\n        /* \"#utility.yul\":18200:18220   */\n      sub\n        /* \"#utility.yul\":18196:18197   */\n      0x00\n        /* \"#utility.yul\":18185:18194   */\n      dup4\n        /* \"#utility.yul\":18181:18198   */\n      add\n        /* \"#utility.yul\":18174:18221   */\n      mstore\n        /* \"#utility.yul\":18238:18369   */\n      tag_372\n        /* \"#utility.yul\":18364:18368   */\n      dup2\n        /* \"#utility.yul\":18238:18369   */\n      tag_194\n      jump\t// in\n    tag_372:\n        /* \"#utility.yul\":18230:18369   */\n      swap1\n      pop\n        /* \"#utility.yul\":17957:18376   */\n      swap2\n      swap1\n      pop\n      jump\t// out\n        /* \"#utility.yul\":18382:18562   */\n    tag_195:\n        /* \"#utility.yul\":18430:18507   */\n      0x4e487b7100000000000000000000000000000000000000000000000000000000\n        /* \"#utility.yul\":18427:18428   */\n      0x00\n        /* \"#utility.yul\":18420:18508   */\n      mstore\n        /* \"#utility.yul\":18527:18531   */\n      0x22\n        /* \"#utility.yul\":18524:18525   */\n      0x04\n        /* \"#utility.yul\":18517:18532   */\n      mstore\n        /* \"#utility.yul\":18551:18555   */\n      0x24\n        /* \"#utility.yul\":18548:18549   */\n      0x00\n        /* \"#utility.yul\":18541:18556   */\n      revert\n        /* \"#utility.yul\":18568:18888   */\n    tag_59:\n        /* \"#utility.yul\":18612:18618   */\n      0x00\n        /* \"#utility.yul\":18649:18650   */\n      0x02\n        /* \"#utility.yul\":18643:18647   */\n      dup3\n        /* \"#utility.yul\":18639:18651   */\n      div\n        /* \"#utility.yul\":18629:18651   */\n      swap1\n      pop\n        /* \"#utility.yul\":18696:18697   */\n      0x01\n        /* \"#utility.yul\":18690:18694   */\n      dup3\n        /* \"#utility.yul\":18686:18698   */\n      and\n        /* \"#utility.yul\":18717:18735   */\n      dup1\n        /* \"#utility.yul\":18707:18788   */\n      tag_375\n      jumpi\n        /* \"#utility.yul\":18773:18777   */\n      0x7f\n        /* \"#utility.yul\":18765:18771   */\n      dup3\n        /* \"#utility.yul\":18761:18778   */\n      and\n        /* \"#utility.yul\":18751:18778   */\n      swap2\n      pop\n        /* \"#utility.yul\":18707:18788   */\n    tag_375:\n        /* \"#utility.yul\":18835:18837   */\n      0x20\n        /* \"#utility.yul\":18827:18833   */\n      dup3\n        /* \"#utility.yul\":18824:18838   */\n      lt\n        /* \"#utility.yul\":18804:18822   */\n      dup2\n        /* \"#utility.yul\":18801:18839   */\n      sub\n        /* \"#utility.yul\":18798:18882   */\n      tag_376\n      jumpi\n        /* \"#utility.yul\":18854:18872   */\n      tag_377\n      tag_195\n      jump\t// in\n    tag_377:\n        /* \"#utility.yul\":18798:18882   */\n    tag_376:\n        /* \"#utility.yul\":18619:18888   */\n      pop\n        /* \"#utility.yul\":18568:18888   */\n      swap2\n      swap1\n      pop\n      jump\t// out\n        /* \"#utility.yul\":18894:19074   */\n    tag_76:\n        /* \"#utility.yul\":18942:19019   */\n      0x4e487b7100000000000000000000000000000000000000000000000000000000\n        /* \"#utility.yul\":18939:18940   */\n      0x00\n        /* \"#utility.yul\":18932:19020   */\n      mstore\n        /* \"#utility.yul\":19039:19043   */\n      0x32\n        /* \"#utility.yul\":19036:19037   */\n      0x04\n        /* \"#utility.yul\":19029:19044   */\n      mstore\n        /* \"#utility.yul\":19063:19067   */\n      0x24\n        /* \"#utility.yul\":19060:19061   */\n      0x00\n        /* \"#utility.yul\":19053:19068   */\n      revert\n        /* \"#utility.yul\":19080:19255   */\n    tag_196:\n        /* \"#utility.yul\":19220:19247   */\n      0x426f6f6b696e6720494420616c72656164792065786973747300000000000000\n        /* \"#utility.yul\":19216:19217   */\n      0x00\n        /* \"#utility.yul\":19208:19214   */\n      dup3\n        /* \"#utility.yul\":19204:19218   */\n      add\n        /* \"#utility.yul\":19197:19248   */\n      mstore\n        /* \"#utility.yul\":19080:19255   */\n      pop\n      jump\t// out\n        /* \"#utility.yul\":19261:19627   */\n    tag_197:\n        /* \"#utility.yul\":19403:19406   */\n      0x00\n        /* \"#utility.yul\":19424:19491   */\n      tag_381\n        /* \"#utility.yul\":19488:19490   */\n      0x19\n        /* \"#utility.yul\":19483:19486   */\n      dup4\n        /* \"#utility.yul\":19424:19491   */\n      tag_183\n      jump\t// in\n    tag_381:\n        /* \"#utility.yul\":19417:19491   */\n      swap2\n      pop\n        /* \"#utility.yul\":19500:19593   */\n      tag_382\n        /* \"#utility.yul\":19589:19592   */\n      dup3\n        /* \"#utility.yul\":19500:19593   */\n      tag_196\n      jump\t// in\n    tag_382:\n        /* \"#utility.yul\":19618:19620   */\n      0x20\n        /* \"#utility.yul\":19613:19616   */\n      dup3\n        /* \"#utility.yul\":19609:19621   */\n      add\n        /* \"#utility.yul\":19602:19621   */\n      swap1\n      pop\n        /* \"#utility.yul\":19261:19627   */\n      swap2\n      swap1\n      pop\n      jump\t// out\n        /* \"#utility.yul\":19633:20052   */\n    tag_106:\n        /* \"#utility.yul\":19799:19803   */\n      0x00\n        /* \"#utility.yul\":19837:19839   */\n      0x20\n        /* \"#utility.yul\":19826:19835   */\n      dup3\n        /* \"#utility.yul\":19822:19840   */\n      add\n        /* \"#utility.yul\":19814:19840   */\n      swap1\n      pop\n        /* \"#utility.yul\":19886:19895   */\n      dup2\n        /* \"#utility.yul\":19880:19884   */\n      dup2\n        /* \"#utility.yul\":19876:19896   */\n      sub\n        /* \"#utility.yul\":19872:19873   */\n      0x00\n        /* \"#utility.yul\":19861:19870   */\n      dup4\n        /* \"#utility.yul\":19857:19874   */\n      add\n        /* \"#utility.yul\":19850:19897   */\n      mstore\n        /* \"#utility.yul\":19914:20045   */\n      tag_384\n        /* \"#utility.yul\":20040:20044   */\n      dup2\n        /* \"#utility.yul\":19914:20045   */\n      tag_197\n      jump\t// in\n    tag_384:\n        /* \"#utility.yul\":19906:20045   */\n      swap1\n      pop\n        /* \"#utility.yul\":19633:20052   */\n      swap2\n      swap1\n      pop\n      jump\t// out\n        /* \"#utility.yul\":20058:20199   */\n    tag_198:\n        /* \"#utility.yul\":20107:20111   */\n      0x00\n        /* \"#utility.yul\":20130:20133   */\n      dup2\n        /* \"#utility.yul\":20122:20133   */\n      swap1\n      pop\n        /* \"#utility.yul\":20153:20156   */\n      dup2\n        /* \"#utility.yul\":20150:20151   */\n      0x00\n        /* \"#utility.yul\":20143:20157   */\n      mstore\n        /* \"#utility.yul\":20187:20191   */\n      0x20\n        /* \"#utility.yul\":20184:20185   */\n      0x00\n        /* \"#utility.yul\":20174:20192   */\n      keccak256\n        /* \"#utility.yul\":20166:20192   */\n      swap1\n      pop\n        /* \"#utility.yul\":20058:20199   */\n      swap2\n      swap1\n      pop\n      jump\t// out\n        /* \"#utility.yul\":20205:20298   */\n    tag_199:\n        /* \"#utility.yul\":20242:20248   */\n      0x00\n        /* \"#utility.yul\":20289:20291   */\n      0x20\n        /* \"#utility.yul\":20284:20286   */\n      0x1f\n        /* \"#utility.yul\":20277:20282   */\n      dup4\n        /* \"#utility.yul\":20273:20287   */\n      add\n        /* \"#utility.yul\":20269:20292   */\n      div\n        /* \"#utility.yul\":20259:20292   */\n      swap1\n      pop\n        /* \"#utility.yul\":20205:20298   */\n      swap2\n      swap1\n      pop\n      jump\t// out\n        /* \"#utility.yul\":20304:20411   */\n    tag_200:\n        /* \"#utility.yul\":20348:20356   */\n      0x00\n        /* \"#utility.yul\":20398:20403   */\n      dup3\n        /* \"#utility.yul\":20392:20396   */\n      dup3\n        /* \"#utility.yul\":20388:20404   */\n      shl\n        /* \"#utility.yul\":20367:20404   */\n      swap1\n      pop\n        /* \"#utility.yul\":20304:20411   */\n      swap3\n      swap2\n      pop\n      pop\n      jump\t// out\n        /* \"#utility.yul\":20417:20810   */\n    tag_201:\n        /* \"#utility.yul\":20486:20492   */\n      0x00\n        /* \"#utility.yul\":20536:20537   */\n      0x08\n        /* \"#utility.yul\":20524:20534   */\n      dup4\n        /* \"#utility.yul\":20520:20538   */\n      mul\n        /* \"#utility.yul\":20559:20656   */\n      tag_389\n        /* \"#utility.yul\":20589:20655   */\n      0xffffffffffffffffffffffffffffffffffffffffffffffffffffffffffffffff\n        /* \"#utility.yul\":20578:20587   */\n      dup3\n        /* \"#utility.yul\":20559:20656   */\n      tag_200\n      jump\t// in\n    tag_389:\n        /* \"#utility.yul\":20677:20716   */\n      tag_390\n        /* \"#utility.yul\":20707:20715   */\n      dup7\n        /* \"#utility.yul\":20696:20705   */\n      dup4\n        /* \"#utility.yul\":20677:20716   */\n      tag_200\n      jump\t// in\n    tag_390:\n        /* \"#utility.yul\":20665:20716   */\n      swap6\n      pop\n        /* \"#utility.yul\":20749:20753   */\n      dup1\n        /* \"#utility.yul\":20745:20754   */\n      not\n        /* \"#utility.yul\":20738:20743   */\n      dup5\n        /* \"#utility.yul\":20734:20755   */\n      and\n        /* \"#utility.yul\":20725:20755   */\n      swap4\n      pop\n        /* \"#utility.yul\":20798:20802   */\n      dup1\n        /* \"#utility.yul\":20788:20796   */\n      dup7\n        /* \"#utility.yul\":20784:20803   */\n      and\n        /* \"#utility.yul\":20777:20782   */\n      dup5\n        /* \"#utility.yul\":20774:20804   */\n      or\n        /* \"#utility.yul\":20764:20804   */\n      swap3\n      pop\n        /* \"#utility.yul\":20493:20810   */\n      pop\n      pop\n        /* \"#utility.yul\":20417:20810   */\n      swap4\n      swap3\n      pop\n      pop\n      pop\n      jump\t// out\n        /* \"#utility.yul\":20816:20876   */\n    tag_202:\n        /* \"#utility.yul\":20844:20847   */\n      0x00\n        /* \"#utility.yul\":20865:20870   */\n      dup2\n        /* \"#utility.yul\":20858:20870   */\n      swap1\n      pop\n        /* \"#utility.yul\":20816:20876   */\n      swap2\n      swap1\n      pop\n      jump\t// out\n        /* \"#utility.yul\":20882:21024   */\n    tag_203:\n        /* \"#utility.yul\":20932:20941   */\n      0x00\n        /* \"#utility.yul\":20965:21018   */\n      tag_393\n        /* \"#utility.yul\":20983:21017   */\n      tag_394\n        /* \"#utility.yul\":20992:21016   */\n      tag_395\n        /* \"#utility.yul\":21010:21015   */\n      dup5\n        /* \"#utility.yul\":20992:21016   */\n      tag_171\n      jump\t// in\n    tag_395:\n        /* \"#utility.yul\":20983:21017   */\n      tag_202\n      jump\t// in\n    tag_394:\n        /* \"#utility.yul\":20965:21018   */\n      tag_171\n      jump\t// in\n    tag_393:\n        /* \"#utility.yul\":20952:21018   */\n      swap1\n      pop\n        /* \"#utility.yul\":20882:21024   */\n      swap2\n      swap1\n      pop\n      jump\t// out\n        /* \"#utility.yul\":21030:21105   */\n    tag_204:\n        /* \"#utility.yul\":21073:21076   */\n      0x00\n        /* \"#utility.yul\":21094:21099   */\n      dup2\n        /* \"#utility.yul\":21087:21099   */\n      swap1\n      pop\n        /* \"#utility.yul\":21030:21105   */\n      swap2\n      swap1\n      pop\n      jump\t// out\n        /* \"#utility.yul\":21111:21380   */\n    tag_205:\n        /* \"#utility.yul\":21221:21260   */\n      tag_398\n        /* \"#utility.yul\":21252:21259   */\n      dup4\n        /* \"#utility.yul\":21221:21260   */\n      tag_203\n      jump\t// in\n    tag_398:\n        /* \"#utility.yul\":21282:21373   */\n      tag_399\n        /* \"#utility.yul\":21331:21372   */\n      tag_400\n        /* \"#utility.yul\":21355:21371   */\n      dup3\n        /* \"#utility.yul\":21331:21372   */\n      tag_204\n      jump\t// in\n    tag_400:\n        /* \"#utility.yul\":21323:21329   */\n      dup5\n        /* \"#utility.yul\":21316:21320   */\n      dup5\n        /* \"#utility.yul\":21310:21321   */\n      sload\n        /* \"#utility.yul\":21282:21373   */\n      tag_201\n      jump\t// in\n    tag_399:\n        /* \"#utility.yul\":21276:21280   */\n      dup3\n        /* \"#utility.yul\":21269:21374   */\n      sstore\n        /* \"#utility.yul\":21187:21380   */\n      pop\n        /* \"#utility.yul\":21111:21380   */\n      pop\n      pop\n      pop\n      jump\t// out\n        /* \"#utility.yul\":21386:21459   */\n    tag_206:\n        /* \"#utility.yul\":21431:21434   */\n      0x00\n        /* \"#utility.yul\":21452:21453   */\n      0x00\n        /* \"#utility.yul\":21445:21453   */\n      swap1\n      pop\n        /* \"#utility.yul\":21386:21459   */\n      swap1\n      jump\t// out\n        /* \"#utility.yul\":21465:21654   */\n    tag_207:\n        /* \"#utility.yul\":21542:21574   */\n      tag_403\n      tag_206\n      jump\t// in\n    tag_403:\n        /* \"#utility.yul\":21583:21648   */\n      tag_404\n        /* \"#utility.yul\":21641:21647   */\n      dup2\n        /* \"#utility.yul\":21633:21639   */\n      dup5\n        /* \"#utility.yul\":21627:21631   */\n      dup5\n        /* \"#utility.yul\":21583:21648   */\n      tag_205\n      jump\t// in\n    tag_404:\n        /* \"#utility.yul\":21518:21654   */\n      pop\n        /* \"#utility.yul\":21465:21654   */\n      pop\n      pop\n      jump\t// out\n        /* \"#utility.yul\":21660:21846   */\n    tag_208:\n        /* \"#utility.yul\":21720:21840   */\n    tag_406:\n        /* \"#utility.yul\":21737:21740   */\n      dup2\n        /* \"#utility.yul\":21730:21735   */\n      dup2\n        /* \"#utility.yul\":21727:21741   */\n      lt\n        /* \"#utility.yul\":21720:21840   */\n      iszero\n      tag_408\n      jumpi\n        /* \"#utility.yul\":21791:21830   */\n      tag_409\n        /* \"#utility.yul\":21828:21829   */\n      0x00\n        /* \"#utility.yul\":21821:21826   */\n      dup3\n        /* \"#utility.yul\":21791:21830   */\n      tag_207\n      jump\t// in\n    tag_409:\n        /* \"#utility.yul\":21764:21765   */\n      0x01\n        /* \"#utility.yul\":21757:21762   */\n      dup2\n        /* \"#utility.yul\":21753:21766   */\n      add\n        /* \"#utility.yul\":21744:21766   */\n      swap1\n      pop\n        /* \"#utility.yul\":21720:21840   */\n      jump(tag_406)\n    tag_408:\n        /* \"#utility.yul\":21660:21846   */\n      pop\n      pop\n      jump\t// out\n        /* \"#utility.yul\":21852:22395   */\n    tag_209:\n        /* \"#utility.yul\":21953:21955   */\n      0x1f\n        /* \"#utility.yul\":21948:21951   */\n      dup3\n        /* \"#utility.yul\":21945:21956   */\n      gt\n        /* \"#utility.yul\":21942:22388   */\n      iszero\n      tag_411\n      jumpi\n        /* \"#utility.yul\":21987:22025   */\n      tag_412\n        /* \"#utility.yul\":22019:22024   */\n      dup2\n        /* \"#utility.yul\":21987:22025   */\n      tag_198\n      jump\t// in\n    tag_412:\n        /* \"#utility.yul\":22071:22100   */\n      tag_413\n        /* \"#utility.yul\":22089:22099   */\n      dup5\n        /* \"#utility.yul\":22071:22100   */\n      tag_199\n      jump\t// in\n    tag_413:\n        /* \"#utility.yul\":22061:22069   */\n      dup2\n        /* \"#utility.yul\":22057:22101   */\n      add\n        /* \"#utility.yul\":22254:22256   */\n      0x20\n        /* \"#utility.yul\":22242:22252   */\n      dup6\n        /* \"#utility.yul\":22239:22257   */\n      lt\n        /* \"#utility.yul\":22236:22285   */\n      iszero\n      tag_414\n      jumpi\n        /* \"#utility.yul\":22275:22283   */\n      dup2\n        /* \"#utility.yul\":22260:22283   */\n      swap1\n      pop\n        /* \"#utility.yul\":22236:22285   */\n    tag_414:\n        /* \"#utility.yul\":22298:22378   */\n      tag_415\n        /* \"#utility.yul\":22354:22376   */\n      tag_416\n        /* \"#utility.yul\":22372:22375   */\n      dup6\n        /* \"#utility.yul\":22354:22376   */\n      tag_199\n      jump\t// in\n    tag_416:\n        /* \"#utility.yul\":22344:22352   */\n      dup4\n        /* \"#utility.yul\":22340:22377   */\n      add\n        /* \"#utility.yul\":22327:22338   */\n      dup3\n        /* \"#utility.yul\":22298:22378   */\n      tag_208\n      jump\t// in\n    tag_415:\n        /* \"#utility.yul\":21957:22388   */\n      pop\n      pop\n        /* \"#utility.yul\":21942:22388   */\n    tag_411:\n        /* \"#utility.yul\":21852:22395   */\n      pop\n      pop\n      pop\n      jump\t// out\n        /* \"#utility.yul\":22401:22518   */\n    tag_210:\n        /* \"#utility.yul\":22455:22463   */\n      0x00\n        /* \"#utility.yul\":22505:22510   */\n      dup3\n        /* \"#utility.yul\":22499:22503   */\n      dup3\n        /* \"#utility.yul\":22495:22511   */\n      shr\n        /* \"#utility.yul\":22474:22511   */\n      swap1\n      pop\n        /* \"#utility.yul\":22401:22518   */\n      swap3\n      swap2\n      pop\n      pop\n      jump\t// out\n        /* \"#utility.yul\":22524:22693   */\n    tag_211:\n        /* \"#utility.yul\":22568:22574   */\n      0x00\n        /* \"#utility.yul\":22601:22652   */\n      tag_419\n        /* \"#utility.yul\":22649:22650   */\n      0x00\n        /* \"#utility.yul\":22645:22651   */\n      not\n        /* \"#utility.yul\":22637:22642   */\n      dup5\n        /* \"#utility.yul\":22634:22635   */\n      0x08\n        /* \"#utility.yul\":22630:22643   */\n      mul\n        /* \"#utility.yul\":22601:22652   */\n      tag_210\n      jump\t// in\n    tag_419:\n        /* \"#utility.yul\":22597:22653   */\n      not\n        /* \"#utility.yul\":22682:22686   */\n      dup1\n        /* \"#utility.yul\":22676:22680   */\n      dup4\n        /* \"#utility.yul\":22672:22687   */\n      and\n        /* \"#utility.yul\":22662:22687   */\n      swap2\n      pop\n        /* \"#utility.yul\":22575:22693   */\n      pop\n        /* \"#utility.yul\":22524:22693   */\n      swap3\n      swap2\n      pop\n      pop\n      jump\t// out\n        /* \"#utility.yul\":22698:22993   */\n    tag_212:\n        /* \"#utility.yul\":22774:22778   */\n      0x00\n        /* \"#utility.yul\":22920:22949   */\n      tag_421\n        /* \"#utility.yul\":22945:22948   */\n      dup4\n        /* \"#utility.yul\":22939:22943   */\n      dup4\n        /* \"#utility.yul\":22920:22949   */\n      tag_211\n      jump\t// in\n    tag_421:\n        /* \"#utility.yul\":22912:22949   */\n      swap2\n      pop\n        /* \"#utility.yul\":22982:22985   */\n      dup3\n        /* \"#utility.yul\":22979:22980   */\n      0x02\n        /* \"#utility.yul\":22975:22986   */\n      mul\n        /* \"#utility.yul\":22969:22973   */\n      dup3\n        /* \"#utility.yul\":22966:22987   */\n      or\n        /* \"#utility.yul\":22958:22987   */\n      swap1\n      pop\n        /* \"#utility.yul\":22698:22993   */\n      swap3\n      swap2\n      pop\n      pop\n      jump\t// out\n        /* \"#utility.yul\":22998:24393   */\n    tag_109:\n        /* \"#utility.yul\":23115:23152   */\n      tag_423\n        /* \"#utility.yul\":23148:23151   */\n      dup3\n        /* \"#utility.yul\":23115:23152   */\n      tag_167\n      jump\t// in\n    tag_423:\n        /* \"#utility.yul\":23217:23235   */\n      0xffffffffffffffff\n        /* \"#utility.yul\":23209:23215   */\n      dup2\n        /* \"#utility.yul\":23206:23236   */\n      gt\n        /* \"#utility.yul\":23203:23259   */\n      iszero\n      tag_424\n      jumpi\n        /* \"#utility.yul\":23239:23257   */\n      tag_425\n      tag_66\n      jump\t// in\n    tag_425:\n        /* \"#utility.yul\":23203:23259   */\n    tag_424:\n        /* \"#utility.yul\":23283:23321   */\n      tag_426\n        /* \"#utility.yul\":23315:23319   */\n      dup3\n        /* \"#utility.yul\":23309:23320   */\n      sload\n        /* \"#utility.yul\":23283:23321   */\n      tag_59\n      jump\t// in\n    tag_426:\n        /* \"#utility.yul\":23368:23435   */\n      tag_427\n        /* \"#utility.yul\":23428:23434   */\n      dup3\n        /* \"#utility.yul\":23420:23426   */\n      dup3\n        /* \"#utility.yul\":23414:23418   */\n      dup6\n        /* \"#utility.yul\":23368:23435   */\n      tag_209\n      jump\t// in\n    tag_427:\n        /* \"#utility.yul\":23462:23463   */\n      0x00\n        /* \"#utility.yul\":23486:23490   */\n      0x20\n        /* \"#utility.yul\":23473:23490   */\n      swap1\n      pop\n        /* \"#utility.yul\":23518:23520   */\n      0x1f\n        /* \"#utility.yul\":23510:23516   */\n      dup4\n        /* \"#utility.yul\":23507:23521   */\n      gt\n        /* \"#utility.yul\":23535:23536   */\n      0x01\n        /* \"#utility.yul\":23530:24148   */\n      dup2\n      eq\n      tag_429\n      jumpi\n        /* \"#utility.yul\":24192:24193   */\n      0x00\n        /* \"#utility.yul\":24209:24215   */\n      dup5\n        /* \"#utility.yul\":24206:24283   */\n      iszero\n      tag_430\n      jumpi\n        /* \"#utility.yul\":24258:24267   */\n      dup3\n        /* \"#utility.yul\":24253:24256   */\n      dup8\n        /* \"#utility.yul\":24249:24268   */\n      add\n        /* \"#utility.yul\":24243:24269   */\n      mload\n        /* \"#utility.yul\":24234:24269   */\n      swap1\n      pop\n        /* \"#utility.yul\":24206:24283   */\n    tag_430:\n        /* \"#utility.yul\":24309:24376   */\n      tag_431\n        /* \"#utility.yul\":24369:24375   */\n      dup6\n        /* \"#utility.yul\":24362:24367   */\n      dup3\n        /* \"#utility.yul\":24309:24376   */\n      tag_212\n      jump\t// in\n    tag_431:\n        /* \"#utility.yul\":24303:24307   */\n      dup7\n        /* \"#utility.yul\":24296:24377   */\n      sstore\n        /* \"#utility.yul\":24165:24387   */\n      pop\n        /* \"#utility.yul\":23500:24387   */\n      jump(tag_428)\n        /* \"#utility.yul\":23530:24148   */\n    tag_429:\n        /* \"#utility.yul\":23582:23586   */\n      0x1f\n        /* \"#utility.yul\":23578:23587   */\n      not\n        /* \"#utility.yul\":23570:23576   */\n      dup5\n        /* \"#utility.yul\":23566:23588   */\n      and\n        /* \"#utility.yul\":23616:23653   */\n      tag_432\n        /* \"#utility.yul\":23648:23652   */\n      dup7\n        /* \"#utility.yul\":23616:23653   */\n      tag_198\n      jump\t// in\n    tag_432:\n        /* \"#utility.yul\":23675:23676   */\n      0x00\n        /* \"#utility.yul\":23689:23897   */\n    tag_433:\n        /* \"#utility.yul\":23703:23710   */\n      dup3\n        /* \"#utility.yul\":23700:23701   */\n      dup2\n        /* \"#utility.yul\":23697:23711   */\n      lt\n        /* \"#utility.yul\":23689:23897   */\n      iszero\n      tag_435\n      jumpi\n        /* \"#utility.yul\":23782:23791   */\n      dup5\n        /* \"#utility.yul\":23777:23780   */\n      dup10\n        /* \"#utility.yul\":23773:23792   */\n      add\n        /* \"#utility.yul\":23767:23793   */\n      mload\n        /* \"#utility.yul\":23759:23765   */\n      dup3\n        /* \"#utility.yul\":23752:23794   */\n      sstore\n        /* \"#utility.yul\":23833:23834   */\n      0x01\n        /* \"#utility.yul\":23825:23831   */\n      dup3\n        /* \"#utility.yul\":23821:23835   */\n      add\n        /* \"#utility.yul\":23811:23835   */\n      swap2\n      pop\n        /* \"#utility.yul\":23880:23882   */\n      0x20\n        /* \"#utility.yul\":23869:23878   */\n      dup6\n        /* \"#utility.yul\":23865:23883   */\n      add\n        /* \"#utility.yul\":23852:23883   */\n      swap5\n      pop\n        /* \"#utility.yul\":23726:23730   */\n      0x20\n        /* \"#utility.yul\":23723:23724   */\n      dup2\n        /* \"#utility.yul\":23719:23731   */\n      add\n        /* \"#utility.yul\":23714:23731   */\n      swap1\n      pop\n        /* \"#utility.yul\":23689:23897   */\n      jump(tag_433)\n    tag_435:\n        /* \"#utility.yul\":23925:23931   */\n      dup7\n        /* \"#utility.yul\":23916:23923   */\n      dup4\n        /* \"#utility.yul\":23913:23932   */\n      lt\n        /* \"#utility.yul\":23910:24089   */\n      iszero\n      tag_436\n      jumpi\n        /* \"#utility.yul\":23983:23992   */\n      dup5\n        /* \"#utility.yul\":23978:23981   */\n      dup10\n        /* \"#utility.yul\":23974:23993   */\n      add\n        /* \"#utility.yul\":23968:23994   */\n      mload\n        /* \"#utility.yul\":24026:24074   */\n      tag_437\n        /* \"#utility.yul\":24068:24072   */\n      0x1f\n        /* \"#utility.yul\":24060:24066   */\n      dup10\n        /* \"#utility.yul\":24056:24073   */\n      and\n        /* \"#utility.yul\":24045:24054   */\n      dup3\n        /* \"#utility.yul\":24026:24074   */\n      tag_211\n      jump\t// in\n    tag_437:\n        /* \"#utility.yul\":24018:24024   */\n      dup4\n        /* \"#utility.yul\":24011:24075   */\n      sstore\n        /* \"#utility.yul\":23933:24089   */\n      pop\n        /* \"#utility.yul\":23910:24089   */\n    tag_436:\n        /* \"#utility.yul\":24135:24136   */\n      0x01\n        /* \"#utility.yul\":24131:24132   */\n      0x02\n        /* \"#utility.yul\":24123:24129   */\n      dup9\n        /* \"#utility.yul\":24119:24133   */\n      mul\n        /* \"#utility.yul\":24115:24137   */\n      add\n        /* \"#utility.yul\":24109:24113   */\n      dup9\n        /* \"#utility.yul\":24102:24138   */\n      sstore\n        /* \"#utility.yul\":23537:24148   */\n      pop\n      pop\n      pop\n        /* \"#utility.yul\":23500:24387   */\n    tag_428:\n      pop\n        /* \"#utility.yul\":23090:24393   */\n      pop\n      pop\n      pop\n        /* \"#utility.yul\":22998:24393   */\n      pop\n      pop\n      jump\t// out\n        /* \"#utility.yul\":24399:25316   */\n    tag_115:\n        /* \"#utility.yul\":24656:24660   */\n      0x00\n        /* \"#utility.yul\":24694:24697   */\n      0x80\n        /* \"#utility.yul\":24683:24692   */\n      dup3\n        /* \"#utility.yul\":24679:24698   */\n      add\n        /* \"#utility.yul\":24671:24698   */\n      swap1\n      pop\n        /* \"#utility.yul\":24744:24753   */\n      dup2\n        /* \"#utility.yul\":24738:24742   */\n      dup2\n        /* \"#utility.yul\":24734:24754   */\n      sub\n        /* \"#utility.yul\":24730:24731   */\n      0x00\n        /* \"#utility.yul\":24719:24728   */\n      dup4\n        /* \"#utility.yul\":24715:24732   */\n      add\n        /* \"#utility.yul\":24708:24755   */\n      mstore\n        /* \"#utility.yul\":24772:24850   */\n      tag_439\n        /* \"#utility.yul\":24845:24849   */\n      dup2\n        /* \"#utility.yul\":24836:24842   */\n      dup8\n        /* \"#utility.yul\":24772:24850   */\n      tag_184\n      jump\t// in\n    tag_439:\n        /* \"#utility.yul\":24764:24850   */\n      swap1\n      pop\n        /* \"#utility.yul\":24897:24906   */\n      dup2\n        /* \"#utility.yul\":24891:24895   */\n      dup2\n        /* \"#utility.yul\":24887:24907   */\n      sub\n        /* \"#utility.yul\":24882:24884   */\n      0x20\n        /* \"#utility.yul\":24871:24880   */\n      dup4\n        /* \"#utility.yul\":24867:24885   */\n      add\n        /* \"#utility.yul\":24860:24908   */\n      mstore\n        /* \"#utility.yul\":24925:25003   */\n      tag_440\n        /* \"#utility.yul\":24998:25002   */\n      dup2\n        /* \"#utility.yul\":24989:24995   */\n      dup7\n        /* \"#utility.yul\":24925:25003   */\n      tag_184\n      jump\t// in\n    tag_440:\n        /* \"#utility.yul\":24917:25003   */\n      swap1\n      pop\n        /* \"#utility.yul\":25050:25059   */\n      dup2\n        /* \"#utility.yul\":25044:25048   */\n      dup2\n        /* \"#utility.yul\":25040:25060   */\n      sub\n        /* \"#utility.yul\":25035:25037   */\n      0x40\n        /* \"#utility.yul\":25024:25033   */\n      dup4\n        /* \"#utility.yul\":25020:25038   */\n      add\n        /* \"#utility.yul\":25013:25061   */\n      mstore\n        /* \"#utility.yul\":25078:25156   */\n      tag_441\n        /* \"#utility.yul\":25151:25155   */\n      dup2\n        /* \"#utility.yul\":25142:25148   */\n      dup6\n        /* \"#utility.yul\":25078:25156   */\n      tag_184\n      jump\t// in\n    tag_441:\n        /* \"#utility.yul\":25070:25156   */\n      swap1\n      pop\n        /* \"#utility.yul\":25203:25212   */\n      dup2\n        /* \"#utility.yul\":25197:25201   */\n      dup2\n        /* \"#utility.yul\":25193:25213   */\n      sub\n        /* \"#utility.yul\":25188:25190   */\n      0x60\n        /* \"#utility.yul\":25177:25186   */\n      dup4\n        /* \"#utility.yul\":25173:25191   */\n      add\n        /* \"#utility.yul\":25166:25214   */\n      mstore\n        /* \"#utility.yul\":25231:25309   */\n      tag_442\n        /* \"#utility.yul\":25304:25308   */\n      dup2\n        /* \"#utility.yul\":25295:25301   */\n      dup5\n        /* \"#utility.yul\":25231:25309   */\n      tag_184\n      jump\t// in\n    tag_442:\n        /* \"#utility.yul\":25223:25309   */\n      swap1\n      pop\n        /* \"#utility.yul\":24399:25316   */\n      swap6\n      swap5\n      pop\n      pop\n      pop\n      pop\n      pop\n      jump\t// out\n\n    auxdata: 0xa26469706673582212207a465367eccac97d49d81df1da0a9869ef3928e7308a710d83ab91c0a93c2c7f64736f6c634300081e0033\n}\n",
				"bytecode": {
					"linkReferences": {},
					"object": "6080604052348015600e575f5ffd5b50335f5f6101000a81548173ffffffffffffffffffffffffffffffffffffffff021916908373ffffffffffffffffffffffffffffffffffffffff160217905550611aef8061005b5f395ff3fe608060405234801561000f575f5ffd5b506004361061007b575f3560e01c8063707706921161005957806370770692146100e95780638da5cb5b14610105578063ae91322a14610123578063d0e3fb61146101535761007b565b80631660dc6f1461007f578063180d7ef91461009b578063681c3a49146100b9575b5f5ffd5b61009960048036038101906100949190611016565b610188565b005b6100a36102eb565b6040516100b0919061127d565b60405180910390f35b6100d360048036038101906100ce91906112f1565b6106fd565b6040516100e09190611377565b60405180910390f35b61010360048036038101906100fe9190611397565b6107ae565b005b61010d6109ed565b60405161011a919061147a565b60405180910390f35b61013d60048036038101906101389190611016565b610a11565b60405161014a9190611527565b60405180910390f35b61016d60048036038101906101689190611016565b610c71565b60405161017f96959493929190611565565b60405180910390f35b5f5f9054906101000a900473ffffffffffffffffffffffffffffffffffffffff1673ffffffffffffffffffffffffffffffffffffffff163373ffffffffffffffffffffffffffffffffffffffff1614610216576040517f08c379a000000000000000000000000000000000000000000000000000000000815260040161020d90611623565b60405180910390fd5b5f600182604051610227919061167b565b90815260200160405180910390206004015403610279576040517f08c379a0000000000000000000000000000000000000000000000000000000008152600401610270906116db565b60405180910390fd5b6001808260405161028a919061167b565b90815260200160405180910390206005015f6101000a81548160ff0219169083151502179055507f3f3cfdb26fb5f9f1786ab4f1a1f9cd4c0b5e726cbdfc26e495261731aad44e39816040516102e09190611377565b60405180910390a150565b60605f60025f3373ffffffffffffffffffffffffffffffffffffffff1673ffffffffffffffffffffffffffffffffffffffff1681526020019081526020015f20805480602002602001604051908101604052809291908181526020015f905b828210156103f2578382905f5260205f2001805461036790611726565b80601f016020809104026020016040519081016040528092919081815260200182805461039390611726565b80156103de5780601f106103b5576101008083540402835291602001916103de565b820191905f5260205f20905b8154815290600101906020018083116103c157829003601f168201915b50505050508152602001906001019061034a565b5050505090505f815167ffffffffffffffff81111561041457610413610ef2565b5b60405190808252806020026020018201604052801561044d57816020015b61043a610e7e565b8152602001906001900390816104325790505b5090505f5f90505b82518110156106f457600183828151811061047357610472611756565b5b6020026020010151604051610488919061167b565b90815260200160405180910390206040518060c00160405290815f82015f9054906101000a900473ffffffffffffffffffffffffffffffffffffffff1673ffffffffffffffffffffffffffffffffffffffff1673ffffffffffffffffffffffffffffffffffffffff16815260200160018201805461050590611726565b80601f016020809104026020016040519081016040528092919081815260200182805461053190611726565b801561057c5780601f106105535761010080835404028352916020019161057c565b820191905f5260205f20905b81548152906001019060200180831161055f57829003601f168201915b5050505050815260200160028201805461059590611726565b80601f01602080910402602001604051908101604052809291908181526020018280546105c190611726565b801561060c5780601f106105e35761010080835404028352916020019161060c565b820191905f5260205f20905b8154815290600101906020018083116105ef57829003601f168201915b5050505050815260200160038201805461062590611726565b80601f016020809104026020016040519081016040528092919081815260200182805461065190611726565b801561069c5780601f106106735761010080835404028352916020019161069c565b820191905f5260205f20905b81548152906001019060200180831161067f57829003601f168201915b5050505050815260200160048201548152602001600582015f9054906101000a900460ff1615151515815250508282815181106106dc576106db611756565b5b60200260200101819052508080600101915050610455565b50809250505090565b6002602052815f5260405f208181548110610716575f80fd5b905f5260205f20015f9150915050805461072f90611726565b80601f016020809104026020016040519081016040528092919081815260200182805461075b90611726565b80156107a65780601f1061077d576101008083540402835291602001916107a6565b820191905f5260205f20905b81548152906001019060200180831161078957829003601f168201915b505050505081565b5f6001856040516107bf919061167b565b90815260200160405180910390206004015414610811576040517f08c379a0000000000000000000000000000000000000000000000000000000008152600401610808906117cd565b60405180910390fd5b6040518060c001604052803373ffffffffffffffffffffffffffffffffffffffff1681526020018481526020018381526020018281526020014281526020015f1515815250600185604051610866919061167b565b90815260200160405180910390205f820151815f015f6101000a81548173ffffffffffffffffffffffffffffffffffffffff021916908373ffffffffffffffffffffffffffffffffffffffff16021790555060208201518160010190816108cd919061198b565b5060408201518160020190816108e3919061198b565b5060608201518160030190816108f9919061198b565b506080820151816004015560a0820151816005015f6101000a81548160ff02191690831515021790555090505060025f3373ffffffffffffffffffffffffffffffffffffffff1673ffffffffffffffffffffffffffffffffffffffff1681526020019081526020015f2084908060018154018082558091505060019003905f5260205f20015f909190919091509081610992919061198b565b503373ffffffffffffffffffffffffffffffffffffffff167f4d9e665df13a65676307a38bb1b6b96c79ca9bbe90d3c2a80b79c52428b051c4858585856040516109df9493929190611a5a565b60405180910390a250505050565b5f5f9054906101000a900473ffffffffffffffffffffffffffffffffffffffff1681565b610a19610e7e565b600182604051610a29919061167b565b90815260200160405180910390206040518060c00160405290815f82015f9054906101000a900473ffffffffffffffffffffffffffffffffffffffff1673ffffffffffffffffffffffffffffffffffffffff1673ffffffffffffffffffffffffffffffffffffffff168152602001600182018054610aa690611726565b80601f0160208091040260200160405190810160405280929190818152602001828054610ad290611726565b8015610b1d5780601f10610af457610100808354040283529160200191610b1d565b820191905f5260205f20905b815481529060010190602001808311610b0057829003601f168201915b50505050508152602001600282018054610b3690611726565b80601f0160208091040260200160405190810160405280929190818152602001828054610b6290611726565b8015610bad5780601f10610b8457610100808354040283529160200191610bad565b820191905f5260205f20905b815481529060010190602001808311610b9057829003601f168201915b50505050508152602001600382018054610bc690611726565b80601f0160208091040260200160405190810160405280929190818152602001828054610bf290611726565b8015610c3d5780601f10610c1457610100808354040283529160200191610c3d565b820191905f5260205f20905b815481529060010190602001808311610c2057829003601f168201915b5050505050815260200160048201548152602001600582015f9054906101000a900460ff1615151515815250509050919050565b6001818051602081018201805184825260208301602085012081835280955050505050505f91509050805f015f9054906101000a900473ffffffffffffffffffffffffffffffffffffffff1690806001018054610ccd90611726565b80601f0160208091040260200160405190810160405280929190818152602001828054610cf990611726565b8015610d445780601f10610d1b57610100808354040283529160200191610d44565b820191905f5260205f20905b815481529060010190602001808311610d2757829003601f168201915b505050505090806002018054610d5990611726565b80601f0160208091040260200160405190810160405280929190818152602001828054610d8590611726565b8015610dd05780601f10610da757610100808354040283529160200191610dd0565b820191905f5260205f20905b815481529060010190602001808311610db357829003601f168201915b505050505090806003018054610de590611726565b80601f0160208091040260200160405190810160405280929190818152602001828054610e1190611726565b8015610e5c5780601f10610e3357610100808354040283529160200191610e5c565b820191905f5260205f20905b815481529060010190602001808311610e3f57829003601f168201915b505050505090806004015490806005015f9054906101000a900460ff16905086565b6040518060c001604052805f73ffffffffffffffffffffffffffffffffffffffff1681526020016060815260200160608152602001606081526020015f81526020015f151581525090565b5f604051905090565b5f5ffd5b5f5ffd5b5f5ffd5b5f5ffd5b5f601f19601f8301169050919050565b7f4e487b71000000000000000000000000000000000000000000000000000000005f52604160045260245ffd5b610f2882610ee2565b810181811067ffffffffffffffff82111715610f4757610f46610ef2565b5b80604052505050565b5f610f59610ec9565b9050610f658282610f1f565b919050565b5f67ffffffffffffffff821115610f8457610f83610ef2565b5b610f8d82610ee2565b9050602081019050919050565b828183375f83830152505050565b5f610fba610fb584610f6a565b610f50565b905082815260208101848484011115610fd657610fd5610ede565b5b610fe1848285610f9a565b509392505050565b5f82601f830112610ffd57610ffc610eda565b5b813561100d848260208601610fa8565b91505092915050565b5f6020828403121561102b5761102a610ed2565b5b5f82013567ffffffffffffffff81111561104857611047610ed6565b5b61105484828501610fe9565b91505092915050565b5f81519050919050565b5f82825260208201905092915050565b5f819050602082019050919050565b5f73ffffffffffffffffffffffffffffffffffffffff82169050919050565b5f6110af82611086565b9050919050565b6110bf816110a5565b82525050565b5f81519050919050565b5f82825260208201905092915050565b8281835e5f83830152505050565b5f6110f7826110c5565b61110181856110cf565b93506111118185602086016110df565b61111a81610ee2565b840191505092915050565b5f819050919050565b61113781611125565b82525050565b5f8115159050919050565b6111518161113d565b82525050565b5f60c083015f83015161116c5f8601826110b6565b506020830151848203602086015261118482826110ed565b9150506040830151848203604086015261119e82826110ed565b915050606083015184820360608601526111b882826110ed565b91505060808301516111cd608086018261112e565b5060a08301516111e060a0860182611148565b508091505092915050565b5f6111f68383611157565b905092915050565b5f602082019050919050565b5f6112148261105d565b61121e8185611067565b93508360208202850161123085611077565b805f5b8581101561126b578484038952815161124c85826111eb565b9450611257836111fe565b925060208a01995050600181019050611233565b50829750879550505050505092915050565b5f6020820190508181035f830152611295818461120a565b905092915050565b6112a6816110a5565b81146112b0575f5ffd5b50565b5f813590506112c18161129d565b92915050565b6112d081611125565b81146112da575f5ffd5b50565b5f813590506112eb816112c7565b92915050565b5f5f6040838503121561130757611306610ed2565b5b5f611314858286016112b3565b9250506020611325858286016112dd565b9150509250929050565b5f82825260208201905092915050565b5f611349826110c5565b611353818561132f565b93506113638185602086016110df565b61136c81610ee2565b840191505092915050565b5f6020820190508181035f83015261138f818461133f565b905092915050565b5f5f5f5f608085870312156113af576113ae610ed2565b5b5f85013567ffffffffffffffff8111156113cc576113cb610ed6565b5b6113d887828801610fe9565b945050602085013567ffffffffffffffff8111156113f9576113f8610ed6565b5b61140587828801610fe9565b935050604085013567ffffffffffffffff81111561142657611425610ed6565b5b61143287828801610fe9565b925050606085013567ffffffffffffffff81111561145357611452610ed6565b5b61145f87828801610fe9565b91505092959194509250565b611474816110a5565b82525050565b5f60208201905061148d5f83018461146b565b92915050565b5f60c083015f8301516114a85f8601826110b6565b50602083015184820360208601526114c082826110ed565b915050604083015184820360408601526114da82826110ed565b915050606083015184820360608601526114f482826110ed565b9150506080830151611509608086018261112e565b5060a083015161151c60a0860182611148565b508091505092915050565b5f6020820190508181035f83015261153f8184611493565b905092915050565b61155081611125565b82525050565b61155f8161113d565b82525050565b5f60c0820190506115785f83018961146b565b818103602083015261158a818861133f565b9050818103604083015261159e818761133f565b905081810360608301526115b2818661133f565b90506115c16080830185611547565b6115ce60a0830184611556565b979650505050505050565b7f4f6e6c79206f776e65722063616e2076657269667920626f6f6b696e670000005f82015250565b5f61160d601d8361132f565b9150611618826115d9565b602082019050919050565b5f6020820190508181035f83015261163a81611601565b9050919050565b5f81905092915050565b5f611655826110c5565b61165f8185611641565b935061166f8185602086016110df565b80840191505092915050565b5f611686828461164b565b915081905092915050565b7f426f6f6b696e67206e6f7420666f756e640000000000000000000000000000005f82015250565b5f6116c560118361132f565b91506116d082611691565b602082019050919050565b5f6020820190508181035f8301526116f2816116b9565b9050919050565b7f4e487b71000000000000000000000000000000000000000000000000000000005f52602260045260245ffd5b5f600282049050600182168061173d57607f821691505b6020821081036117505761174f6116f9565b5b50919050565b7f4e487b71000000000000000000000000000000000000000000000000000000005f52603260045260245ffd5b7f426f6f6b696e6720494420616c726561647920657869737473000000000000005f82015250565b5f6117b760198361132f565b91506117c282611783565b602082019050919050565b5f6020820190508181035f8301526117e4816117ab565b9050919050565b5f819050815f5260205f209050919050565b5f6020601f8301049050919050565b5f82821b905092915050565b5f600883026118477fffffffffffffffffffffffffffffffffffffffffffffffffffffffffffffffff8261180c565b611851868361180c565b95508019841693508086168417925050509392505050565b5f819050919050565b5f61188c61188761188284611125565b611869565b611125565b9050919050565b5f819050919050565b6118a583611872565b6118b96118b182611893565b848454611818565b825550505050565b5f5f905090565b6118d06118c1565b6118db81848461189c565b505050565b5b818110156118fe576118f35f826118c8565b6001810190506118e1565b5050565b601f82111561194357611914816117eb565b61191d846117fd565b8101602085101561192c578190505b611940611938856117fd565b8301826118e0565b50505b505050565b5f82821c905092915050565b5f6119635f1984600802611948565b1980831691505092915050565b5f61197b8383611954565b9150826002028217905092915050565b611994826110c5565b67ffffffffffffffff8111156119ad576119ac610ef2565b5b6119b78254611726565b6119c2828285611902565b5f60209050601f8311600181146119f3575f84156119e1578287015190505b6119eb8582611970565b865550611a52565b601f198416611a01866117eb565b5f5b82811015611a2857848901518255600182019150602085019450602081019050611a03565b86831015611a455784890151611a41601f891682611954565b8355505b6001600288020188555050505b505050505050565b5f6080820190508181035f830152611a72818761133f565b90508181036020830152611a86818661133f565b90508181036040830152611a9a818561133f565b90508181036060830152611aae818461133f565b90509594505050505056fea26469706673582212207a465367eccac97d49d81df1da0a9869ef3928e7308a710d83ab91c0a93c2c7f64736f6c634300081e0033",
					"opcodes": "PUSH1 0x80 PUSH1 0x40 MSTORE CALLVALUE DUP1 ISZERO PUSH1 0xE JUMPI PUSH0 PUSH0 REVERT JUMPDEST POP CALLER PUSH0 PUSH0 PUSH2 0x100 EXP DUP2 SLOAD DUP2 PUSH20 0xFFFFFFFFFFFFFFFFFFFFFFFFFFFFFFFFFFFFFFFF MUL NOT AND SWAP1 DUP4 PUSH20 0xFFFFFFFFFFFFFFFFFFFFFFFFFFFFFFFFFFFFFFFF AND MUL OR SWAP1 SSTORE POP PUSH2 0x1AEF DUP1 PUSH2 0x5B PUSH0 CODECOPY PUSH0 RETURN INVALID PUSH1 0x80 PUSH1 0x40 MSTORE CALLVALUE DUP1 ISZERO PUSH2 0xF JUMPI PUSH0 PUSH0 REVERT JUMPDEST POP PUSH1 0x4 CALLDATASIZE LT PUSH2 0x7B JUMPI PUSH0 CALLDATALOAD PUSH1 0xE0 SHR DUP1 PUSH4 0x70770692 GT PUSH2 0x59 JUMPI DUP1 PUSH4 0x70770692 EQ PUSH2 0xE9 JUMPI DUP1 PUSH4 0x8DA5CB5B EQ PUSH2 0x105 JUMPI DUP1 PUSH4 0xAE91322A EQ PUSH2 0x123 JUMPI DUP1 PUSH4 0xD0E3FB61 EQ PUSH2 0x153 JUMPI PUSH2 0x7B JUMP JUMPDEST DUP1 PUSH4 0x1660DC6F EQ PUSH2 0x7F JUMPI DUP1 PUSH4 0x180D7EF9 EQ PUSH2 0x9B JUMPI DUP1 PUSH4 0x681C3A49 EQ PUSH2 0xB9 JUMPI JUMPDEST PUSH0 PUSH0 REVERT JUMPDEST PUSH2 0x99 PUSH1 0x4 DUP1 CALLDATASIZE SUB DUP2 ADD SWAP1 PUSH2 0x94 SWAP2 SWAP1 PUSH2 0x1016 JUMP JUMPDEST PUSH2 0x188 JUMP JUMPDEST STOP JUMPDEST PUSH2 0xA3 PUSH2 0x2EB JUMP JUMPDEST PUSH1 0x40 MLOAD PUSH2 0xB0 SWAP2 SWAP1 PUSH2 0x127D JUMP JUMPDEST PUSH1 0x40 MLOAD DUP1 SWAP2 SUB SWAP1 RETURN JUMPDEST PUSH2 0xD3 PUSH1 0x4 DUP1 CALLDATASIZE SUB DUP2 ADD SWAP1 PUSH2 0xCE SWAP2 SWAP1 PUSH2 0x12F1 JUMP JUMPDEST PUSH2 0x6FD JUMP JUMPDEST PUSH1 0x40 MLOAD PUSH2 0xE0 SWAP2 SWAP1 PUSH2 0x1377 JUMP JUMPDEST PUSH1 0x40 MLOAD DUP1 SWAP2 SUB SWAP1 RETURN JUMPDEST PUSH2 0x103 PUSH1 0x4 DUP1 CALLDATASIZE SUB DUP2 ADD SWAP1 PUSH2 0xFE SWAP2 SWAP1 PUSH2 0x1397 JUMP JUMPDEST PUSH2 0x7AE JUMP JUMPDEST STOP JUMPDEST PUSH2 0x10D PUSH2 0x9ED JUMP JUMPDEST PUSH1 0x40 MLOAD PUSH2 0x11A SWAP2 SWAP1 PUSH2 0x147A JUMP JUMPDEST PUSH1 0x40 MLOAD DUP1 SWAP2 SUB SWAP1 RETURN JUMPDEST PUSH2 0x13D PUSH1 0x4 DUP1 CALLDATASIZE SUB DUP2 ADD SWAP1 PUSH2 0x138 SWAP2 SWAP1 PUSH2 0x1016 JUMP JUMPDEST PUSH2 0xA11 JUMP JUMPDEST PUSH1 0x40 MLOAD PUSH2 0x14A SWAP2 SWAP1 PUSH2 0x1527 JUMP JUMPDEST PUSH1 0x40 MLOAD DUP1 SWAP2 SUB SWAP1 RETURN JUMPDEST PUSH2 0x16D PUSH1 0x4 DUP1 CALLDATASIZE SUB DUP2 ADD SWAP1 PUSH2 0x168 SWAP2 SWAP1 PUSH2 0x1016 JUMP JUMPDEST PUSH2 0xC71 JUMP JUMPDEST PUSH1 0x40 MLOAD PUSH2 0x17F SWAP7 SWAP6 SWAP5 SWAP4 SWAP3 SWAP2 SWAP1 PUSH2 0x1565 JUMP JUMPDEST PUSH1 0x40 MLOAD DUP1 SWAP2 SUB SWAP1 RETURN JUMPDEST PUSH0 PUSH0 SWAP1 SLOAD SWAP1 PUSH2 0x100 EXP SWAP1 DIV PUSH20 0xFFFFFFFFFFFFFFFFFFFFFFFFFFFFFFFFFFFFFFFF AND PUSH20 0xFFFFFFFFFFFFFFFFFFFFFFFFFFFFFFFFFFFFFFFF AND CALLER PUSH20 0xFFFFFFFFFFFFFFFFFFFFFFFFFFFFFFFFFFFFFFFF AND EQ PUSH2 0x216 JUMPI PUSH1 0x40 MLOAD PUSH32 0x8C379A000000000000000000000000000000000000000000000000000000000 DUP2 MSTORE PUSH1 0x4 ADD PUSH2 0x20D SWAP1 PUSH2 0x1623 JUMP JUMPDEST PUSH1 0x40 MLOAD DUP1 SWAP2 SUB SWAP1 REVERT JUMPDEST PUSH0 PUSH1 0x1 DUP3 PUSH1 0x40 MLOAD PUSH2 0x227 SWAP2 SWAP1 PUSH2 0x167B JUMP JUMPDEST SWAP1 DUP2 MSTORE PUSH1 0x20 ADD PUSH1 0x40 MLOAD DUP1 SWAP2 SUB SWAP1 KECCAK256 PUSH1 0x4 ADD SLOAD SUB PUSH2 0x279 JUMPI PUSH1 0x40 MLOAD PUSH32 0x8C379A000000000000000000000000000000000000000000000000000000000 DUP2 MSTORE PUSH1 0x4 ADD PUSH2 0x270 SWAP1 PUSH2 0x16DB JUMP JUMPDEST PUSH1 0x40 MLOAD DUP1 SWAP2 SUB SWAP1 REVERT JUMPDEST PUSH1 0x1 DUP1 DUP3 PUSH1 0x40 MLOAD PUSH2 0x28A SWAP2 SWAP1 PUSH2 0x167B JUMP JUMPDEST SWAP1 DUP2 MSTORE PUSH1 0x20 ADD PUSH1 0x40 MLOAD DUP1 SWAP2 SUB SWAP1 KECCAK256 PUSH1 0x5 ADD PUSH0 PUSH2 0x100 EXP DUP2 SLOAD DUP2 PUSH1 0xFF MUL NOT AND SWAP1 DUP4 ISZERO ISZERO MUL OR SWAP1 SSTORE POP PUSH32 0x3F3CFDB26FB5F9F1786AB4F1A1F9CD4C0B5E726CBDFC26E495261731AAD44E39 DUP2 PUSH1 0x40 MLOAD PUSH2 0x2E0 SWAP2 SWAP1 PUSH2 0x1377 JUMP JUMPDEST PUSH1 0x40 MLOAD DUP1 SWAP2 SUB SWAP1 LOG1 POP JUMP JUMPDEST PUSH1 0x60 PUSH0 PUSH1 0x2 PUSH0 CALLER PUSH20 0xFFFFFFFFFFFFFFFFFFFFFFFFFFFFFFFFFFFFFFFF AND PUSH20 0xFFFFFFFFFFFFFFFFFFFFFFFFFFFFFFFFFFFFFFFF AND DUP2 MSTORE PUSH1 0x20 ADD SWAP1 DUP2 MSTORE PUSH1 0x20 ADD PUSH0 KECCAK256 DUP1 SLOAD DUP1 PUSH1 0x20 MUL PUSH1 0x20 ADD PUSH1 0x40 MLOAD SWAP1 DUP2 ADD PUSH1 0x40 MSTORE DUP1 SWAP3 SWAP2 SWAP1 DUP2 DUP2 MSTORE PUSH1 0x20 ADD PUSH0 SWAP1 JUMPDEST DUP3 DUP3 LT ISZERO PUSH2 0x3F2 JUMPI DUP4 DUP3 SWAP1 PUSH0 MSTORE PUSH1 0x20 PUSH0 KECCAK256 ADD DUP1 SLOAD PUSH2 0x367 SWAP1 PUSH2 0x1726 JUMP JUMPDEST DUP1 PUSH1 0x1F ADD PUSH1 0x20 DUP1 SWAP2 DIV MUL PUSH1 0x20 ADD PUSH1 0x40 MLOAD SWAP1 DUP2 ADD PUSH1 0x40 MSTORE DUP1 SWAP3 SWAP2 SWAP1 DUP2 DUP2 MSTORE PUSH1 0x20 ADD DUP3 DUP1 SLOAD PUSH2 0x393 SWAP1 PUSH2 0x1726 JUMP JUMPDEST DUP1 ISZERO PUSH2 0x3DE JUMPI DUP1 PUSH1 0x1F LT PUSH2 0x3B5 JUMPI PUSH2 0x100 DUP1 DUP4 SLOAD DIV MUL DUP4 MSTORE SWAP2 PUSH1 0x20 ADD SWAP2 PUSH2 0x3DE JUMP JUMPDEST DUP3 ADD SWAP2 SWAP1 PUSH0 MSTORE PUSH1 0x20 PUSH0 KECCAK256 SWAP1 JUMPDEST DUP2 SLOAD DUP2 MSTORE SWAP1 PUSH1 0x1 ADD SWAP1 PUSH1 0x20 ADD DUP1 DUP4 GT PUSH2 0x3C1 JUMPI DUP3 SWAP1 SUB PUSH1 0x1F AND DUP3 ADD SWAP2 JUMPDEST POP POP POP POP POP DUP2 MSTORE PUSH1 0x20 ADD SWAP1 PUSH1 0x1 ADD SWAP1 PUSH2 0x34A JUMP JUMPDEST POP POP POP POP SWAP1 POP PUSH0 DUP2 MLOAD PUSH8 0xFFFFFFFFFFFFFFFF DUP2 GT ISZERO PUSH2 0x414 JUMPI PUSH2 0x413 PUSH2 0xEF2 JUMP JUMPDEST JUMPDEST PUSH1 0x40 MLOAD SWAP1 DUP1 DUP3 MSTORE DUP1 PUSH1 0x20 MUL PUSH1 0x20 ADD DUP3 ADD PUSH1 0x40 MSTORE DUP1 ISZERO PUSH2 0x44D JUMPI DUP2 PUSH1 0x20 ADD JUMPDEST PUSH2 0x43A PUSH2 0xE7E JUMP JUMPDEST DUP2 MSTORE PUSH1 0x20 ADD SWAP1 PUSH1 0x1 SWAP1 SUB SWAP1 DUP2 PUSH2 0x432 JUMPI SWAP1 POP JUMPDEST POP SWAP1 POP PUSH0 PUSH0 SWAP1 POP JUMPDEST DUP3 MLOAD DUP2 LT ISZERO PUSH2 0x6F4 JUMPI PUSH1 0x1 DUP4 DUP3 DUP2 MLOAD DUP2 LT PUSH2 0x473 JUMPI PUSH2 0x472 PUSH2 0x1756 JUMP JUMPDEST JUMPDEST PUSH1 0x20 MUL PUSH1 0x20 ADD ADD MLOAD PUSH1 0x40 MLOAD PUSH2 0x488 SWAP2 SWAP1 PUSH2 0x167B JUMP JUMPDEST SWAP1 DUP2 MSTORE PUSH1 0x20 ADD PUSH1 0x40 MLOAD DUP1 SWAP2 SUB SWAP1 KECCAK256 PUSH1 0x40 MLOAD DUP1 PUSH1 0xC0 ADD PUSH1 0x40 MSTORE SWAP1 DUP2 PUSH0 DUP3 ADD PUSH0 SWAP1 SLOAD SWAP1 PUSH2 0x100 EXP SWAP1 DIV PUSH20 0xFFFFFFFFFFFFFFFFFFFFFFFFFFFFFFFFFFFFFFFF AND PUSH20 0xFFFFFFFFFFFFFFFFFFFFFFFFFFFFFFFFFFFFFFFF AND PUSH20 0xFFFFFFFFFFFFFFFFFFFFFFFFFFFFFFFFFFFFFFFF AND DUP2 MSTORE PUSH1 0x20 ADD PUSH1 0x1 DUP3 ADD DUP1 SLOAD PUSH2 0x505 SWAP1 PUSH2 0x1726 JUMP JUMPDEST DUP1 PUSH1 0x1F ADD PUSH1 0x20 DUP1 SWAP2 DIV MUL PUSH1 0x20 ADD PUSH1 0x40 MLOAD SWAP1 DUP2 ADD PUSH1 0x40 MSTORE DUP1 SWAP3 SWAP2 SWAP1 DUP2 DUP2 MSTORE PUSH1 0x20 ADD DUP3 DUP1 SLOAD PUSH2 0x531 SWAP1 PUSH2 0x1726 JUMP JUMPDEST DUP1 ISZERO PUSH2 0x57C JUMPI DUP1 PUSH1 0x1F LT PUSH2 0x553 JUMPI PUSH2 0x100 DUP1 DUP4 SLOAD DIV MUL DUP4 MSTORE SWAP2 PUSH1 0x20 ADD SWAP2 PUSH2 0x57C JUMP JUMPDEST DUP3 ADD SWAP2 SWAP1 PUSH0 MSTORE PUSH1 0x20 PUSH0 KECCAK256 SWAP1 JUMPDEST DUP2 SLOAD DUP2 MSTORE SWAP1 PUSH1 0x1 ADD SWAP1 PUSH1 0x20 ADD DUP1 DUP4 GT PUSH2 0x55F JUMPI DUP3 SWAP1 SUB PUSH1 0x1F AND DUP3 ADD SWAP2 JUMPDEST POP POP POP POP POP DUP2 MSTORE PUSH1 0x20 ADD PUSH1 0x2 DUP3 ADD DUP1 SLOAD PUSH2 0x595 SWAP1 PUSH2 0x1726 JUMP JUMPDEST DUP1 PUSH1 0x1F ADD PUSH1 0x20 DUP1 SWAP2 DIV MUL PUSH1 0x20 ADD PUSH1 0x40 MLOAD SWAP1 DUP2 ADD PUSH1 0x40 MSTORE DUP1 SWAP3 SWAP2 SWAP1 DUP2 DUP2 MSTORE PUSH1 0x20 ADD DUP3 DUP1 SLOAD PUSH2 0x5C1 SWAP1 PUSH2 0x1726 JUMP JUMPDEST DUP1 ISZERO PUSH2 0x60C JUMPI DUP1 PUSH1 0x1F LT PUSH2 0x5E3 JUMPI PUSH2 0x100 DUP1 DUP4 SLOAD DIV MUL DUP4 MSTORE SWAP2 PUSH1 0x20 ADD SWAP2 PUSH2 0x60C JUMP JUMPDEST DUP3 ADD SWAP2 SWAP1 PUSH0 MSTORE PUSH1 0x20 PUSH0 KECCAK256 SWAP1 JUMPDEST DUP2 SLOAD DUP2 MSTORE SWAP1 PUSH1 0x1 ADD SWAP1 PUSH1 0x20 ADD DUP1 DUP4 GT PUSH2 0x5EF JUMPI DUP3 SWAP1 SUB PUSH1 0x1F AND DUP3 ADD SWAP2 JUMPDEST POP POP POP POP POP DUP2 MSTORE PUSH1 0x20 ADD PUSH1 0x3 DUP3 ADD DUP1 SLOAD PUSH2 0x625 SWAP1 PUSH2 0x1726 JUMP JUMPDEST DUP1 PUSH1 0x1F ADD PUSH1 0x20 DUP1 SWAP2 DIV MUL PUSH1 0x20 ADD PUSH1 0x40 MLOAD SWAP1 DUP2 ADD PUSH1 0x40 MSTORE DUP1 SWAP3 SWAP2 SWAP1 DUP2 DUP2 MSTORE PUSH1 0x20 ADD DUP3 DUP1 SLOAD PUSH2 0x651 SWAP1 PUSH2 0x1726 JUMP JUMPDEST DUP1 ISZERO PUSH2 0x69C JUMPI DUP1 PUSH1 0x1F LT PUSH2 0x673 JUMPI PUSH2 0x100 DUP1 DUP4 SLOAD DIV MUL DUP4 MSTORE SWAP2 PUSH1 0x20 ADD SWAP2 PUSH2 0x69C JUMP JUMPDEST DUP3 ADD SWAP2 SWAP1 PUSH0 MSTORE PUSH1 0x20 PUSH0 KECCAK256 SWAP1 JUMPDEST DUP2 SLOAD DUP2 MSTORE SWAP1 PUSH1 0x1 ADD SWAP1 PUSH1 0x20 ADD DUP1 DUP4 GT PUSH2 0x67F JUMPI DUP3 SWAP1 SUB PUSH1 0x1F AND DUP3 ADD SWAP2 JUMPDEST POP POP POP POP POP DUP2 MSTORE PUSH1 0x20 ADD PUSH1 0x4 DUP3 ADD SLOAD DUP2 MSTORE PUSH1 0x20 ADD PUSH1 0x5 DUP3 ADD PUSH0 SWAP1 SLOAD SWAP1 PUSH2 0x100 EXP SWAP1 DIV PUSH1 0xFF AND ISZERO ISZERO ISZERO ISZERO DUP2 MSTORE POP POP DUP3 DUP3 DUP2 MLOAD DUP2 LT PUSH2 0x6DC JUMPI PUSH2 0x6DB PUSH2 0x1756 JUMP JUMPDEST JUMPDEST PUSH1 0x20 MUL PUSH1 0x20 ADD ADD DUP2 SWAP1 MSTORE POP DUP1 DUP1 PUSH1 0x1 ADD SWAP2 POP POP PUSH2 0x455 JUMP JUMPDEST POP DUP1 SWAP3 POP POP POP SWAP1 JUMP JUMPDEST PUSH1 0x2 PUSH1 0x20 MSTORE DUP2 PUSH0 MSTORE PUSH1 0x40 PUSH0 KECCAK256 DUP2 DUP2 SLOAD DUP2 LT PUSH2 0x716 JUMPI PUSH0 DUP1 REVERT JUMPDEST SWAP1 PUSH0 MSTORE PUSH1 0x20 PUSH0 KECCAK256 ADD PUSH0 SWAP2 POP SWAP2 POP POP DUP1 SLOAD PUSH2 0x72F SWAP1 PUSH2 0x1726 JUMP JUMPDEST DUP1 PUSH1 0x1F ADD PUSH1 0x20 DUP1 SWAP2 DIV MUL PUSH1 0x20 ADD PUSH1 0x40 MLOAD SWAP1 DUP2 ADD PUSH1 0x40 MSTORE DUP1 SWAP3 SWAP2 SWAP1 DUP2 DUP2 MSTORE PUSH1 0x20 ADD DUP3 DUP1 SLOAD PUSH2 0x75B SWAP1 PUSH2 0x1726 JUMP JUMPDEST DUP1 ISZERO PUSH2 0x7A6 JUMPI DUP1 PUSH1 0x1F LT PUSH2 0x77D JUMPI PUSH2 0x100 DUP1 DUP4 SLOAD DIV MUL DUP4 MSTORE SWAP2 PUSH1 0x20 ADD SWAP2 PUSH2 0x7A6 JUMP JUMPDEST DUP3 ADD SWAP2 SWAP1 PUSH0 MSTORE PUSH1 0x20 PUSH0 KECCAK256 SWAP1 JUMPDEST DUP2 SLOAD DUP2 MSTORE SWAP1 PUSH1 0x1 ADD SWAP1 PUSH1 0x20 ADD DUP1 DUP4 GT PUSH2 0x789 JUMPI DUP3 SWAP1 SUB PUSH1 0x1F AND DUP3 ADD SWAP2 JUMPDEST POP POP POP POP POP DUP2 JUMP JUMPDEST PUSH0 PUSH1 0x1 DUP6 PUSH1 0x40 MLOAD PUSH2 0x7BF SWAP2 SWAP1 PUSH2 0x167B JUMP JUMPDEST SWAP1 DUP2 MSTORE PUSH1 0x20 ADD PUSH1 0x40 MLOAD DUP1 SWAP2 SUB SWAP1 KECCAK256 PUSH1 0x4 ADD SLOAD EQ PUSH2 0x811 JUMPI PUSH1 0x40 MLOAD PUSH32 0x8C379A000000000000000000000000000000000000000000000000000000000 DUP2 MSTORE PUSH1 0x4 ADD PUSH2 0x808 SWAP1 PUSH2 0x17CD JUMP JUMPDEST PUSH1 0x40 MLOAD DUP1 SWAP2 SUB SWAP1 REVERT JUMPDEST PUSH1 0x40 MLOAD DUP1 PUSH1 0xC0 ADD PUSH1 0x40 MSTORE DUP1 CALLER PUSH20 0xFFFFFFFFFFFFFFFFFFFFFFFFFFFFFFFFFFFFFFFF AND DUP2 MSTORE PUSH1 0x20 ADD DUP5 DUP2 MSTORE PUSH1 0x20 ADD DUP4 DUP2 MSTORE PUSH1 0x20 ADD DUP3 DUP2 MSTORE PUSH1 0x20 ADD TIMESTAMP DUP2 MSTORE PUSH1 0x20 ADD PUSH0 ISZERO ISZERO DUP2 MSTORE POP PUSH1 0x1 DUP6 PUSH1 0x40 MLOAD PUSH2 0x866 SWAP2 SWAP1 PUSH2 0x167B JUMP JUMPDEST SWAP1 DUP2 MSTORE PUSH1 0x20 ADD PUSH1 0x40 MLOAD DUP1 SWAP2 SUB SWAP1 KECCAK256 PUSH0 DUP3 ADD MLOAD DUP2 PUSH0 ADD PUSH0 PUSH2 0x100 EXP DUP2 SLOAD DUP2 PUSH20 0xFFFFFFFFFFFFFFFFFFFFFFFFFFFFFFFFFFFFFFFF MUL NOT AND SWAP1 DUP4 PUSH20 0xFFFFFFFFFFFFFFFFFFFFFFFFFFFFFFFFFFFFFFFF AND MUL OR SWAP1 SSTORE POP PUSH1 0x20 DUP3 ADD MLOAD DUP2 PUSH1 0x1 ADD SWAP1 DUP2 PUSH2 0x8CD SWAP2 SWAP1 PUSH2 0x198B JUMP JUMPDEST POP PUSH1 0x40 DUP3 ADD MLOAD DUP2 PUSH1 0x2 ADD SWAP1 DUP2 PUSH2 0x8E3 SWAP2 SWAP1 PUSH2 0x198B JUMP JUMPDEST POP PUSH1 0x60 DUP3 ADD MLOAD DUP2 PUSH1 0x3 ADD SWAP1 DUP2 PUSH2 0x8F9 SWAP2 SWAP1 PUSH2 0x198B JUMP JUMPDEST POP PUSH1 0x80 DUP3 ADD MLOAD DUP2 PUSH1 0x4 ADD SSTORE PUSH1 0xA0 DUP3 ADD MLOAD DUP2 PUSH1 0x5 ADD PUSH0 PUSH2 0x100 EXP DUP2 SLOAD DUP2 PUSH1 0xFF MUL NOT AND SWAP1 DUP4 ISZERO ISZERO MUL OR SWAP1 SSTORE POP SWAP1 POP POP PUSH1 0x2 PUSH0 CALLER PUSH20 0xFFFFFFFFFFFFFFFFFFFFFFFFFFFFFFFFFFFFFFFF AND PUSH20 0xFFFFFFFFFFFFFFFFFFFFFFFFFFFFFFFFFFFFFFFF AND DUP2 MSTORE PUSH1 0x20 ADD SWAP1 DUP2 MSTORE PUSH1 0x20 ADD PUSH0 KECCAK256 DUP5 SWAP1 DUP1 PUSH1 0x1 DUP2 SLOAD ADD DUP1 DUP3 SSTORE DUP1 SWAP2 POP POP PUSH1 0x1 SWAP1 SUB SWAP1 PUSH0 MSTORE PUSH1 0x20 PUSH0 KECCAK256 ADD PUSH0 SWAP1 SWAP2 SWAP1 SWAP2 SWAP1 SWAP2 POP SWAP1 DUP2 PUSH2 0x992 SWAP2 SWAP1 PUSH2 0x198B JUMP JUMPDEST POP CALLER PUSH20 0xFFFFFFFFFFFFFFFFFFFFFFFFFFFFFFFFFFFFFFFF AND PUSH32 0x4D9E665DF13A65676307A38BB1B6B96C79CA9BBE90D3C2A80B79C52428B051C4 DUP6 DUP6 DUP6 DUP6 PUSH1 0x40 MLOAD PUSH2 0x9DF SWAP5 SWAP4 SWAP3 SWAP2 SWAP1 PUSH2 0x1A5A JUMP JUMPDEST PUSH1 0x40 MLOAD DUP1 SWAP2 SUB SWAP1 LOG2 POP POP POP POP JUMP JUMPDEST PUSH0 PUSH0 SWAP1 SLOAD SWAP1 PUSH2 0x100 EXP SWAP1 DIV PUSH20 0xFFFFFFFFFFFFFFFFFFFFFFFFFFFFFFFFFFFFFFFF AND DUP2 JUMP JUMPDEST PUSH2 0xA19 PUSH2 0xE7E JUMP JUMPDEST PUSH1 0x1 DUP3 PUSH1 0x40 MLOAD PUSH2 0xA29 SWAP2 SWAP1 PUSH2 0x167B JUMP JUMPDEST SWAP1 DUP2 MSTORE PUSH1 0x20 ADD PUSH1 0x40 MLOAD DUP1 SWAP2 SUB SWAP1 KECCAK256 PUSH1 0x40 MLOAD DUP1 PUSH1 0xC0 ADD PUSH1 0x40 MSTORE SWAP1 DUP2 PUSH0 DUP3 ADD PUSH0 SWAP1 SLOAD SWAP1 PUSH2 0x100 EXP SWAP1 DIV PUSH20 0xFFFFFFFFFFFFFFFFFFFFFFFFFFFFFFFFFFFFFFFF AND PUSH20 0xFFFFFFFFFFFFFFFFFFFFFFFFFFFFFFFFFFFFFFFF AND PUSH20 0xFFFFFFFFFFFFFFFFFFFFFFFFFFFFFFFFFFFFFFFF AND DUP2 MSTORE PUSH1 0x20 ADD PUSH1 0x1 DUP3 ADD DUP1 SLOAD PUSH2 0xAA6 SWAP1 PUSH2 0x1726 JUMP JUMPDEST DUP1 PUSH1 0x1F ADD PUSH1 0x20 DUP1 SWAP2 DIV MUL PUSH1 0x20 ADD PUSH1 0x40 MLOAD SWAP1 DUP2 ADD PUSH1 0x40 MSTORE DUP1 SWAP3 SWAP2 SWAP1 DUP2 DUP2 MSTORE PUSH1 0x20 ADD DUP3 DUP1 SLOAD PUSH2 0xAD2 SWAP1 PUSH2 0x1726 JUMP JUMPDEST DUP1 ISZERO PUSH2 0xB1D JUMPI DUP1 PUSH1 0x1F LT PUSH2 0xAF4 JUMPI PUSH2 0x100 DUP1 DUP4 SLOAD DIV MUL DUP4 MSTORE SWAP2 PUSH1 0x20 ADD SWAP2 PUSH2 0xB1D JUMP JUMPDEST DUP3 ADD SWAP2 SWAP1 PUSH0 MSTORE PUSH1 0x20 PUSH0 KECCAK256 SWAP1 JUMPDEST DUP2 SLOAD DUP2 MSTORE SWAP1 PUSH1 0x1 ADD SWAP1 PUSH1 0x20 ADD DUP1 DUP4 GT PUSH2 0xB00 JUMPI DUP3 SWAP1 SUB PUSH1 0x1F AND DUP3 ADD SWAP2 JUMPDEST POP POP POP POP POP DUP2 MSTORE PUSH1 0x20 ADD PUSH1 0x2 DUP3 ADD DUP1 SLOAD PUSH2 0xB36 SWAP1 PUSH2 0x1726 JUMP JUMPDEST DUP1 PUSH1 0x1F ADD PUSH1 0x20 DUP1 SWAP2 DIV MUL PUSH1 0x20 ADD PUSH1 0x40 MLOAD SWAP1 DUP2 ADD PUSH1 0x40 MSTORE DUP1 SWAP3 SWAP2 SWAP1 DUP2 DUP2 MSTORE PUSH1 0x20 ADD DUP3 DUP1 SLOAD PUSH2 0xB62 SWAP1 PUSH2 0x1726 JUMP JUMPDEST DUP1 ISZERO PUSH2 0xBAD JUMPI DUP1 PUSH1 0x1F LT PUSH2 0xB84 JUMPI PUSH2 0x100 DUP1 DUP4 SLOAD DIV MUL DUP4 MSTORE SWAP2 PUSH1 0x20 ADD SWAP2 PUSH2 0xBAD JUMP JUMPDEST DUP3 ADD SWAP2 SWAP1 PUSH0 MSTORE PUSH1 0x20 PUSH0 KECCAK256 SWAP1 JUMPDEST DUP2 SLOAD DUP2 MSTORE SWAP1 PUSH1 0x1 ADD SWAP1 PUSH1 0x20 ADD DUP1 DUP4 GT PUSH2 0xB90 JUMPI DUP3 SWAP1 SUB PUSH1 0x1F AND DUP3 ADD SWAP2 JUMPDEST POP POP POP POP POP DUP2 MSTORE PUSH1 0x20 ADD PUSH1 0x3 DUP3 ADD DUP1 SLOAD PUSH2 0xBC6 SWAP1 PUSH2 0x1726 JUMP JUMPDEST DUP1 PUSH1 0x1F ADD PUSH1 0x20 DUP1 SWAP2 DIV MUL PUSH1 0x20 ADD PUSH1 0x40 MLOAD SWAP1 DUP2 ADD PUSH1 0x40 MSTORE DUP1 SWAP3 SWAP2 SWAP1 DUP2 DUP2 MSTORE PUSH1 0x20 ADD DUP3 DUP1 SLOAD PUSH2 0xBF2 SWAP1 PUSH2 0x1726 JUMP JUMPDEST DUP1 ISZERO PUSH2 0xC3D JUMPI DUP1 PUSH1 0x1F LT PUSH2 0xC14 JUMPI PUSH2 0x100 DUP1 DUP4 SLOAD DIV MUL DUP4 MSTORE SWAP2 PUSH1 0x20 ADD SWAP2 PUSH2 0xC3D JUMP JUMPDEST DUP3 ADD SWAP2 SWAP1 PUSH0 MSTORE PUSH1 0x20 PUSH0 KECCAK256 SWAP1 JUMPDEST DUP2 SLOAD DUP2 MSTORE SWAP1 PUSH1 0x1 ADD SWAP1 PUSH1 0x20 ADD DUP1 DUP4 GT PUSH2 0xC20 JUMPI DUP3 SWAP1 SUB PUSH1 0x1F AND DUP3 ADD SWAP2 JUMPDEST POP POP POP POP POP DUP2 MSTORE PUSH1 0x20 ADD PUSH1 0x4 DUP3 ADD SLOAD DUP2 MSTORE PUSH1 0x20 ADD PUSH1 0x5 DUP3 ADD PUSH0 SWAP1 SLOAD SWAP1 PUSH2 0x100 EXP SWAP1 DIV PUSH1 0xFF AND ISZERO ISZERO ISZERO ISZERO DUP2 MSTORE POP POP SWAP1 POP SWAP2 SWAP1 POP JUMP JUMPDEST PUSH1 0x1 DUP2 DUP1 MLOAD PUSH1 0x20 DUP2 ADD DUP3 ADD DUP1 MLOAD DUP5 DUP3 MSTORE PUSH1 0x20 DUP4 ADD PUSH1 0x20 DUP6 ADD KECCAK256 DUP2 DUP4 MSTORE DUP1 SWAP6 POP POP POP POP POP POP PUSH0 SWAP2 POP SWAP1 POP DUP1 PUSH0 ADD PUSH0 SWAP1 SLOAD SWAP1 PUSH2 0x100 EXP SWAP1 DIV PUSH20 0xFFFFFFFFFFFFFFFFFFFFFFFFFFFFFFFFFFFFFFFF AND SWAP1 DUP1 PUSH1 0x1 ADD DUP1 SLOAD PUSH2 0xCCD SWAP1 PUSH2 0x1726 JUMP JUMPDEST DUP1 PUSH1 0x1F ADD PUSH1 0x20 DUP1 SWAP2 DIV MUL PUSH1 0x20 ADD PUSH1 0x40 MLOAD SWAP1 DUP2 ADD PUSH1 0x40 MSTORE DUP1 SWAP3 SWAP2 SWAP1 DUP2 DUP2 MSTORE PUSH1 0x20 ADD DUP3 DUP1 SLOAD PUSH2 0xCF9 SWAP1 PUSH2 0x1726 JUMP JUMPDEST DUP1 ISZERO PUSH2 0xD44 JUMPI DUP1 PUSH1 0x1F LT PUSH2 0xD1B JUMPI PUSH2 0x100 DUP1 DUP4 SLOAD DIV MUL DUP4 MSTORE SWAP2 PUSH1 0x20 ADD SWAP2 PUSH2 0xD44 JUMP JUMPDEST DUP3 ADD SWAP2 SWAP1 PUSH0 MSTORE PUSH1 0x20 PUSH0 KECCAK256 SWAP1 JUMPDEST DUP2 SLOAD DUP2 MSTORE SWAP1 PUSH1 0x1 ADD SWAP1 PUSH1 0x20 ADD DUP1 DUP4 GT PUSH2 0xD27 JUMPI DUP3 SWAP1 SUB PUSH1 0x1F AND DUP3 ADD SWAP2 JUMPDEST POP POP POP POP POP SWAP1 DUP1 PUSH1 0x2 ADD DUP1 SLOAD PUSH2 0xD59 SWAP1 PUSH2 0x1726 JUMP JUMPDEST DUP1 PUSH1 0x1F ADD PUSH1 0x20 DUP1 SWAP2 DIV MUL PUSH1 0x20 ADD PUSH1 0x40 MLOAD SWAP1 DUP2 ADD PUSH1 0x40 MSTORE DUP1 SWAP3 SWAP2 SWAP1 DUP2 DUP2 MSTORE PUSH1 0x20 ADD DUP3 DUP1 SLOAD PUSH2 0xD85 SWAP1 PUSH2 0x1726 JUMP JUMPDEST DUP1 ISZERO PUSH2 0xDD0 JUMPI DUP1 PUSH1 0x1F LT PUSH2 0xDA7 JUMPI PUSH2 0x100 DUP1 DUP4 SLOAD DIV MUL DUP4 MSTORE SWAP2 PUSH1 0x20 ADD SWAP2 PUSH2 0xDD0 JUMP JUMPDEST DUP3 ADD SWAP2 SWAP1 PUSH0 MSTORE PUSH1 0x20 PUSH0 KECCAK256 SWAP1 JUMPDEST DUP2 SLOAD DUP2 MSTORE SWAP1 PUSH1 0x1 ADD SWAP1 PUSH1 0x20 ADD DUP1 DUP4 GT PUSH2 0xDB3 JUMPI DUP3 SWAP1 SUB PUSH1 0x1F AND DUP3 ADD SWAP2 JUMPDEST POP POP POP POP POP SWAP1 DUP1 PUSH1 0x3 ADD DUP1 SLOAD PUSH2 0xDE5 SWAP1 PUSH2 0x1726 JUMP JUMPDEST DUP1 PUSH1 0x1F ADD PUSH1 0x20 DUP1 SWAP2 DIV MUL PUSH1 0x20 ADD PUSH1 0x40 MLOAD SWAP1 DUP2 ADD PUSH1 0x40 MSTORE DUP1 SWAP3 SWAP2 SWAP1 DUP2 DUP2 MSTORE PUSH1 0x20 ADD DUP3 DUP1 SLOAD PUSH2 0xE11 SWAP1 PUSH2 0x1726 JUMP JUMPDEST DUP1 ISZERO PUSH2 0xE5C JUMPI DUP1 PUSH1 0x1F LT PUSH2 0xE33 JUMPI PUSH2 0x100 DUP1 DUP4 SLOAD DIV MUL DUP4 MSTORE SWAP2 PUSH1 0x20 ADD SWAP2 PUSH2 0xE5C JUMP JUMPDEST DUP3 ADD SWAP2 SWAP1 PUSH0 MSTORE PUSH1 0x20 PUSH0 KECCAK256 SWAP1 JUMPDEST DUP2 SLOAD DUP2 MSTORE SWAP1 PUSH1 0x1 ADD SWAP1 PUSH1 0x20 ADD DUP1 DUP4 GT PUSH2 0xE3F JUMPI DUP3 SWAP1 SUB PUSH1 0x1F AND DUP3 ADD SWAP2 JUMPDEST POP POP POP POP POP SWAP1 DUP1 PUSH1 0x4 ADD SLOAD SWAP1 DUP1 PUSH1 0x5 ADD PUSH0 SWAP1 SLOAD SWAP1 PUSH2 0x100 EXP SWAP1 DIV PUSH1 0xFF AND SWAP1 POP DUP7 JUMP JUMPDEST PUSH1 0x40 MLOAD DUP1 PUSH1 0xC0 ADD PUSH1 0x40 MSTORE DUP1 PUSH0 PUSH20 0xFFFFFFFFFFFFFFFFFFFFFFFFFFFFFFFFFFFFFFFF AND DUP2 MSTORE PUSH1 0x20 ADD PUSH1 0x60 DUP2 MSTORE PUSH1 0x20 ADD PUSH1 0x60 DUP2 MSTORE PUSH1 0x20 ADD PUSH1 0x60 DUP2 MSTORE PUSH1 0x20 ADD PUSH0 DUP2 MSTORE PUSH1 0x20 ADD PUSH0 ISZERO ISZERO DUP2 MSTORE POP SWAP1 JUMP JUMPDEST PUSH0 PUSH1 0x40 MLOAD SWAP1 POP SWAP1 JUMP JUMPDEST PUSH0 PUSH0 REVERT JUMPDEST PUSH0 PUSH0 REVERT JUMPDEST PUSH0 PUSH0 REVERT JUMPDEST PUSH0 PUSH0 REVERT JUMPDEST PUSH0 PUSH1 0x1F NOT PUSH1 0x1F DUP4 ADD AND SWAP1 POP SWAP2 SWAP1 POP JUMP JUMPDEST PUSH32 0x4E487B7100000000000000000000000000000000000000000000000000000000 PUSH0 MSTORE PUSH1 0x41 PUSH1 0x4 MSTORE PUSH1 0x24 PUSH0 REVERT JUMPDEST PUSH2 0xF28 DUP3 PUSH2 0xEE2 JUMP JUMPDEST DUP2 ADD DUP2 DUP2 LT PUSH8 0xFFFFFFFFFFFFFFFF DUP3 GT OR ISZERO PUSH2 0xF47 JUMPI PUSH2 0xF46 PUSH2 0xEF2 JUMP JUMPDEST JUMPDEST DUP1 PUSH1 0x40 MSTORE POP POP POP JUMP JUMPDEST PUSH0 PUSH2 0xF59 PUSH2 0xEC9 JUMP JUMPDEST SWAP1 POP PUSH2 0xF65 DUP3 DUP3 PUSH2 0xF1F JUMP JUMPDEST SWAP2 SWAP1 POP JUMP JUMPDEST PUSH0 PUSH8 0xFFFFFFFFFFFFFFFF DUP3 GT ISZERO PUSH2 0xF84 JUMPI PUSH2 0xF83 PUSH2 0xEF2 JUMP JUMPDEST JUMPDEST PUSH2 0xF8D DUP3 PUSH2 0xEE2 JUMP JUMPDEST SWAP1 POP PUSH1 0x20 DUP2 ADD SWAP1 POP SWAP2 SWAP1 POP JUMP JUMPDEST DUP3 DUP2 DUP4 CALLDATACOPY PUSH0 DUP4 DUP4 ADD MSTORE POP POP POP JUMP JUMPDEST PUSH0 PUSH2 0xFBA PUSH2 0xFB5 DUP5 PUSH2 0xF6A JUMP JUMPDEST PUSH2 0xF50 JUMP JUMPDEST SWAP1 POP DUP3 DUP2 MSTORE PUSH1 0x20 DUP2 ADD DUP5 DUP5 DUP5 ADD GT ISZERO PUSH2 0xFD6 JUMPI PUSH2 0xFD5 PUSH2 0xEDE JUMP JUMPDEST JUMPDEST PUSH2 0xFE1 DUP5 DUP3 DUP6 PUSH2 0xF9A JUMP JUMPDEST POP SWAP4 SWAP3 POP POP POP JUMP JUMPDEST PUSH0 DUP3 PUSH1 0x1F DUP4 ADD SLT PUSH2 0xFFD JUMPI PUSH2 0xFFC PUSH2 0xEDA JUMP JUMPDEST JUMPDEST DUP2 CALLDATALOAD PUSH2 0x100D DUP5 DUP3 PUSH1 0x20 DUP7 ADD PUSH2 0xFA8 JUMP JUMPDEST SWAP2 POP POP SWAP3 SWAP2 POP POP JUMP JUMPDEST PUSH0 PUSH1 0x20 DUP3 DUP5 SUB SLT ISZERO PUSH2 0x102B JUMPI PUSH2 0x102A PUSH2 0xED2 JUMP JUMPDEST JUMPDEST PUSH0 DUP3 ADD CALLDATALOAD PUSH8 0xFFFFFFFFFFFFFFFF DUP2 GT ISZERO PUSH2 0x1048 JUMPI PUSH2 0x1047 PUSH2 0xED6 JUMP JUMPDEST JUMPDEST PUSH2 0x1054 DUP5 DUP3 DUP6 ADD PUSH2 0xFE9 JUMP JUMPDEST SWAP2 POP POP SWAP3 SWAP2 POP POP JUMP JUMPDEST PUSH0 DUP2 MLOAD SWAP1 POP SWAP2 SWAP1 POP JUMP JUMPDEST PUSH0 DUP3 DUP3 MSTORE PUSH1 0x20 DUP3 ADD SWAP1 POP SWAP3 SWAP2 POP POP JUMP JUMPDEST PUSH0 DUP2 SWAP1 POP PUSH1 0x20 DUP3 ADD SWAP1 POP SWAP2 SWAP1 POP JUMP JUMPDEST PUSH0 PUSH20 0xFFFFFFFFFFFFFFFFFFFFFFFFFFFFFFFFFFFFFFFF DUP3 AND SWAP1 POP SWAP2 SWAP1 POP JUMP JUMPDEST PUSH0 PUSH2 0x10AF DUP3 PUSH2 0x1086 JUMP JUMPDEST SWAP1 POP SWAP2 SWAP1 POP JUMP JUMPDEST PUSH2 0x10BF DUP2 PUSH2 0x10A5 JUMP JUMPDEST DUP3 MSTORE POP POP JUMP JUMPDEST PUSH0 DUP2 MLOAD SWAP1 POP SWAP2 SWAP1 POP JUMP JUMPDEST PUSH0 DUP3 DUP3 MSTORE PUSH1 0x20 DUP3 ADD SWAP1 POP SWAP3 SWAP2 POP POP JUMP JUMPDEST DUP3 DUP2 DUP4 MCOPY PUSH0 DUP4 DUP4 ADD MSTORE POP POP POP JUMP JUMPDEST PUSH0 PUSH2 0x10F7 DUP3 PUSH2 0x10C5 JUMP JUMPDEST PUSH2 0x1101 DUP2 DUP6 PUSH2 0x10CF JUMP JUMPDEST SWAP4 POP PUSH2 0x1111 DUP2 DUP6 PUSH1 0x20 DUP7 ADD PUSH2 0x10DF JUMP JUMPDEST PUSH2 0x111A DUP2 PUSH2 0xEE2 JUMP JUMPDEST DUP5 ADD SWAP2 POP POP SWAP3 SWAP2 POP POP JUMP JUMPDEST PUSH0 DUP2 SWAP1 POP SWAP2 SWAP1 POP JUMP JUMPDEST PUSH2 0x1137 DUP2 PUSH2 0x1125 JUMP JUMPDEST DUP3 MSTORE POP POP JUMP JUMPDEST PUSH0 DUP2 ISZERO ISZERO SWAP1 POP SWAP2 SWAP1 POP JUMP JUMPDEST PUSH2 0x1151 DUP2 PUSH2 0x113D JUMP JUMPDEST DUP3 MSTORE POP POP JUMP JUMPDEST PUSH0 PUSH1 0xC0 DUP4 ADD PUSH0 DUP4 ADD MLOAD PUSH2 0x116C PUSH0 DUP7 ADD DUP3 PUSH2 0x10B6 JUMP JUMPDEST POP PUSH1 0x20 DUP4 ADD MLOAD DUP5 DUP3 SUB PUSH1 0x20 DUP7 ADD MSTORE PUSH2 0x1184 DUP3 DUP3 PUSH2 0x10ED JUMP JUMPDEST SWAP2 POP POP PUSH1 0x40 DUP4 ADD MLOAD DUP5 DUP3 SUB PUSH1 0x40 DUP7 ADD MSTORE PUSH2 0x119E DUP3 DUP3 PUSH2 0x10ED JUMP JUMPDEST SWAP2 POP POP PUSH1 0x60 DUP4 ADD MLOAD DUP5 DUP3 SUB PUSH1 0x60 DUP7 ADD MSTORE PUSH2 0x11B8 DUP3 DUP3 PUSH2 0x10ED JUMP JUMPDEST SWAP2 POP POP PUSH1 0x80 DUP4 ADD MLOAD PUSH2 0x11CD PUSH1 0x80 DUP7 ADD DUP3 PUSH2 0x112E JUMP JUMPDEST POP PUSH1 0xA0 DUP4 ADD MLOAD PUSH2 0x11E0 PUSH1 0xA0 DUP7 ADD DUP3 PUSH2 0x1148 JUMP JUMPDEST POP DUP1 SWAP2 POP POP SWAP3 SWAP2 POP POP JUMP JUMPDEST PUSH0 PUSH2 0x11F6 DUP4 DUP4 PUSH2 0x1157 JUMP JUMPDEST SWAP1 POP SWAP3 SWAP2 POP POP JUMP JUMPDEST PUSH0 PUSH1 0x20 DUP3 ADD SWAP1 POP SWAP2 SWAP1 POP JUMP JUMPDEST PUSH0 PUSH2 0x1214 DUP3 PUSH2 0x105D JUMP JUMPDEST PUSH2 0x121E DUP2 DUP6 PUSH2 0x1067 JUMP JUMPDEST SWAP4 POP DUP4 PUSH1 0x20 DUP3 MUL DUP6 ADD PUSH2 0x1230 DUP6 PUSH2 0x1077 JUMP JUMPDEST DUP1 PUSH0 JUMPDEST DUP6 DUP2 LT ISZERO PUSH2 0x126B JUMPI DUP5 DUP5 SUB DUP10 MSTORE DUP2 MLOAD PUSH2 0x124C DUP6 DUP3 PUSH2 0x11EB JUMP JUMPDEST SWAP5 POP PUSH2 0x1257 DUP4 PUSH2 0x11FE JUMP JUMPDEST SWAP3 POP PUSH1 0x20 DUP11 ADD SWAP10 POP POP PUSH1 0x1 DUP2 ADD SWAP1 POP PUSH2 0x1233 JUMP JUMPDEST POP DUP3 SWAP8 POP DUP8 SWAP6 POP POP POP POP POP POP SWAP3 SWAP2 POP POP JUMP JUMPDEST PUSH0 PUSH1 0x20 DUP3 ADD SWAP1 POP DUP2 DUP2 SUB PUSH0 DUP4 ADD MSTORE PUSH2 0x1295 DUP2 DUP5 PUSH2 0x120A JUMP JUMPDEST SWAP1 POP SWAP3 SWAP2 POP POP JUMP JUMPDEST PUSH2 0x12A6 DUP2 PUSH2 0x10A5 JUMP JUMPDEST DUP2 EQ PUSH2 0x12B0 JUMPI PUSH0 PUSH0 REVERT JUMPDEST POP JUMP JUMPDEST PUSH0 DUP2 CALLDATALOAD SWAP1 POP PUSH2 0x12C1 DUP2 PUSH2 0x129D JUMP JUMPDEST SWAP3 SWAP2 POP POP JUMP JUMPDEST PUSH2 0x12D0 DUP2 PUSH2 0x1125 JUMP JUMPDEST DUP2 EQ PUSH2 0x12DA JUMPI PUSH0 PUSH0 REVERT JUMPDEST POP JUMP JUMPDEST PUSH0 DUP2 CALLDATALOAD SWAP1 POP PUSH2 0x12EB DUP2 PUSH2 0x12C7 JUMP JUMPDEST SWAP3 SWAP2 POP POP JUMP JUMPDEST PUSH0 PUSH0 PUSH1 0x40 DUP4 DUP6 SUB SLT ISZERO PUSH2 0x1307 JUMPI PUSH2 0x1306 PUSH2 0xED2 JUMP JUMPDEST JUMPDEST PUSH0 PUSH2 0x1314 DUP6 DUP3 DUP7 ADD PUSH2 0x12B3 JUMP JUMPDEST SWAP3 POP POP PUSH1 0x20 PUSH2 0x1325 DUP6 DUP3 DUP7 ADD PUSH2 0x12DD JUMP JUMPDEST SWAP2 POP POP SWAP3 POP SWAP3 SWAP1 POP JUMP JUMPDEST PUSH0 DUP3 DUP3 MSTORE PUSH1 0x20 DUP3 ADD SWAP1 POP SWAP3 SWAP2 POP POP JUMP JUMPDEST PUSH0 PUSH2 0x1349 DUP3 PUSH2 0x10C5 JUMP JUMPDEST PUSH2 0x1353 DUP2 DUP6 PUSH2 0x132F JUMP JUMPDEST SWAP4 POP PUSH2 0x1363 DUP2 DUP6 PUSH1 0x20 DUP7 ADD PUSH2 0x10DF JUMP JUMPDEST PUSH2 0x136C DUP2 PUSH2 0xEE2 JUMP JUMPDEST DUP5 ADD SWAP2 POP POP SWAP3 SWAP2 POP POP JUMP JUMPDEST PUSH0 PUSH1 0x20 DUP3 ADD SWAP1 POP DUP2 DUP2 SUB PUSH0 DUP4 ADD MSTORE PUSH2 0x138F DUP2 DUP5 PUSH2 0x133F JUMP JUMPDEST SWAP1 POP SWAP3 SWAP2 POP POP JUMP JUMPDEST PUSH0 PUSH0 PUSH0 PUSH0 PUSH1 0x80 DUP6 DUP8 SUB SLT ISZERO PUSH2 0x13AF JUMPI PUSH2 0x13AE PUSH2 0xED2 JUMP JUMPDEST JUMPDEST PUSH0 DUP6 ADD CALLDATALOAD PUSH8 0xFFFFFFFFFFFFFFFF DUP2 GT ISZERO PUSH2 0x13CC JUMPI PUSH2 0x13CB PUSH2 0xED6 JUMP JUMPDEST JUMPDEST PUSH2 0x13D8 DUP8 DUP3 DUP9 ADD PUSH2 0xFE9 JUMP JUMPDEST SWAP5 POP POP PUSH1 0x20 DUP6 ADD CALLDATALOAD PUSH8 0xFFFFFFFFFFFFFFFF DUP2 GT ISZERO PUSH2 0x13F9 JUMPI PUSH2 0x13F8 PUSH2 0xED6 JUMP JUMPDEST JUMPDEST PUSH2 0x1405 DUP8 DUP3 DUP9 ADD PUSH2 0xFE9 JUMP JUMPDEST SWAP4 POP POP PUSH1 0x40 DUP6 ADD CALLDATALOAD PUSH8 0xFFFFFFFFFFFFFFFF DUP2 GT ISZERO PUSH2 0x1426 JUMPI PUSH2 0x1425 PUSH2 0xED6 JUMP JUMPDEST JUMPDEST PUSH2 0x1432 DUP8 DUP3 DUP9 ADD PUSH2 0xFE9 JUMP JUMPDEST SWAP3 POP POP PUSH1 0x60 DUP6 ADD CALLDATALOAD PUSH8 0xFFFFFFFFFFFFFFFF DUP2 GT ISZERO PUSH2 0x1453 JUMPI PUSH2 0x1452 PUSH2 0xED6 JUMP JUMPDEST JUMPDEST PUSH2 0x145F DUP8 DUP3 DUP9 ADD PUSH2 0xFE9 JUMP JUMPDEST SWAP2 POP POP SWAP3 SWAP6 SWAP2 SWAP5 POP SWAP3 POP JUMP JUMPDEST PUSH2 0x1474 DUP2 PUSH2 0x10A5 JUMP JUMPDEST DUP3 MSTORE POP POP JUMP JUMPDEST PUSH0 PUSH1 0x20 DUP3 ADD SWAP1 POP PUSH2 0x148D PUSH0 DUP4 ADD DUP5 PUSH2 0x146B JUMP JUMPDEST SWAP3 SWAP2 POP POP JUMP JUMPDEST PUSH0 PUSH1 0xC0 DUP4 ADD PUSH0 DUP4 ADD MLOAD PUSH2 0x14A8 PUSH0 DUP7 ADD DUP3 PUSH2 0x10B6 JUMP JUMPDEST POP PUSH1 0x20 DUP4 ADD MLOAD DUP5 DUP3 SUB PUSH1 0x20 DUP7 ADD MSTORE PUSH2 0x14C0 DUP3 DUP3 PUSH2 0x10ED JUMP JUMPDEST SWAP2 POP POP PUSH1 0x40 DUP4 ADD MLOAD DUP5 DUP3 SUB PUSH1 0x40 DUP7 ADD MSTORE PUSH2 0x14DA DUP3 DUP3 PUSH2 0x10ED JUMP JUMPDEST SWAP2 POP POP PUSH1 0x60 DUP4 ADD MLOAD DUP5 DUP3 SUB PUSH1 0x60 DUP7 ADD MSTORE PUSH2 0x14F4 DUP3 DUP3 PUSH2 0x10ED JUMP JUMPDEST SWAP2 POP POP PUSH1 0x80 DUP4 ADD MLOAD PUSH2 0x1509 PUSH1 0x80 DUP7 ADD DUP3 PUSH2 0x112E JUMP JUMPDEST POP PUSH1 0xA0 DUP4 ADD MLOAD PUSH2 0x151C PUSH1 0xA0 DUP7 ADD DUP3 PUSH2 0x1148 JUMP JUMPDEST POP DUP1 SWAP2 POP POP SWAP3 SWAP2 POP POP JUMP JUMPDEST PUSH0 PUSH1 0x20 DUP3 ADD SWAP1 POP DUP2 DUP2 SUB PUSH0 DUP4 ADD MSTORE PUSH2 0x153F DUP2 DUP5 PUSH2 0x1493 JUMP JUMPDEST SWAP1 POP SWAP3 SWAP2 POP POP JUMP JUMPDEST PUSH2 0x1550 DUP2 PUSH2 0x1125 JUMP JUMPDEST DUP3 MSTORE POP POP JUMP JUMPDEST PUSH2 0x155F DUP2 PUSH2 0x113D JUMP JUMPDEST DUP3 MSTORE POP POP JUMP JUMPDEST PUSH0 PUSH1 0xC0 DUP3 ADD SWAP1 POP PUSH2 0x1578 PUSH0 DUP4 ADD DUP10 PUSH2 0x146B JUMP JUMPDEST DUP2 DUP2 SUB PUSH1 0x20 DUP4 ADD MSTORE PUSH2 0x158A DUP2 DUP9 PUSH2 0x133F JUMP JUMPDEST SWAP1 POP DUP2 DUP2 SUB PUSH1 0x40 DUP4 ADD MSTORE PUSH2 0x159E DUP2 DUP8 PUSH2 0x133F JUMP JUMPDEST SWAP1 POP DUP2 DUP2 SUB PUSH1 0x60 DUP4 ADD MSTORE PUSH2 0x15B2 DUP2 DUP7 PUSH2 0x133F JUMP JUMPDEST SWAP1 POP PUSH2 0x15C1 PUSH1 0x80 DUP4 ADD DUP6 PUSH2 0x1547 JUMP JUMPDEST PUSH2 0x15CE PUSH1 0xA0 DUP4 ADD DUP5 PUSH2 0x1556 JUMP JUMPDEST SWAP8 SWAP7 POP POP POP POP POP POP POP JUMP JUMPDEST PUSH32 0x4F6E6C79206F776E65722063616E2076657269667920626F6F6B696E67000000 PUSH0 DUP3 ADD MSTORE POP JUMP JUMPDEST PUSH0 PUSH2 0x160D PUSH1 0x1D DUP4 PUSH2 0x132F JUMP JUMPDEST SWAP2 POP PUSH2 0x1618 DUP3 PUSH2 0x15D9 JUMP JUMPDEST PUSH1 0x20 DUP3 ADD SWAP1 POP SWAP2 SWAP1 POP JUMP JUMPDEST PUSH0 PUSH1 0x20 DUP3 ADD SWAP1 POP DUP2 DUP2 SUB PUSH0 DUP4 ADD MSTORE PUSH2 0x163A DUP2 PUSH2 0x1601 JUMP JUMPDEST SWAP1 POP SWAP2 SWAP1 POP JUMP JUMPDEST PUSH0 DUP2 SWAP1 POP SWAP3 SWAP2 POP POP JUMP JUMPDEST PUSH0 PUSH2 0x1655 DUP3 PUSH2 0x10C5 JUMP JUMPDEST PUSH2 0x165F DUP2 DUP6 PUSH2 0x1641 JUMP JUMPDEST SWAP4 POP PUSH2 0x166F DUP2 DUP6 PUSH1 0x20 DUP7 ADD PUSH2 0x10DF JUMP JUMPDEST DUP1 DUP5 ADD SWAP2 POP POP SWAP3 SWAP2 POP POP JUMP JUMPDEST PUSH0 PUSH2 0x1686 DUP3 DUP5 PUSH2 0x164B JUMP JUMPDEST SWAP2 POP DUP2 SWAP1 POP SWAP3 SWAP2 POP POP JUMP JUMPDEST PUSH32 0x426F6F6B696E67206E6F7420666F756E64000000000000000000000000000000 PUSH0 DUP3 ADD MSTORE POP JUMP JUMPDEST PUSH0 PUSH2 0x16C5 PUSH1 0x11 DUP4 PUSH2 0x132F JUMP JUMPDEST SWAP2 POP PUSH2 0x16D0 DUP3 PUSH2 0x1691 JUMP JUMPDEST PUSH1 0x20 DUP3 ADD SWAP1 POP SWAP2 SWAP1 POP JUMP JUMPDEST PUSH0 PUSH1 0x20 DUP3 ADD SWAP1 POP DUP2 DUP2 SUB PUSH0 DUP4 ADD MSTORE PUSH2 0x16F2 DUP2 PUSH2 0x16B9 JUMP JUMPDEST SWAP1 POP SWAP2 SWAP1 POP JUMP JUMPDEST PUSH32 0x4E487B7100000000000000000000000000000000000000000000000000000000 PUSH0 MSTORE PUSH1 0x22 PUSH1 0x4 MSTORE PUSH1 0x24 PUSH0 REVERT JUMPDEST PUSH0 PUSH1 0x2 DUP3 DIV SWAP1 POP PUSH1 0x1 DUP3 AND DUP1 PUSH2 0x173D JUMPI PUSH1 0x7F DUP3 AND SWAP2 POP JUMPDEST PUSH1 0x20 DUP3 LT DUP2 SUB PUSH2 0x1750 JUMPI PUSH2 0x174F PUSH2 0x16F9 JUMP JUMPDEST JUMPDEST POP SWAP2 SWAP1 POP JUMP JUMPDEST PUSH32 0x4E487B7100000000000000000000000000000000000000000000000000000000 PUSH0 MSTORE PUSH1 0x32 PUSH1 0x4 MSTORE PUSH1 0x24 PUSH0 REVERT JUMPDEST PUSH32 0x426F6F6B696E6720494420616C72656164792065786973747300000000000000 PUSH0 DUP3 ADD MSTORE POP JUMP JUMPDEST PUSH0 PUSH2 0x17B7 PUSH1 0x19 DUP4 PUSH2 0x132F JUMP JUMPDEST SWAP2 POP PUSH2 0x17C2 DUP3 PUSH2 0x1783 JUMP JUMPDEST PUSH1 0x20 DUP3 ADD SWAP1 POP SWAP2 SWAP1 POP JUMP JUMPDEST PUSH0 PUSH1 0x20 DUP3 ADD SWAP1 POP DUP2 DUP2 SUB PUSH0 DUP4 ADD MSTORE PUSH2 0x17E4 DUP2 PUSH2 0x17AB JUMP JUMPDEST SWAP1 POP SWAP2 SWAP1 POP JUMP JUMPDEST PUSH0 DUP2 SWAP1 POP DUP2 PUSH0 MSTORE PUSH1 0x20 PUSH0 KECCAK256 SWAP1 POP SWAP2 SWAP1 POP JUMP JUMPDEST PUSH0 PUSH1 0x20 PUSH1 0x1F DUP4 ADD DIV SWAP1 POP SWAP2 SWAP1 POP JUMP JUMPDEST PUSH0 DUP3 DUP3 SHL SWAP1 POP SWAP3 SWAP2 POP POP JUMP JUMPDEST PUSH0 PUSH1 0x8 DUP4 MUL PUSH2 0x1847 PUSH32 0xFFFFFFFFFFFFFFFFFFFFFFFFFFFFFFFFFFFFFFFFFFFFFFFFFFFFFFFFFFFFFFFF DUP3 PUSH2 0x180C JUMP JUMPDEST PUSH2 0x1851 DUP7 DUP4 PUSH2 0x180C JUMP JUMPDEST SWAP6 POP DUP1 NOT DUP5 AND SWAP4 POP DUP1 DUP7 AND DUP5 OR SWAP3 POP POP POP SWAP4 SWAP3 POP POP POP JUMP JUMPDEST PUSH0 DUP2 SWAP1 POP SWAP2 SWAP1 POP JUMP JUMPDEST PUSH0 PUSH2 0x188C PUSH2 0x1887 PUSH2 0x1882 DUP5 PUSH2 0x1125 JUMP JUMPDEST PUSH2 0x1869 JUMP JUMPDEST PUSH2 0x1125 JUMP JUMPDEST SWAP1 POP SWAP2 SWAP1 POP JUMP JUMPDEST PUSH0 DUP2 SWAP1 POP SWAP2 SWAP1 POP JUMP JUMPDEST PUSH2 0x18A5 DUP4 PUSH2 0x1872 JUMP JUMPDEST PUSH2 0x18B9 PUSH2 0x18B1 DUP3 PUSH2 0x1893 JUMP JUMPDEST DUP5 DUP5 SLOAD PUSH2 0x1818 JUMP JUMPDEST DUP3 SSTORE POP POP POP POP JUMP JUMPDEST PUSH0 PUSH0 SWAP1 POP SWAP1 JUMP JUMPDEST PUSH2 0x18D0 PUSH2 0x18C1 JUMP JUMPDEST PUSH2 0x18DB DUP2 DUP5 DUP5 PUSH2 0x189C JUMP JUMPDEST POP POP POP JUMP JUMPDEST JUMPDEST DUP2 DUP2 LT ISZERO PUSH2 0x18FE JUMPI PUSH2 0x18F3 PUSH0 DUP3 PUSH2 0x18C8 JUMP JUMPDEST PUSH1 0x1 DUP2 ADD SWAP1 POP PUSH2 0x18E1 JUMP JUMPDEST POP POP JUMP JUMPDEST PUSH1 0x1F DUP3 GT ISZERO PUSH2 0x1943 JUMPI PUSH2 0x1914 DUP2 PUSH2 0x17EB JUMP JUMPDEST PUSH2 0x191D DUP5 PUSH2 0x17FD JUMP JUMPDEST DUP2 ADD PUSH1 0x20 DUP6 LT ISZERO PUSH2 0x192C JUMPI DUP2 SWAP1 POP JUMPDEST PUSH2 0x1940 PUSH2 0x1938 DUP6 PUSH2 0x17FD JUMP JUMPDEST DUP4 ADD DUP3 PUSH2 0x18E0 JUMP JUMPDEST POP POP JUMPDEST POP POP POP JUMP JUMPDEST PUSH0 DUP3 DUP3 SHR SWAP1 POP SWAP3 SWAP2 POP POP JUMP JUMPDEST PUSH0 PUSH2 0x1963 PUSH0 NOT DUP5 PUSH1 0x8 MUL PUSH2 0x1948 JUMP JUMPDEST NOT DUP1 DUP4 AND SWAP2 POP POP SWAP3 SWAP2 POP POP JUMP JUMPDEST PUSH0 PUSH2 0x197B DUP4 DUP4 PUSH2 0x1954 JUMP JUMPDEST SWAP2 POP DUP3 PUSH1 0x2 MUL DUP3 OR SWAP1 POP SWAP3 SWAP2 POP POP JUMP JUMPDEST PUSH2 0x1994 DUP3 PUSH2 0x10C5 JUMP JUMPDEST PUSH8 0xFFFFFFFFFFFFFFFF DUP2 GT ISZERO PUSH2 0x19AD JUMPI PUSH2 0x19AC PUSH2 0xEF2 JUMP JUMPDEST JUMPDEST PUSH2 0x19B7 DUP3 SLOAD PUSH2 0x1726 JUMP JUMPDEST PUSH2 0x19C2 DUP3 DUP3 DUP6 PUSH2 0x1902 JUMP JUMPDEST PUSH0 PUSH1 0x20 SWAP1 POP PUSH1 0x1F DUP4 GT PUSH1 0x1 DUP2 EQ PUSH2 0x19F3 JUMPI PUSH0 DUP5 ISZERO PUSH2 0x19E1 JUMPI DUP3 DUP8 ADD MLOAD SWAP1 POP JUMPDEST PUSH2 0x19EB DUP6 DUP3 PUSH2 0x1970 JUMP JUMPDEST DUP7 SSTORE POP PUSH2 0x1A52 JUMP JUMPDEST PUSH1 0x1F NOT DUP5 AND PUSH2 0x1A01 DUP7 PUSH2 0x17EB JUMP JUMPDEST PUSH0 JUMPDEST DUP3 DUP2 LT ISZERO PUSH2 0x1A28 JUMPI DUP5 DUP10 ADD MLOAD DUP3 SSTORE PUSH1 0x1 DUP3 ADD SWAP2 POP PUSH1 0x20 DUP6 ADD SWAP5 POP PUSH1 0x20 DUP2 ADD SWAP1 POP PUSH2 0x1A03 JUMP JUMPDEST DUP7 DUP4 LT ISZERO PUSH2 0x1A45 JUMPI DUP5 DUP10 ADD MLOAD PUSH2 0x1A41 PUSH1 0x1F DUP10 AND DUP3 PUSH2 0x1954 JUMP JUMPDEST DUP4 SSTORE POP JUMPDEST PUSH1 0x1 PUSH1 0x2 DUP9 MUL ADD DUP9 SSTORE POP POP POP JUMPDEST POP POP POP POP POP POP JUMP JUMPDEST PUSH0 PUSH1 0x80 DUP3 ADD SWAP1 POP DUP2 DUP2 SUB PUSH0 DUP4 ADD MSTORE PUSH2 0x1A72 DUP2 DUP8 PUSH2 0x133F JUMP JUMPDEST SWAP1 POP DUP2 DUP2 SUB PUSH1 0x20 DUP4 ADD MSTORE PUSH2 0x1A86 DUP2 DUP7 PUSH2 0x133F JUMP JUMPDEST SWAP1 POP DUP2 DUP2 SUB PUSH1 0x40 DUP4 ADD MSTORE PUSH2 0x1A9A DUP2 DUP6 PUSH2 0x133F JUMP JUMPDEST SWAP1 POP DUP2 DUP2 SUB PUSH1 0x60 DUP4 ADD MSTORE PUSH2 0x1AAE DUP2 DUP5 PUSH2 0x133F JUMP JUMPDEST SWAP1 POP SWAP6 SWAP5 POP POP POP POP POP JUMP INVALID LOG2 PUSH5 0x6970667358 0x22 SLT KECCAK256 PUSH27 0x465367ECCAC97D49D81DF1DA0A9869EF3928E7308A710D83AB91C0 0xA9 EXTCODECOPY 0x2C PUSH32 0x64736F6C634300081E0033000000000000000000000000000000000000000000 "
				},
				"gasEstimates": {
					"creation": {
						"codeDepositCost": "1379000",
						"executionCost": "25700",
						"totalCost": "1404700"
					},
					"external": {
						"bookingsById(string)": "infinite",
						"getBookingById(string)": "infinite",
						"getMyBookings()": "infinite",
						"makeReservation(string,string,string,string)": "infinite",
						"myBookingIds(address,uint256)": "infinite",
						"owner()": "2529",
						"verifyBooking(string)": "infinite"
					}
				},
				"methodIdentifiers": {
					"bookingsById(string)": "d0e3fb61",
					"getBookingById(string)": "ae91322a",
					"getMyBookings()": "180d7ef9",
					"makeReservation(string,string,string,string)": "70770692",
					"myBookingIds(address,uint256)": "681c3a49",
					"owner()": "8da5cb5b",
					"verifyBooking(string)": "1660dc6f"
				}
			},
			"storageLayout": {
				"storage": [
					{
						"astId": 3,
						"contract": "SmartReservation.sol:SmartReservation",
						"label": "owner",
						"offset": 0,
						"slot": "0",
						"type": "t_address"
					},
					{
						"astId": 21,
						"contract": "SmartReservation.sol:SmartReservation",
						"label": "bookingsById",
						"offset": 0,
						"slot": "1",
						"type": "t_mapping(t_string_memory_ptr,t_struct(Booking)16_storage)"
					},
					{
						"astId": 26,
						"contract": "SmartReservation.sol:SmartReservation",
						"label": "myBookingIds",
						"offset": 0,
						"slot": "2",
						"type": "t_mapping(t_address,t_array(t_string_storage)dyn_storage)"
					}
				],
				"types": {
					"t_address": {
						"encoding": "inplace",
						"label": "address",
						"numberOfBytes": "20"
					},
					"t_array(t_string_storage)dyn_storage": {
						"base": "t_string_storage",
						"encoding": "dynamic_array",
						"label": "string[]",
						"numberOfBytes": "32"
					},
					"t_bool": {
						"encoding": "inplace",
						"label": "bool",
						"numberOfBytes": "1"
					},
					"t_mapping(t_address,t_array(t_string_storage)dyn_storage)": {
						"encoding": "mapping",
						"key": "t_address",
						"label": "mapping(address => string[])",
						"numberOfBytes": "32",
						"value": "t_array(t_string_storage)dyn_storage"
					},
					"t_mapping(t_string_memory_ptr,t_struct(Booking)16_storage)": {
						"encoding": "mapping",
						"key": "t_string_memory_ptr",
						"label": "mapping(string => struct SmartReservation.Booking)",
						"numberOfBytes": "32",
						"value": "t_struct(Booking)16_storage"
					},
					"t_string_memory_ptr": {
						"encoding": "bytes",
						"label": "string",
						"numberOfBytes": "32"
					},
					"t_string_storage": {
						"encoding": "bytes",
						"label": "string",
						"numberOfBytes": "32"
					},
					"t_struct(Booking)16_storage": {
						"encoding": "inplace",
						"label": "struct SmartReservation.Booking",
						"members": [
							{
								"astId": 5,
								"contract": "SmartReservation.sol:SmartReservation",
								"label": "user",
								"offset": 0,
								"slot": "0",
								"type": "t_address"
							},
							{
								"astId": 7,
								"contract": "SmartReservation.sol:SmartReservation",
								"label": "nama",
								"offset": 0,
								"slot": "1",
								"type": "t_string_storage"
							},
							{
								"astId": 9,
								"contract": "SmartReservation.sol:SmartReservation",
								"label": "tanggal",
								"offset": 0,
								"slot": "2",
								"type": "t_string_storage"
							},
							{
								"astId": 11,
								"contract": "SmartReservation.sol:SmartReservation",
								"label": "hotel",
								"offset": 0,
								"slot": "3",
								"type": "t_string_storage"
							},
							{
								"astId": 13,
								"contract": "SmartReservation.sol:SmartReservation",
								"label": "timestamp",
								"offset": 0,
								"slot": "4",
								"type": "t_uint256"
							},
							{
								"astId": 15,
								"contract": "SmartReservation.sol:SmartReservation",
								"label": "verified",
								"offset": 0,
								"slot": "5",
								"type": "t_bool"
							}
						],
						"numberOfBytes": "192"
					},
					"t_uint256": {
						"encoding": "inplace",
						"label": "uint256",
						"numberOfBytes": "32"
					}
				}
			},
			"userdoc": {
				"kind": "user",
				"methods": {},
				"version": 1
			}
		}
	}
}